:1000000000800020BD0100006917000021170000DA
:100010002117000021170000211700002117000000
:1000200021170000211700002117000069170000A8
:100030006917000021170000A1320000A53200005E
:1000400069170000691700006917000069170000B0
:1000500069170000691700006917000069170000A0
:100060006917000069170000691700006917000090
:100070006917000069170000691700006917000080
:100080006917000069170000691700006917000070
:100090006917000069170000691700006917000060
:1000A0006917000069170000691700006917000050
:1000B0006917000069170000691700006917000040
:1000C0006917000069170000691700006917000030
:1000D0006917000069170000691700006917000020
:1000E0006917000069170000691700006917000010
:1000F00069170000B92000006917000069170000A7
:1001000069170000691700006917000069170000EF
:1001100069170000691700006917000069170000DF
:1001200069170000691700006917000069170000CF
:1001300069170000691700006917000069170000BF
:1001400069170000691700006917000069170000AF
:10015000691700006917000069170000691700009F
:100160006917000079230000691700006917000073
:10017000691700006917000069170000691700007F
:10018000691700006917000069170000691700006F
:10019000691700006917000069170000691700005F
:1001A000691700006917000069170000691700004F
:1001B000691700006917000069170000564B4CF2E0
:1001C000205210B51A804DF628121A8000BF00BFC9
:1001D00001F0CEFA514B4FF010621A60504A9A600B
:1001E000504ADA60504A136813F4807304D14F49BF
:1001F0000B604FF4A85313604D4B1A78110703D5C9
:100200001A7842F008021A704A4B4B492A221A7097
:100210004A4A4B4B8B4204D252F8040F43F8040B6A
:10022000F8E7484B484900228B4202D243F8042B9E
:10023000FAE74649464A002352F8230041F82300D2
:1002400001336F2BF8D1434B434A802103F8011B44
:100250009342FBD1414B3D4A1A60414B8A221A70AE
:10026000A3F5805324225A70A0221A709A7992071B
:10027000FCD59A79D406FCD43A4A937903F00C035E
:10028000082B384BF9D103221A7140225A719A79FE
:100290009006FCD5334A9179324B4906FBD5324A58
:1002A000324911600221516020221A709A7902F0BD
:1002B0000C020C2AFAD12E4B2E4A1A602E4B2F4AD2
:1002C0001A6000225A60072243F8042C2C4AC3F813
:1002D0000C2D62B601F052FB144B1B68DA0705D5F2
:1002E000284801F0DFFA284B284A1A60284B1B786F
:1002F0005B0609D5244C254B22689A4204D121483B
:1003000001F0D0FA0023236003F00AFE01F036FA70
:1003100003F078F9FEE700BF0E200540308004406E
:10032000823F04000100002B10D0034014D0034092
:1003300002D0074000E007403C90FF1FC854000077
:100340002087FF1F3C90FF1F9096FF1F0082FF1F1A
:100350000000000000E400E05FE400E008ED00E0E1
:100360000050064000400640448004400000030165
:1003700004800440C010050014E000E0FF76010096
:1003800000002020884A3E601CE00340A5C3945A28
:1003900000F00740FFFFFFFFFFFFFFFFFFFFFFFF32
:1003A000FFFFFFFFFFFFFFFFFFFFFFFFFFFFFFFF5D
:1003B000FFFFFFFFFFFFFFFFFFFFFFFFFFFFFFFF4D
:1003C000FFFFFFFFFFFFFFFFFFFFFFFFFFFFFFFF3D
:1003D000FFFFFFFFFFFFFFFFFFFFFFFFFFFFFFFF2D
:1003E000FFFFFFFFFFFFFFFFFFFFFFFFFFFFFFFF1D
:1003F000FFFFFFFFFFFFFFFFFFFFFFFFFFFFFFFF0D
:10040000FFFFFFFFFFFFFFFFFFFFFFFFDEF9FFFF23
:1004100010B5054C237833B9044B13B10448AFF33E
:1004200000800123237010BD3C90FF1F00000000DE
:10043000C4540000084B10B51BB108490848AFF37D
:1004400000800848036803B910BD074B002BFBD0A0
:10045000BDE81040184700BF000000004090FF1F9B
:10046000C45400003C90FF1F000000002DE9F0473D
:10047000427F82B001250024B2B1027F202A2AD80F
:10048000DFE802F01E292929292929292911112902
:1004900029112929292929292929292929292929E4
:1004A000292929291100447742698669B24242D23A
:1004B000561C4661127822EAE27202774577DDE740
:1004C000037C002B0CBF0123022380F86430002042
:1004D00002B0BDE8F087447F01250574ECB1272AFE
:1004E0002DD00D46044628D95B2A00F00A817B2ACC
:1004F00062D12A7A22F07F02DFB242F0200300228A
:100500002B722A606A60002F40F0C781062300200A
:1005100084F8643002B0BDE8F08742698569AA4278
:1005200080F03F81541C4461127822EAE272012477
:1005300002774477D3E70022BFE7222A3CD1046840
:10054000457F63684360A368666800249B1BC360A3
:100550008460002D00F07283002423464477A44673
:1005600026464FF0010EDBB1037F46779A424FF0EB
:10057000000400F01881002B00F0BC805C2B00F020
:100580008F804568002D00F089808468C768BC4270
:1005900073D30368466083F810E0437F002BE3D1F8
:1005A00043698469A34280F09A805C1C44611B7893
:1005B00023EAE3730377D8E70020864604F1230695
:1005C00047F6ED7C0127A2F15F03DBB2A2F1410106
:1005D0001B2BC9B25FFA80F854D83F283AD104EBFC
:1005E0000803002683F8246094F82430742B1ED06E
:1005F000662B00F0BC836E2B21D02B2B00F0EC85FA
:100600002D2B09BF94F8253004F1240704F12507A8
:100610000126A3F13002D2B2092A40F295812E2B95
:1006200000F09E86032384F86430002050E72B7A84
:1006300023F07F0343F0060301222B722A60B8F1F6
:10064000040F00F0A7810223002084F8643002B078
:10065000BDE8F08784F81DE006F8012F6269A36900
:10066000511C9A423CBF61611278677734BF22EA1D
:10067000E272002222770130A5E7671C87602B55C4
:10068000437F70E7A2F12B031929DBB2A5D90E2B0A
:100690002CFA03F1A3D8CB07A1D59EE7437F62E7ED
:1006A00043698769BB4222D25D1C45611B7880F893
:1006B0001DE023EAE373DDB20577DBB1752B00F0B3
:1006C000B2802F2DBA4C02D10CE0AB420AD014F804
:1006D000023F002BF9D1032380F864300DE00023A2
:1006E000037742E76378002BF5D0467749E701238B
:1006F00004774377022380F86430002002B0BDE81D
:10070000F0872A7A22F07F02002142F04002DBB219
:100710002A7229606960002B3FF4F8AEA069617706
:1007200001276269824202F101062BD266611278CA
:10073000677722EAE2722277202A00F23D81DFE821
:1007400012F025003B013B013B013B013B013B011A
:100750003B013B012D012D013B013B012D013B01E3
:100760003B013B013B013B013B013B013B013B01A9
:100770003B013B013B013B013B013B013B013B0199
:100780003B012D010022012322776377237C002B7C
:100790000CBF01230223002084F8643002B0BDE8BE
:1007A000F0872246C3E64268002A00F0FD80836895
:1007B000C568AB4280F0F4805D1C8560D45443680A
:1007C000002B00F0F180D0F8008098E88040BE4512
:1007D0001BD99EF800C03C78644540F0CC857B1C5A
:1007E000BCF1000F16D0754600E09AB11E4615F810
:1007F000012F13F8014BA242F7D01CB116F8013FAC
:10080000002BFBD1771CBE45E5D883687344C8F83C
:10081000043077460B7A0F6023F07F0343F0050323
:100820000B72012054E64677042543699F4203F189
:1008300001082DD9C0F814801B7880F81DE023EA48
:10084000E373A3F130080377002B3FF453AF402B41
:1008500085BF23F02003373B5FFA88F3DBB243EA1E
:1008600004140FFA84F80F2B05F1FF351FFA88F4F2
:100870003FF631AF15F0FF054677D6D104F520538A
:100880009BB2B3F5806F80F09381C4F3090C87E6C7
:1008900000220123027743772CE7A66962770120C3
:1008A0006369B34203F10101BFF46CAF61611B786E
:1008B000607723EAE3732377202B00F21D8101A1E7
:1008C00051F823F08D070000F90A0000F90A000032
:1008D000F90A0000F90A0000F90A0000F90A00000C
:1008E000F90A0000F90A00009909000099090000BE
:1008F000F90A0000F90A000099090000F90A00004D
:10090000F90A0000F90A0000F90A0000F90A0000DB
:10091000F90A0000F90A0000F90A0000F90A0000CB
:10092000F90A0000F90A0000F90A0000F90A0000BB
:10093000F90A0000F90A0000F90A0000F90A0000AB
:10094000F90A0000990900000020DFF8688007E03C
:10095000404500F24B844FEA4C00704500F246845B
:1009600017F8011FA1F13003DBB21044092B00EB93
:10097000800C1A466FEA030EEAD9002940F0F18490
:100980002B7A286023F07F03002E00F0B88443F018
:100990000A032B7201209BE5627781E76177C0E64D
:1009A0000368446001221A74042380F86430A4E6CA
:1009B0008C5200009999991901215D2A217400F047
:1009C0003681226A5068916810308142C0F03381CC
:1009D00010399160002900F08A80013BDEB20027C7
:1009E0006B68002B00F00082CA1A12115A816960EC
:1009F0004F810F72CF6033464FF000022046FFF761
:100A000035FD00283FF479AE637F0122002B48D0EA
:100A1000237F202B52D801A151F823F08D0700002D
:100A2000BD0A0000BD0A0000BD0A0000BD0A0000AA
:100A3000BD0A0000BD0A0000BD0A0000BD0A00009A
:100A4000A10A0000A10A0000BD0A0000BD0A0000C2
:100A5000A10A0000BD0A0000BD0A0000BD0A000096
:100A6000BD0A0000BD0A0000BD0A0000BD0A00006A
:100A7000BD0A0000BD0A0000BD0A0000BD0A00005A
:100A8000BD0A0000BD0A0000BD0A0000BD0A00004A
:100A9000BD0A0000BD0A0000BD0A0000A10A000056
:100AA00067776369A1698B4280F08881591C616115
:100AB0001B7823EAE37323776277AAE7627F012139
:100AC0002174002A00F05F815D2B00F0B0802C2B98
:100AD0007FF4A8AD226A6777536891681033994212
:100AE000C0F0A9801039916000297FF479AF042308
:100AF00084F864300020EBE44FF001087D2B84F88B
:100B0000108000F094802068637F41686160826893
:100B10004068121A0020E260A060002B00F04181C2
:100B2000207F272800F0BE80222800F0AF80637F5E
:100B3000002B00F04981A0F13002D2B20346092A0D
:100B400000F28B800026667700295DD0A268E068FD
:100B5000824253D32368666083F81080637F00214C
:100B6000002B51D0237FA3F13002D2B2092AEAD957
:100B7000A3F15F02D2B21B2AE5D9A3F14102D2B29E
:100B8000192AE0D92B2BDED0A3F12D02D2B2012AF3
:100B9000D9D949B1A368E2689342C0F0368123688D
:100BA0000021012261601A74042384F86430A4E5F2
:100BB00004F510539BB2B3F5806FC0F063837F2CB4
:100BC0008DF8005000F266835FFA88F38DF80130EB
:100BD0000DF1020808F1FF38002B3FF45FAD4768C4
:100BE0004FB18568C468A54205F101041CD30368B0
:100BF000466083F810E018F8013DEDE7501CA06056
:100C00008B54637F6168ABE76369A269934221D229
:100C10005A1C62611B7823EAE373A3F13002D2B25B
:100C2000237784F81D80A1E784607B55E3E70023E8
:100C3000637701204CE40123137458E74369826908
:100C4000934280F0BD805A1C42611A7822EAE27217
:100C5000027781E4D0220023E2E7A3F15F02D2B25F
:100C60001B2A7FF66FAFA3F14102D2B2192A7FF699
:100C700069AF2B2B3FF466AF2D2B3FF463AF2E2BC8
:100C80003FF460AF032384F8643036E5637F4BB9EB
:100C90006269B24280F07283531C6361137823EA65
:100CA000E370207700221346627796461646D3B14A
:100CB000237F667798424FF0000200F09880002B67
:100CC00051D05C2B22D0D4F804C0BCF1000F1BD053
:100CD000A268E1688A4211D32368666083F81080B5
:100CE000637F002BE4D16269A3699A4234D2531C1A
:100CF0006361137823EAE3732377DAE7511CA16079
:100D00000CF80230637FD2E7637FD0E76369A169A3
:100D10008B4225D203F1010CC4F814C093F800C033
:100D200084F81D802CEAEC7C5FFA8CF32377BCF10D
:100D3000000F18D0BCF1750F00F0E4812F2BAA49E9
:100D400005D011F8022F002A9CD09A42F9D14B7895
:100D5000002B97D06677B6E700232377A9E7002218
:100D6000012322776377022384F86430C5E42B7A69
:100D70002E6023F07F0343F00603B8F1050F2B72BA
:100D80007FF461AC06E66369A1698B4280F02C8236
:100D90005A1C62611B7823EAE3730122237762778E
:100DA00092E66269B24280F06782531C63611378F5
:100DB00023EAE370207784F81D80B2E600237AE608
:100DC0002A460277FFF7C8BB6269B24280F095827B
:100DD000531C6361137823EAE373A3F13002D2B2A8
:100DE000237784F81D80AAE62960696000E66168BF
:100DF00000293FF4D9AEA368E0688342C0F05C826A
:100E00002368626001221A74CEE6581C0022A0609A
:100E1000CA54D4F80490B9F1000F3FF4C5AE637F13
:100E20000022002B49D0237F202B54D801A151F858
:100E300023F000BF8D070000D70E0000D70E000082
:100E4000D70E0000D70E0000D70E0000D70E00000E
:100E5000D70E0000D70E0000B90E0000B90E00003A
:100E6000D70E0000D70E0000B90E0000D70E00000C
:100E7000D70E0000D70E0000D70E0000D70E0000DE
:100E8000D70E0000D70E0000D70E0000D70E0000CE
:100E9000D70E0000D70E0000D70E0000D70E0000BE
:100EA000D70E0000D70E0000D70E0000D70E0000AE
:100EB000D70E0000B90E000062776369A1698B420A
:100EC00080F01C81591C61611B7823EAE37323774E
:100ED00084F81D80A8E7627F84F81080002A00F063
:100EE000F1803A2B7FF49EAB00232E6863770DE0F0
:100EF000B9F1000F03D013B103F086FD70B1B6F95C
:100F00000A30002B00F0358106EB03164846002E10
:100F100000F02F81F36899451946E9D131467B1ECF
:100F20004FF000022046FFF7A1FA00283FF4E5AB9E
:100F3000637F0022002B48D0237F202B56D801A1AD
:100F400051F823F08D070000ED0F0000ED0F0000B9
:100F5000ED0F0000ED0F0000ED0F0000ED0F0000A1
:100F6000ED0F0000ED0F0000C90F0000C90F0000D9
:100F7000ED0F0000ED0F0000C90F0000ED0F0000A5
:100F8000ED0F0000ED0F0000ED0F0000ED0F000071
:100F9000ED0F0000ED0F0000ED0F0000ED0F000061
:100FA000ED0F0000ED0F0000ED0F0000ED0F000051
:100FB000ED0F0000ED0F0000ED0F0000ED0F000041
:100FC000ED0F0000C90F000062776369A1698B42D1
:100FD00080F09680591C61611B7823EAE3732377C4
:100FE00084F81D80A9E700BF8C520000627F84F85E
:100FF0001080002A74D07D2B3FF419AE2C2B7FF487
:1010000011AB0023A66963771A466369B34203F103
:10101000010151D261611B7884F81D8023EAE373DA
:101020002377202B3FF66FAD01A151F823F000BFCD
:1010300047060000070B0000070B0000070B00002D
:10104000070B0000070B0000070B0000070B000058
:10105000070B0000B5100000B5100000070B0000E2
:10106000070B0000B5100000070B0000070B000085
:10107000070B0000070B0000070B0000070B000028
:10108000070B0000070B0000070B0000070B000018
:10109000070B0000070B0000070B0000070B000008
:1010A000070B0000070B0000070B0000070B0000F8
:1010B000B51000006277A8E700220123227763774A
:1010C000FFF7C1BA6369A1698B4280F0D7805A1CCF
:1010D00062611B7823EAE373237784F81D8000E7BD
:1010E0006369A1698B4280F0CB805A1C62611B78D6
:1010F00023EAE373237784F81D807CE70023E6E688
:1011000000236CE766774FF0040C6369994203F1A2
:1011100001097FF624AEC4F814901B7884F81D8072
:1011200023EAE373A3F130092377002B3FF41BAECE
:10113000402B85BF23F02003373B5FFA89F3DBB2F6
:1011400043EA02120FFA82F90F2B0CF1FF3C1FFA4F
:1011500089F23FF697AD1CF0FF0C6677D5D102F50A
:1011600020539BB2B3F5806F80F01D81C2F3090E4E
:10117000B9E5D4F8009099E80044D6451ED99EF808
:1011800000C09AF800108C4540F0A7810AF10103D5
:10119000BCF1000F26D0704600E01AB31E4610F8CE
:1011A000012F13F8011B8A42F7D019B116F8013F3D
:1011B000002BFBD106F1010AD645E2D8A36873449F
:1011C000C9F804307346206A426886681032964235
:1011D0007CD2012303748AE494F8253004F12507B6
:1011E000FFF717BA5346EEE71346D6E5DFF878C3A4
:1011F000DFF878E30022ACFB0080C00801327045C4
:1012000052B2F8D8092B88BF0B4607D817F8013F10
:10121000A3F130010132092952B2F7D92E2B00F087
:10122000ED8097F8008008F0DF03452B6CD0002399
:10123000B8F1000F7FF4F6A9D41802F0BDFC002C21
:1012400040F35F81C44F14F0010F5FFA88F308F197
:10125000010803D057F8231002F006FD6410F2D104
:101260000EB100F100402B7A286023F07F0343F099
:101270000C032B72FFF78EBB18469BE513462BE73A
:10128000134637E7C4F3090444EA8C2404F5803498
:101290008DF8005004F03F03A409A5B263F07F036A
:1012A0001F2D8DF801306CD864F03F04E3B28DF847
:1012B00002300DF103088DE4581CA060CA54D4F824
:1012C0000490B9F1000F7FF4AAAD6DE4A6F110010E
:1012D000816000293FF40BAC6A68002A00F0E680C8
:1012E000881A001150816960002246F8043C80236E
:1012F00026F8062C06F8083C11E6D02270E543F0EB
:1013000008032B72FFF746BB97F80180B8F12D0F49
:1013100000F0CF80B8F12B0F00F0DA8007F1010E5A
:10132000A8F13003D9B2092981D89918262900F3E8
:1013300087804FF0000904E001EB4C03D118262907
:1013400077DC1EF8018FA8F13001CFB2092F03EB33
:10135000830CF1D9B9F1000F3FF46AAF5B4267E744
:1013600000203978B0F5000FA1F13003DBB2BFF4F3
:101370003DAF002246E73E46FFF73FBA18462077CA
:1013800090E404F03F05C4F3891365F07F050F2B4B
:101390008DF802507ADC63F01F03DBB28DF8033066
:1013A0000DF1040816E402F510539BB2B3F5806FFB
:1013B00052D37F2A8DF800C056D85FFA89F28DF893
:1013C00001200DF1020C0CF1FF3C002A3FF49CAC13
:1013D000D4F80490B9F1000F09D0A168E3689942EC
:1013E00001F1010306D32368666083F810801CF8BE
:1013F000012DEAE7A36009F80120F8E797F80180DA
:10140000A8F13003DBB2092B07F101073FF60BAF60
:101410005249884205D800EB8000013A03EB4000B6
:1014200052B217F8018FA8F13003DBB2092BF0D9C3
:10143000F9E6B9F1000F03D0002E75D1002202E0C9
:10144000002E76D0464A2B7A2A6023F07F0343F0A1
:101450000C032B72FFF79EBAC2F3090242EA8E22F6
:1014600002F580328DF800C002F03F01930961F06F
:101470007F0299B21F298DF8012030D863F03F0315
:10148000DAB28DF802200DF1030C9CE703F03F0364
:10149000C4F3033463F07F0544F0F0038DF8035088
:1014A0008DF804300DF10508FFF794BB29606960E1
:1014B0001AE797F80280A8F13003D9B2092907F199
:1014C000020E34D899182629B6DC4FF0010938E706
:1014D00007F1020E97F8028022E7564665E603F010
:1014E0003F01C3F3891261F07F010F2A8DF80210CA
:1014F00022DC62F01F02D2B28DF803200DF1040C41
:1015000061E76442002C3FF4ABAE164F14F0010FBC
:101510005FFA88F308F1010803D057F8231002F0AE
:10152000A3FB6410F2D19BE64FF000428BE700234F
:1015300014E74FF0FF4286E702F03F01C3F30333A5
:1015400061F07F0143F0F0028DF803108DF8042064
:101550000DF1050C37E700BF74520000CBCC0C0036
:10156000000080FF5C520000CDCCCCCCFFFF7F00A0
:10157000F0B5A3B000F01EFD00283EDD78226846DD
:101580004049414C01F06CFF6946404801F012FFB0
:101590003E4801F035FF049404AB0FCB257F26684D
:1015A000666025F07F05E668009FA6602577029EAD
:1015B000109408AD85E80F00284600254FF00A0377
:1015C0003E4404F114014FF0000225740D970E966D
:1015D0008DF830508DF83D508DF88450FEF746FF61
:1015E0009DF884305BB10521294801F033FD27487F
:1015F00001F006FF684601F04FFF23B0F0BD9DF8F3
:101600003C30A3BB237F204A03F0200303F0FF04F8
:10161000CBB154691F4D08E013B103F0F5F950B197
:10162000B4F90A300BB304EB03141A485CB1E36855
:10163000AB421946F0D1237A03F07F03043B012B20
:1016400094BF24680024204603F0BAFB01462046DC
:1016500000F02EFC204603F0B3FB0146204601F0CB
:10166000F9FC0A4801F0CCFEC4E71C46EBE7237FF7
:1016700003F07F020C2AB6D003F07D03082BC1D102
:10168000B1E700BF3087FF1F6890FF1F4887FF1F2B
:10169000A0520000A8520000F8B50D4B0D4C1A7F67
:1016A00003F1200703F58466002522F07F02294616
:1016B0001A7720461F605F609E60DE601D7401F037
:1016C0002BFF2046044A0549BDE8F84002F0B8B9AE
:1016D0006890FF1F5890FF1F2087FF1F993400005C
:1016E00038B54FF4E1310948094D0A4C01F0F2FDDB
:1016F000094A0A491378002BFCD00B78DB07F9D58F
:101700002B6820681B1A0E2BF4D938BD3087FF1FB9
:101710008894FF1F8896FF1F0496FF1F1C96FF1FCB
:1017200008B5104C08E0236859050DD423681A0544
:101730000FD42368DB0411D423685803F3D500F0D9
:101740001BFE23685905F1D500F0B6FC23681A0585
:10175000EFD500F009F82368DB04EDD500F004F8BC
:10176000EAE700BF3480044008B5FFF7D9FF00BFA7
:10177000014B10221A80704700200540704700BFBF
:10178000094908B50B6830B16A461844A2F5805281
:10179000904202D20860184608BD02F0BBFB0C2341
:1017A00003604FF0FF3008BD2487FF1FEFF3138065
:1017B00070B9EFF310836BB9EFF305825AB94FF4A8
:1017C0008070EFF311832BB1984228BF1846704701
:1017D0004FF0FF3070470F2A01D81846F1E7014B50
:1017E000D05CEEE7F0E300E010B40F4B53F830208C
:1017F00092F880422CB1012369B182F8803010BC8C
:10180000704703EBC0035B681A6841B922F002021B
:101810001A6010BC704782F8003110BC704742F06B
:1018200003021A6010BC7047B05200001C4A02EB61
:10183000C00301295B6811D004291BD052F8300085
:10184000002280F8802229B1022920D0032922D049
:101850001A6070474FF480721A60704752F8300077
:101860004FF4A27280F880121A601A6822F02002E7
:101870001A60704752F830104FF4A272012081F8BC
:1018800080021A601A6842F020021A60704740F223
:1018900003121A6070474FF481721A60704700BFDC
:1018A000B052000030B4054B054D064C002210210B
:1018B0001A602A602060196030BC704714D0034061
:1018C00004D0034000D00340212801D8FFF78CBF8B
:1018D000704700BF212801D8FFF7A8BF704700BF9D
:1018E0002DE9F843054672B6204F214B214A1B686B
:1018F0003C68126862B6520102D5322B88BF0134AF
:1019000095B3C3F5BB331C4EDFF86490DFF86480F9
:10191000FF334FF47A72A6FB031302FB04F404EBCB
:10192000931472B6D9F800103A68D8F800E062B69D
:10193000C1F5BB33FF33A6FB03031EF0806FC4EB7E
:1019400093134FF47A7002D0322988BF013200FB22
:101950000233B3F57A7F04D3013D05D004F57A74E0
:10196000DFE701F06DFEDCE7BDE8F8838894FF1F38
:1019700018E000E004ED00E0ABAAAAAAF8B52D4BF0
:101980002D49DFF8D0E0DFF8D0C02C4E2C4D2D4C87
:101990002D4A2E4F4FF4000018604FF080701860F1
:1019A0004FF0007018604FF0806018604FF00060DA
:1019B00018600020086028234BF6FF71CCF8001057
:1019C000CEF80030336013602B6023603B60B3625D
:1019D0009362092245F8242CC4F8D80F05F57F65D9
:1019E000C7F8D41F07F5FF2707F5FA67C6F8F83FD1
:1019F0002B6006F5FF26C4F8D42F05F5FD2504F568
:101A0000FF24386006F2F4761148316005F5FF6571
:101A100004F5FD642B602360026001F021FF1920B2
:101A2000FFF75EFF01F00EFA40F21310BDE8F84038
:101A3000FFF756BF08E100E0048003401480034034
:101A4000248003402C8003401C80034034800340EA
:101A500000800B400C800340088003402DE9F84FC4
:101A6000214B1B6807460BB101221A70DFF88890E2
:101A70001E4D99F80040DFF884801D4E01343F2C44
:101A80008ABF4FF0000A5FFA84FA5446AB462B78BF
:101A9000A34216D1FFF78AFE40281FDC33791B06CC
:101AA000F5D59BF8003001333F2B86BF002213464B
:101AB000DAB218F80330DBB2F3712A702B78A34244
:101AC000E8D00C490A4BFFB208F804700120BC2290
:101AD000087089F800A0DA70BDE8F88FFF28D6DD1D
:101AE00001F0AEFDD3E700BF1C95FF1F1995FF1F46
:101AF00000A006401895FF1F2095FF1F9494FF1F1C
:101B00002B4A2C491368F0B543F4806313600A78BC
:101B1000294F2A4E2A4D2B4C2B4900233B70337002
:101B20002B7023700B70002A3DD0152A21D0274B33
:101B30001B78012B25D0052B30D01F2827D800205B
:101B400002460125224B234C1A7023495D70042262
:101B50004FF0020E88273C26402598729A704FF469
:101B6000005083F813E05A751F74DE70257008600A
:101B7000F0BD1A4B40F213321A60144B1B78012B44
:101B8000D9D1174B4FF451721F281A60D7D9C0F31F
:101B90004432C0F3471500F01F00D3E7114B4FF458
:101BA00051721A60C9E7104B40F213321A60BEE757
:101BB00034800440D494FF1F9094FF1F9194FF1F22
:101BC0002095FF1F1995FF1F1895FF1F2887FF1FDE
:101BD00000A006402DE400E004E100E018C004404D
:101BE00044A004401CC0044040A00440144B1449CD
:101BF0009B7803F0EC0200F003031343420700F06C
:101C00000F0248BF43F01003042A8B7013D00C4B13
:101C10000B4A5B79C10603F0EF0348BF43F01003A2
:101C200053719379820603F0EF03054A48BF43F0EE
:101C30001003937170478B7943F040038B71E6E793
:101C400000A00640234B1B685B0541D510B5224C14
:101C5000237823B101F0F4FC2378002BFAD11F483C
:101C60001F4A204B4FF4005400210460D1701B78B0
:101C7000FBB1152B03D11C4B40F203121A601B4B16
:101C80001B7803F07F03012B1DD0052B03D1184BCC
:101C900040F203121A60174A114B1748174912688D
:101CA0001C79DB79002303700B700AB101231370D8
:101CB00010BD134B40F203121A600C4B1B7803F05B
:101CC0007F03012BE1D10F4B40F203121A60E2E7D0
:101CD000704700BF348004401895FF1F84E100E086
:101CE00000A00640D494FF1F18C004402887FF1F9F
:101CF0001CC004408C94FF1F9094FF1F9194FF1F01
:101D000040A0044044A004400A4A38B50546137870
:101D100003F0FF04002BFAD101212846FFF7DAFD7A
:101D200021462846FFF7D0FD034A044B52F83520E0
:101D30001A6038BD1895FF1FB05200001C95FF1F98
:101D400009B140F08000174A1378984216D010B4B9
:101D5000154C246864050FD503F07F03012B1CD0BC
:101D6000052B11D0002900F07F0114BF602344230C
:101D700001290DD0052902D0107010BC70470B4905
:101D800043F440730B60F7E7084B00241C60E9E75D
:101D9000074943F440730B60EEE7054B00241C60D9
:101DA000E0E700BF2887FF1F348004401CC00440C8
:101DB00044A00440104B1A7882420AD00F490968A7
:101DC000490505D5AAB1152A09D068B1152801D051
:101DD000187070470A4A40F213311160F8E7084A58
:101DE000002111600028F1D1064A40F21331116040
:101DF000EEE704490A60E8E7D494FF1F348004400A
:101E000018C0044040A004400D4B1B6813F48063CD
:101E100005D0212805D90B4B0020186070471846C3
:101E20007047094B10B5074C53F83030236001213F
:101E3000FFF750FD236800221A70012010BD00BF7B
:101E4000348004408C94FF1FB05200000F4B1B687D
:101E500013F4806308D0122808D0142811D00C4A3B
:101E6000537B03F0FE03537300207047094B40F28D
:101E700002321A60064A537B43F001035373012078
:101E80007047054B40F202321A60F3E73480044099
:101E900000A006400CA0044014C00440034B1B6883
:101EA0005B0501D5FFF7DABD704700BF3480044001
:101EB0002DE9F84F294B1B685A0548D5284B1B685C
:101EC00005460BB101221A7005EB010A554540D2B7
:101ED000DFF89C80234CDFF89C90234F0AE015F834
:101EE000012B09F80B20214A0123AA45137088F819
:101EF00000602ED098F80030227803F1010BBBF17E
:101F00003F0F86BF0026B3465FFA8BF69345E6D1B6
:101F1000BC22FA7005E03A7913060BD42278934577
:101F2000DDD1FFF743FC4028F5DDFF28F6DD01F0A9
:101F300087FBF3E7227801323F2A86BF00210A4659
:101F4000D1B219F80220D2B2FA712170E6E7BDE8E9
:101F5000F88F054BBC22DA70BDE8F88F348004405E
:101F60001C95FF1F1995FF1F00A006401895FF1F25
:101F70002095FF1F9494FF1F10B5044C237823B1C4
:101F800001F05EFB2378002BFAD110BD1895FF1FDE
:101F9000064A074B1B781078DBB2C0B283422CBFD5
:101FA0003F3000F1FF30C01A704700BF1995FF1F86
:101FB0002095FF1F054A064B10781B78C0B2DBB294
:101FC000984238BF4030C01A704700BF9094FF1F3E
:101FD0009194FF1F30B4154B154C1A782378D2B268
:101FE000DBB29A421ED001333F2B0ED91149124B5E
:101FF000087819680023C0B2237021B1D31A1A2BB4
:1020000001DC00230B7030BC70470A480A49C05CF1
:102010000968DDB2C0B225700029F4D09A4238BFF9
:102020004032EBE74FF0FF30EDE700BF9094FF1F29
:102030009194FF1FD894FF1F8C94FF1F084A094BEF
:1020400012781B78DBB29A4207D00133402B28BFAD
:102050000023054AD05CC0B270474FF0FF30704794
:102060009094FF1F9194FF1FD894FF1F0D4B1B6886
:102070005B0516D530B40C4B0C4CDA780C480D4986
:1020800002F0CB024025DA705D74DA7842F0340257
:10209000DA7023780268DBB20B700AB10023137088
:1020A00030BC70473480044000A006409194FF1F6C
:1020B0008C94FF1F9094FF1FF0B4384B1A7912F0E4
:1020C000300F2CD072B6997D01F0FF0200293DD06F
:1020D00062B6334F334938780D78334E1C46C0B260
:1020E000EDB2431C402BE17928BF0023AB4202F143
:1020F000FF32C9B21CBFF154184612F0FF02F0D1F2
:102100002A4B1B68C2B23A704BB1A84236BFC5F128
:102110004005401B40192728C4BF01221A701F49DF
:10212000CA78D2B2150616D452060DD51B4B1B79B0
:102130005B0609D51E4B1F491B6800220A7003B1BC
:102140001A70164B3C22DA70F0BC70474022D979E5
:102150005A7462B6E3E70B791C06E5D5164B174EA9
:102160001C783378E4B2DBB29C420ED0144D01E00F
:10217000A3420AD00133402B28BF00230879E85C32
:10218000C0B2C871087D0728F2D9DBB203493370A9
:102190000B79180644BF7C23CB70C5E700A006402E
:1021A0009094FF1F9194FF1FD894FF1F8C94FF1FE2
:1021B0001C95FF1F1895FF1F2095FF1F1995FF1FE6
:1021C0009494FF1F431E032B14D872B60A4951F88A
:1021D000230068B170B4094C058834F813204668B0
:1021E00041F82360521B24F8132062B670BC70477C
:1021F00062B67047002070477C95FF1F7896FF1FDE
:10220000013803280BD872B6074B53F8203043B17E
:1022100000205B680130002BFBD162B670470020C4
:1022200070471846F9E700BFD095FF1F30B472B66B
:102230002B4A13781D0706D52A4B196A002936D078
:10224000996A002941D053781C0706D5254B196C93
:1022500000293ED0996C002939D09378190705D50B
:10226000204B196E002936D0996E89B1D3781B079F
:1022700007D51C4BD3F880207AB3D3F888201121DE
:102280003AB162B6184B00221A7030BC00F056BE4C
:102290000D21154C154D227843F8315003EBC10345
:1022A0000830013A5860227062B630BC7047042290
:1022B0000D4C0F4D217843F8325003EBC203083028
:1022C0004A1E5860227062B6EFE70521E1E7092156
:1022D000DFE70822ECE70C22EAE71022E8E700BF7C
:1022E0004C5400000080FF1FF995FF1FC8004000FC
:1022F00088004000431E032B1DD81B4A400140F0BC
:10230000100030B4104472B6184CE25C032A1BD89B
:10231000DFE802F00212151703220D88E25410F0D4
:10232000080F14BFC823882343EA0543083103601C
:10233000416062B630BC704708300222EDE70522EA
:10234000EBE708300422E8E7094A52F8230038B1E5
:10235000084A52F82300416042F8231062B6E9E7C8
:1023600042F82310034AF7E70080FF1F0896FF1F7B
:10237000D095FF1FE095FF1F2DE9F04FDFF818B350
:10238000DFF818A387B044E0AE4F4FEA930807EB9D
:10239000C809013ED9F8042003F00803F6B2A2F1FF
:1023A000080003F0FF04002B40F0048157F8383098
:1023B0001B0C99B222F8081C002B00F0F280A24BF3
:1023C00022F8064C42F8044C53F82620002A00F06C
:1023D0006E819E4D55F8263058609D4C45F826007C
:1023E00034F81630194424F8161000F087FD002840
:1023F00000F05681974A984B19F0080F00F1080039
:1024000018BF1346C9F8040047F8383008238BF882
:1024100000309BF80040E4B261071BD58F4B1B785E
:10242000ABB18F490A7802F0FF032AB1013BDBB25E
:102430000B70002B00F0EF848A490A7802F0FF034A
:102440002AB1013BDBB20B70002B00F0F7800423B4
:102450008BF8003004F0080303F0FF02002B00F0BB
:10246000D6809AF80030DBB21E098DD19C08DFF8C7
:10247000D49159F8342009EBC401C2F38302013A24
:1024800049680C2A7ED8DFE802F081817D7D7D7D60
:102490007D7D477D7D7D07000868734D4A68734FD9
:1024A000734E286081B240F281606A4B6A604FF0DF
:1024B000010E0022814249F834303A60C9F81020F8
:1024C000C9F8182086F800E05E4C00F2F480B1F5FF
:1024D000D06F80F07883B1F5817F00F0628300F2E5
:1024E0008782802900F0EC82822940F01E83A9882F
:1024F00001F07F01042900F218835E485E4C8900D8
:102500000844227062700278930740F1798384F85E
:1025100000E04FF0020ED8E2544F3A6842B3574BF6
:10252000534E5749188834780D784028864645F030
:10253000020828BF4FF0400E002C84F001043470D4
:10254000CEEB00000CBF8824C82409EBC80680B27B
:1025500085F0010544EA0E447260188049F838405D
:1025600072440D7018B9BEF1400F18BF00223A60D6
:102570003D4B1A88B2F5A06F04D100219A785970AA
:10258000404B1A70404A012313703FE7364A1588C2
:1025900042F22100854200F0FF812E4A49F83420A2
:1025A000F0E72C4A2C4B19F0080F18BF134647F8D8
:1025B00038302BE700F0C2FC344A354952F8263057
:1025C000002B00F0B68158688C5D42F8260003F1BC
:1025D0000802C9F80420032C05D8DFE804F0120F24
:1025E000150204228A551A8819F0080F0CBF882397
:1025F000C82343EA024347F8383007E702228A55E6
:10260000F1E703228A55EEE705228A55EBE7E0075A
:1026100000F11A82210600F14982A20706D51D4A5F
:102620001D4913780220DBB213700870E30602D54F
:10263000194B10221A7007B0BDE8F08F00F0EAFDC8
:1026400005E700BF0080FF1F7C95FF1F2895FF1F37
:102650007896FF1FC8004000880040000496FF1FC6
:102660008D95FF1F0C96FF1FF095FF1F2495FF1FF0
:102670008C95FF1FC0200740FC95FF1F3895FF1F5A
:10268000F895FF1F9820074094200740D095FF1F22
:102690000896FF1F882007408020074090200740B1
:1026A000AB4A47F83800137801331370AEE643F8AD
:1026B0002600A84D91E642F22100814200F03581CA
:1026C00000F2AF81B1F5086F00F01B82B1F5106F19
:1026D00040F02B82226AA049A8780870120600F107
:1026E0004583D9F828209D49130600F13A83D9F88B
:1026F00030209A49150600F12F83D9F838209749E0
:10270000140600F12483D9F840209449100600F102
:102710001983D9F848209149120600F10E83D9F89F
:1027200050208E49130600F10383D9F858208B49B5
:10273000150600F1F882D9F860208849140600F1E6
:102740002983D9F868208549100600F11E83D9F83D
:1027500070208249120600F11383D9F878207F494E
:10276000130600F10883D9F880207C49150600F192
:102770001C83D9F888207949140600F11083D9F810
:1027800090207649100600F1C882D9F89820734944
:10279000120600F1BC827248724A73490190734874
:1027A0006C4D734C0497002305960295804617469E
:1027B0000E461D460394386828B1446800F0BEFBFD
:1027C0002046002CF9D100233B60029B30681A465A
:1027D000002342F8253028B1446800F0AFFB2046C2
:1027E000002CF9D100223260019A98F8003011468D
:1027F000002241F8042B039A0191023B4FF00001A3
:1028000022F81510032B09D8DFE813F04B01040060
:102810004B0104004FF0010388F800300135042D0E
:1028200007F1040706F1040608F10108C3D1514C71
:10283000514B2278464D049F059E002129701A7045
:10284000130700F14F8262784C49DFF810810A705B
:1028500010074FF00001C9F83010C9F8381000F126
:102860002B824749A2780A700021C9F85010C9F894
:1028700058101107DFF8E48000F1DC81E27841496B
:10288000364C0A7000211207C9F87010C9F8781088
:1028900000F1B98133780193002183F00102C9F876
:1028A0009010C9F898100020029080468446044693
:1028B00035490D7845F0020E09EBCE030393019BD9
:1028C000002B039B5C600CBF8824C82444EA0803E7
:1028D00085F0010449F83E3032700C70DFF87CE07E
:1028E0002A4BDFF8A480002840F02681BCF1400F7D
:1028F0001BD144F0020C09EBCC03029CDFF85CE036
:102900005C60002A40F02E81020442F088029DF8AB
:1029100004304EF83C20044433700D7023464028A8
:1029200003D100201A4A3B6010801A4A0123137019
:1029300028E68B5D032B00F22D8101A252F823F0D3
:102940000D2400000D240000972A00009D2A00009D
:10295000F995FF1F2895FF1F0496FF1F0080FF1F9A
:10296000E095FF1F7C95FF1FD095FF1F0896FF1F66
:102970007896FF1F4C540000C4200740C820074031
:10298000CC200740D0200740F895FF1F8C95FF1FF3
:102990003895FF1F94200740928892B9B14A0D786C
:1029A0004878157050708D78C8789570D070106820
:1029B0000D79157186284D7989795571917100F0DD
:1029C000A580A949A94E0A78307882F0010500282F
:1029D00042F002020D700CBF8821C82149F8321064
:1029E00009EBC20280F00100002130705160D4E593
:1029F00040F20232914240F08D80A98801F07F01BF
:102A0000042900F292806A88002A40F08E8098485B
:102A1000CDF804E089000844017841F0020101701A
:102A200041E742F2212081427BD1A988002940F070
:102A3000E480904B904A9148AC781D681560CDF8C1
:102A400004E00A4604702EE78D4B8E4886491A61D1
:102A50004FF0020E80F800E0854F0A708A49196035
:102A600099608A4E8A4D8B4C9A610D213970FF21F5
:102A70003170DFF840E229702270874D874A8EF866
:102A800000109F27012406F8047C5D600470DA6062
:102A900007B0BDE8F08F00238B55B7E401238B55B9
:102AA000B4E44FF0000388F80030B7E67049784B83
:102AB00080220D2008701A70A2077FF5B7ADAEE531
:102AC000774C4FF0020E22706270EA88724580F0F7
:102AD000A38165490D78402A944645F0020E28BF2F
:102AE0004FF0400C04EB0C0309EBCE0002930123E2
:102AF00044604FEA0C48CCEB020001930022C8244A
:102B0000E4E6684A664C12782270DEE7664A0F21D6
:102B1000117056E7B1F5A06F07D101230022019390
:102B2000C1E642F221329142F7D0514A0F2313708D
:102B3000544A0123137025E540287FF6DAAE44F0AD
:102B400002040EEBC401029E4E60BAB19DF804105F
:102B5000564A19703346403888F8005040334EF8D2
:102B60003420DFE69DF8043033700204029B0D70C0
:102B700042F0C80203444EF83C20D0E69DF8041011
:102B80001970029B404A88F80050403840334EF894
:102B90003420C7E619F0080F0CBF022303238B551E
:102BA00034E4A98801F07F010429BED86A88002A8C
:102BB000BBD12F48CDF804E089000844017821F00A
:102BC000020101706FE63A4A5468002CADD0688863
:102BD000B5F804E003E00C325468002CA5D013884B
:102BE0008342F8D153887345F5D1000A03280CBFFE
:102BF00094F800E0B2F808E067E7CDF804E052E6A8
:102C00004FF0020E61E700F079F9002800F0F18042
:102C100008301D4AC4F88400C4F8802000F06EF922
:102C2000002800F0E0800830204AC9F88C00C9F87C
:102C300088202FE600F062F9002800F0E6800830D6
:102C4000114AC8F86400C8F8602000F057F900285D
:102C500000F0D5800830154AC9F86C00C9F8682022
:102C60000CE600BF8096FF1FF895FF1F8C95FF1F95
:102C7000C02007408894FF1F8896FF1F1C96FF1FE7
:102C80000080FF1F942007408800400088200740F4
:102C900080200740982007403C95FF1F9095FF1F1C
:102CA000FC95FF1F0496FF1F8D95FF1FC800400075
:102CB000505400008C20074000F020F9002800F05C
:102CC0008C8008305D4AC8F84400C8F8402000F005
:102CD00015F900287BD00830594AC9F84C00C9F8CA
:102CE0004820BEE500F00AF900286AD00830534AAF
:102CF000C9F82400C9F8202000F000F900285AD0B3
:102D000008304F4AC9F82C00C9F828209BE5D1F8B3
:102D10009C00083800F012F93DE5D1F8940008381D
:102D200000F00CF931E5C86D083800F007F902E54C
:102D3000486D083800F002F9F7E4C86C083800F074
:102D4000FDF8ECE4486C083800F0F8F8E1E4C86BF2
:102D5000083800F0F3F8D6E4486B083800F0EEF8D5
:102D6000CBE4C86A083800F0E9F8C0E4606A0838C3
:102D700000F0E4F8B5E4C86F083800F0DFF8F2E4DA
:102D8000486F083800F0DAF8E7E4C86E083800F059
:102D9000D5F8DCE4486E083800F0D0F8D1E4D1F87A
:102DA0008C00083800F0CAF8E9E4D1F8840008384B
:102DB00000F0C4F8DDE42A78C9F8280001322A704E
:102DC00041E52A78C9F8200001322A7094E72A7870
:102DD000C9F8480001322A7043E52A78C8F8400053
:102DE00001322A7073E72A78C9F8880001322A7004
:102DF00050E52A78C4F8800001322A700EE72A785C
:102E0000C9F8680001322A7038E52A78C8F86000ED
:102E100001322A7019E700BEBEF1400FF44628BF08
:102E20004FF0400C04EB0C0302930123CCEB0E009B
:102E30004FEA0C48002201933AE500BF88004000A9
:102E4000C80040002DE9F843204C00F09FFD00220F
:102E500004F1A00023461A605A60083383424FF001
:102E60000001F8D11A4A1B4F13681B4D1B481C4E1A
:102E7000DFF87880DFF878C0DFF87890DFF878E066
:102E800043F480231360C4F307233B70C4F3074368
:102E90002B70240EFF2302F528320470114D88F8A0
:102EA000003011488CF80030D4323370012389F897
:102EB000003070268EF800104FF40074102107F8CF
:102EC000183C2E7004601170BDE8F8830080FF1F6D
:102ED000348004409C200740B0200740B4200740C5
:102EE0001020074049E400E008E100E080200740AE
:102EF00088200740942007400021074072B60D4803
:102F00000268B2FA82F30B2B10DC4FF00041D9407B
:102F100022EA0102026062B6074803EBC303DB004A
:102F2000C2180021C15010465160704762B600209F
:102F3000704700BF2C87FF1FBC83FF1F0D4B0E4A3D
:102F4000C31AA2FB03231B090B2B0CD80B4A1278C4
:102F500052B972B60A484FF00041026821FA03F3F1
:102F60001A43026062B67047064A1278002AF0D00F
:102F7000FFF75CB9BC83FF1F398EE338F995FF1F5B
:102F80002C87FF1F0496FF1F38B50F4D286878B1B6
:102F900043880288C118013393420C7A02D24380DD
:102FA000204638BDFFF7CAFF002320462B6038BDFE
:102FB000064B1B782BB10320FFF704F9286000288B
:102FC000E6D14FF0FF3038BD1896FF1F0496FF1F63
:102FD00010B5094C206818B143881844007A10BD18
:102FE000064B1B782BB10320FFF7ECF8206000287C
:102FF000F2D14FF0FF3010BD1896FF1F0496FF1F4F
:10300000044B054A1B6890881BB11A885B88D31A49
:10301000184470471896FF1F7896FF1F0B4B1B78BC
:103020009BB110B50A4C206848B1FFF787FF002319
:1030300003202360FFF7C6F830B1FFF77FFF0320BE
:10304000FFF7C0F80028F8D110BD70470496FF1FA5
:103050001896FF1F2DE9F04FDFF8F89083B001229A
:1030600089F80020019169B3DFF8EC80364F019EAA
:103070008346D8F80000B0B3344D4488C4F1400111
:10308000B14228BF314604EB010E00221FFA8EFE2A
:103090002A70761AA0F802E000F1080251B1013C52
:1030A000224459441BF8014B02F8014F8B45F9D1DA
:1030B000B0F802E0BEF13F0F0BD8254A0521117090
:1030C000002ED6D10198002389F8003003B0BDE866
:1030D000F08F4022028001460420FFF70BF9002206
:1030E000C8F80020E9E73A782AB3184D4AF2F924E3
:1030F0004FF0010A07E0013C16D02A78A2B900F08F
:103100009FFA3A78BAB10420FFF77AF80728F2D884
:1031100089F800A0FFF7F2FEC8F800000028ACD143
:103120000C4B013C1870E8D101234FF0FF302B709D
:1031300003B0BDE8F08F00234FF0FF3089F8003076
:1031400003B0BDE8F08F00BF0496FF1F1496FF1F69
:103150000C96FF1F0D96FF1F1096FF1F00B583B042
:1031600002AB012103F8010D1846FFF773FF03B00E
:103170005DF804FB38B50E4D0E4C28680123237012
:1031800028B1408800232370C0F1400038BD0A4BAD
:103190001B7813B90020207038BD0420FFF730F8E9
:1031A0000728F7D8FFF7AAFE28600028E9D1F1E741
:1031B0001096FF1F0D96FF1F0496FF1FF8B5114BC9
:1031C0001B788BB1104E114D346801272F7064B1FC
:1031D0000F4A638800271770214623800420FFF7D9
:1031E00089F8376000232B70F8BDFFF787FE084B86
:1031F00028B1014604201C70FFF77CF8F2E71F702D
:10320000F0E700BF0496FF1F1096FF1F0D96FF1FEB
:103210000C96FF1F38B50E4B1B7873B90D4C216807
:1032200061B103F0FF054B880B800420FFF762F8C3
:10323000256038BD084B01221A7038BDFFF75EFECD
:103240000028F7D00146BDE838400420FFF752B807
:103250000D96FF1F1096FF1F0C96FF1F70B5EFF322
:10326000108272B60C4C206880B10C4E0025436968
:10327000236073B19D6102B962B645778368984750
:10328000EFF3108272B620680028F0D102B962B65E
:1032900070BD3360EFE700BF2096FF1F2496FF1F2D
:1032A000FFF7DCBF024A136801331360704700BFA9
:1032B0008894FF1F0368C9B21B6818470368C9B226
:1032C0001B6818470368C9B21B6818470368C9B26E
:1032D0001B6818474B0803F1376303F5D83310B563
:1032E0000446B3FBF1F0FEF70BFC044B1B7803B173
:1032F00010BD2046BDE8104000F08ABB4487FF1F88
:1033000008B50846FEF7CAFD012008BD08B5084605
:10331000FEF7C4FD012008BD38B508460D4601F092
:103320004FFD044601462846FEF7C2FD204638BD43
:1033300010B5084614461146FEF7BAFD204610BDEA
:10334000FEF794BE08B50846FEF780FD003018BFB2
:10335000012008BD08B50846FEF756FD003018BF2D
:10336000012008BD08461146FEF7EABC0846FEF7F4
:1033700021BD00BF0846FEF7C7BC00BFFEF762BC18
:1033800010B54B0803F13760144600F5D830B0FB98
:10339000F1F0FEF7B5FB2046BDE81040FEF726BC75
:1033A000FEF74CBEFEF716BEFEF704BEFEF7E4BD08
:1033B000FEF7EEBD2DE9F0438C688BB0ECB1002533
:1033C000064689462F462B46212201A9484600F091
:1033D000FFF83268202C234628BF2023D2F804802F
:1033E00001A91A4630461D44E41AC0470744002C80
:1033F000E9D138460BB0BDE8F0832746F9E700BFB6
:1034000000B5064A036812885B6883B001A9ADF86D
:1034100004200222984703B05DF804FB205400000A
:1034200070B50E4D82B02B680093009E044608E0F4
:1034300000F006F92B680193019BA2689B1B934245
:1034400007D2236820465B6998470028F0DB02B06A
:1034500070BD4FF0FF3002B070BD00BF8894FF1FF9
:10346000F8B50F4616460021054600F055F88EB116
:10347000002404E00ED000F09BF8A6420AD03846A3
:10348000FFF7CEFF011E04F10104C9B22846F1DAAC
:1034900001233B732846F8BD10B50446006800F0D0
:1034A0006FFD204610BD00BF38B543688B4201D385
:1034B000012038BD0D4604460131006801F088F84E
:1034C0000028F6D0A36884E82100002BF0D1037017
:1034D000EEE700BFF8B50446154632B9036803B1FC
:1034E0001A700023A3602046F8BD0E461146FFF770
:1034F000DBFF074648B9206810B100F041FD2760A6
:1035000000236360A3602046F8BDA56031462068B3
:1035100001F0E4FBE7E700BF38B500230446036091
:1035200043608360037341B108460D4601F048FCD7
:10353000294602462046FFF7CDFF204638BD00BF92
:103540002DE9F84303680F46BB42044681681546DF
:103550000AD85A18974207D2C3EB07094FF001085F
:1035600035B92046BDE8F8834FF00008002DF8D0AB
:103570004E1931462046FFF797FF0028F1D0B8F1E9
:10358000000F0ED02368A0682A4603EB09011844F7
:1035900000F0CCF8236800229A55A6602046BDE8CA
:1035A000F8832068A3683946184401F097FBF4E7D4
:1035B00010B582B000238DF80410012201A9044641
:1035C0008DF80530FFF7BCFF204602B010BD00BFEC
:1035D000B2B1A9B138B584689C420ED9E41A013A57
:1035E0000D469442016828BF1446194422462846D5
:1035F00001F054FC00232B5538BD00230B7038BD5F
:10360000704700BF08B5FEF76BF8FDF7B1FF00F09B
:1036100017F8FAE7704700BFFFF700BDFFF7D8BC07
:10362000FFF7B2BCFFF7ECBCFFF7C8BDFFF7A2BDC8
:1036300008461146FFF70EBD0846FFF78FBD00BFD5
:103640002DE9F843314E337893B1314F3A787AB956
:103650000122D9073A7036D49A0719D400225B07A1
:103660003A7005D52B4B1A6812B1EFF305820AB1F7
:10367000BDE8F883EFF3108172B6186818B1264CD4
:103680002278002A2ED00029F2D162B6BDE8F88354
:10369000DFF8908098F80020002ADFD0DFF88890CB
:1036A000002405E0013498F80030E4B2A34212D9B6
:1036B00059F824502B6828461B6998470028F1D0F8
:1036C0002B699847EEE7FFF79BFCC8B9134B1B78B3
:1036D0001BB93378C0E73378C0E7337803F0FE03D3
:1036E0003370B9E745691D60012323705DB1AA619C
:1036F00001B962B600254577836898472570B7E71A
:1037000000F09CF9E2E7064B1D60F1E75887FF1FC8
:103710003196FF1F2C96FF1F3096FF1FFE87FF1F5D
:103720002896FF1F4096FF1F3496FF1F844641EAEC
:10373000000313F003036DD1403A41D351F8043B29
:1037400040F8043B51F8043B40F8043B51F8043B7B
:1037500040F8043B51F8043B40F8043B51F8043B6B
:1037600040F8043B51F8043B40F8043B51F8043B5B
:1037700040F8043B51F8043B40F8043B51F8043B4B
:1037800040F8043B51F8043B40F8043B51F8043B3B
:1037900040F8043B51F8043B40F8043B51F8043B2B
:1037A00040F8043B51F8043B40F8043B51F8043B1B
:1037B00040F8043B51F8043B40F8043B403ABDD28A
:1037C000303211D351F8043B40F8043B51F8043B2C
:1037D00040F8043B51F8043B40F8043B51F8043BEB
:1037E00040F8043B103AEDD20C3205D351F8043BBB
:1037F00040F8043B043AF9D2043208D0D2071CBF87
:1038000011F8013B00F8013B01D30B8803806046AF
:10381000704700BF082A13D38B078DD010F0030325
:103820008AD0C3F10403D21ADB071CBF11F8013B95
:1038300000F8013B80D331F8023B20F8023B7BE7E4
:10384000043AD9D3013A11F8013B00F8013BF9D20F
:103850000B7803704B7843708B78837060467047A9
:1038600030B42948294A2A4B2A4D6024E1210470AA
:1038700011701B78284C082B30D00A2B2748284978
:1038800037D00C2B0CBF35223D2212232A60236037
:1038900002600B60234B24491B78244ABBB10123EF
:1038A0000B601360224B23491B78234A012B26D936
:1038B000042B0FD9082B1ED9102B94BF86238723E6
:1038C0000B6013601D4B01221A7030BC70470B60F7
:1038D0001360E7E784230B601360F3E700F58E20A5
:1038E0000F490830012213232A60236002600B6015
:1038F000D0E73922F7E785230B601360E2E78023E6
:103900000B601360DEE700BF004007400140074046
:103910005987FF1F08B003400CB0034008B00B40AC
:103920000CB00B403396FF1F20B0034020B00B407B
:103930005A87FF1F24B0034024B00B403296FF1F6C
:10394000F0B44D1E2E46002400E00134B0FBF2F32B
:1039500002FB1300092800F130078ABF3730F8B2A4
:10396000C0B206F8010F1846002BEED10A195370A9
:103970004CB1107815F8016F28700133E01A8342BA
:1039800002F80169F5DB0846F0BC704770B584B0F9
:1039900072B6194B194D1A48702241260F24802106
:1039A0001A702E701A460470197013781B06FCD515
:1039B000144B186862B6144B144C984298BF00EB35
:1039C000800001A998BF40000A22FFF7B9FF01A9B2
:1039D0002046002311F8012B01333AB10A2B20F8BD
:1039E000022FF7D11623237004B070BD5B00DBB249
:1039F000237004B070BD00BF000002400700024009
:103A000006000240080002407F969800E887FF1FEA
:103A100030B40749074C0A782378074D42F0020278
:103A200045F823000A700133237030BC704700BF93
:103A30005887FF1F4096FF1F3496FF1F704700BF37
:103A40000B460146184600F05FBA00BF80F0004008
:103A500002E000BF81F0004142001FBF5FEA410366
:103A600092EA030F7FEA226C7FEA236C6AD04FEA66
:103A70001262D2EB1363C1BFD218414048404140AB
:103A8000B8BF5B42192B88BF704710F0004F40F45D
:103A9000000020F07F4018BF404211F0004F41F479
:103AA000000121F07F4118BF494292EA030F3FD045
:103AB000A2F1010241FA03FC10EB0C00C3F1200358
:103AC00001FA03F100F0004302D5494260EB4000E7
:103AD000B0F5000F13D3B0F1807F06D340084FEA52
:103AE000310102F10102FE2A51D2B1F1004F40EB47
:103AF000C25008BF20F0010040EA030070474900AF
:103B000040EB000010F4000FA2F10102EDD1B0FA79
:103B100080FCACF1080CB2EB0C0200FA0CF0AABF6E
:103B200000EBC25052421843BCBFD040184370470C
:103B300092F0000F81F4000106BF80F40000013212
:103B4000013BB5E74FEA41037FEA226C18BF7FEAE9
:103B5000236C21D092EA030F04D092F0000F08BF2B
:103B60000846704790EA010F1CBF0020704712F012
:103B70007F4F04D1400028BF40F00040704712F151
:103B800000723CBF00F50000704700F0004343F0B6
:103B9000FE4040F4000070477FEA226216BF0846EC
:103BA0007FEA23630146420206BF5FEA412390EAAF
:103BB000010F40F4800070474FF0000304E000BFA5
:103BC00010F0004348BF40425FEA000C08BF704756
:103BD00043F0964301464FF000001CE050EA01021A
:103BE00008BF70474FF000030AE000BF50EA01022F
:103BF00008BF704711F0004302D5404261EB41011C
:103C00005FEA010C02BF84460146002043F0B64340
:103C100008BFA3F18053A3F50003BCFA8CF2083A65
:103C2000A3EBC25310DB01FA02FC634400FA02FC6E
:103C3000C2F12002BCF1004F20FA02F243EB020075
:103C400008BF20F00100704702F1200201FA02FCD7
:103C5000C2F1200250EA4C0021FA02F243EB0200CA
:103C600008BF20EADC7070474FF0FF0C1CEAD0520E
:103C70001EBF1CEAD15392EA0C0F93EA0C0F6FD0CF
:103C80001A4480EA010C400218BF5FEA41211ED0AD
:103C90004FF0006343EA501043EA5111A0FB013199
:103CA0000CF00040B1F5000F3EBF490041EAD3716E
:103CB0005B0040EA010062F17F02FD2A1DD8B3F1EA
:103CC000004F40EBC25008BF20F00100704790F059
:103CD000000F0CF0004C08BF49024CEA502040EAAB
:103CE00051207F3AC2BFD2F1FF0340EAC250704771
:103CF00040F400004FF00003013A5DDC12F1190FAF
:103D0000DCBF00F000407047C2F10002410021FA20
:103D100002F1C2F1200200FA02FC5FEA310040F138
:103D2000000053EA4C0308BF20EADC70704792F0B1
:103D3000000F00F0004C02BF400010F4000F013AE9
:103D4000F9D040EA0C0093F0000F01F0004C02BFE4
:103D5000490011F4000F013BF9D041EA0C018FE753
:103D60000CEAD15392EA0C0F18BF93EA0C0F0AD059
:103D700030F0004C18BF31F0004CD8D180EA01007F
:103D800000F00040704790F0000F17BF90F0004F18
:103D9000084691F0000F91F0004F14D092EA0C0FFA
:103DA00001D142020FD193EA0C0F03D14B0218BF8D
:103DB000084608D180EA010000F0004040F0FE40D3
:103DC00040F40000704740F0FE4040F4400070476F
:103DD0004FF0FF0C1CEAD0521EBF1CEAD15392EAEE
:103DE0000C0F93EA0C0F69D0A2EB030280EA010CDE
:103DF00049024FEA402037D04FF0805343EA111177
:103E000043EA10130CF000408B4238BF5B0042F1D4
:103E10007D024FF4000C8B4224BF5B1A40EA0C0079
:103E2000B3EB510F24BFA3EB510340EA5C00B3EBAB
:103E3000910F24BFA3EB910340EA9C00B3EBD10F99
:103E400024BFA3EBD10340EADC001B0118BF5FEAEB
:103E50001C1CE0D1FD2A3FF650AF8B4240EBC25014
:103E600008BF20F0010070470CF0004C4CEA5020D5
:103E70007F32C2BFD2F1FF0340EAC250704740F424
:103E800000004FF00003013A37E792F0000F00F016
:103E9000004C02BF400010F4000F013AF9D040EA94
:103EA0000C0093F0000F01F0004C02BF490011F428
:103EB000000F013BF9D041EA0C0195E70CEAD15320
:103EC00092EA0C0F08D142027FF47DAF93EA0C0F07
:103ED0007FF470AF084676E793EA0C0F04D14B02EB
:103EE0003FF44CAF08466EE730F0004C18BF31F09D
:103EF000004CCAD130F000427FF45CAF31F0004397
:103F00007FF43CAF5FE700BF13460A46014602203C
:103F100000F0F8BF014B1868704700BF288CFF1FE6
:103F200070B50F4E0F4D761BB61018BF002405D08C
:103F3000013455F8043B9847A642F9D10A4E0B4D7F
:103F4000761B01F0B1FAB61018BF002406D0013478
:103F500055F8043B9847A642F9D170BD70BD00BF2B
:103F6000B4540000B4540000C0540000B454000025
:103F7000024B0146186800F00BB800BF288CFF1FE9
:103F8000024B0146186801F081B800BF288CFF1F62
:103F90002DE9F04F01F10B05162D83B0064640F2D6
:103FA0009F8035F0070500F1BF80A94200F2BC8078
:103FB00000F00AFBB5F5FC7FC0F09C826B0A00F0B4
:103FC000BA80042B00F28381A80900F1390E4FEA70
:103FD0004E033830C44F07EB8303A3F108015C683C
:103FE000A14207D1ACE0002A80F2AC80E468A14293
:103FF00000F0A680636823F003035A1B0F2AF2DD4A
:10400000B9493C6901F1080E744500F0B381636859
:1040100023F003035A1B0F2A00F39981002AC1F8E9
:1040200014E0C1F810E080F29E80B3F5007F80F0CC
:104030006781DB0803F1010C01229B1002FA03F3F4
:104040004A6851F83C80C4F8088001EBCC091A4357
:10405000A9F10803E3604A6041F83C40C8F80C400D
:10406000831001249C40944200F28A80144206D1BD
:1040700020F003006400144200F10400FAD007EBC2
:10408000C009CC468046DCF80C108C4507D173E1A2
:10409000002A80F28181C9688C4500F06D814B68EF
:1040A00023F003035A1B0F2AF2DD0C46D1F80CC093
:1040B00054F8088F4B1945F001054D6042F001019D
:1040C000C8F80CC03046CCF808807B613B61C3F86F
:1040D0000CE0C3F808E059609A5000F077FA1FE04E
:1040E000102921D800F070FA1025062302207E4FF7
:1040F00007EB8303A3F108025C68944200F045815A
:104100006368E168A56823F00303234430465A68D6
:10411000E96042F001028D605A6000F057FA0834FD
:10412000204603B0BDE8F08F00240C232046336006
:1041300003B0BDE8F08F80234FF0400E3F2049E7E9
:1041400070465DE72344E1685A68A56842F00102C1
:10415000E96030468D605A6000F038FA0834204635
:1041600003B0BDE8F08F234430465A6842F00102A4
:104170005A6000F02BFA0834204603B0BDE8F08FF7
:10418000BC68636823F00308A84504D3C5EB0803A3
:104190000F2B00F38C80554BDFF860911A68D9F82B
:1041A000003001332A4404EB080A00F0608102F574
:1041B00080520F3222F47F6222F00F021146304605
:1041C000019200F0FDFBB0F1FF3F8346019A00F041
:1041D0005881824500F2FC80454B1968DA4511444C
:1041E000196000F05381D9F80000DFF810E10130C8
:1041F0001BBFCAEB0B0A5144CEF800B019601BF08C
:10420000070100F01781C1F10800C1F58051834416
:1042100008315A44C2F30B02C2EB01094946304649
:10422000019300F0CDFB431C019B00F03F81CBEBE1
:1042300000024A4442F001021968C7F808B0494434
:10424000BC42CBF804201960DFF8A49016D0B8F176
:104250000F0F40F2FD806268A8F10C0323F0070302
:10426000E01802F001024FF0050E1A430F2B6260B6
:10427000C0F804E0C0F808E000F21C811D4BBC68E7
:104280001A68914288BF19601B4B1A689142626894
:1042900088BF196022F003029542A2EB050301D802
:1042A0000F2B04DC304600F091F9002438E7621946
:1042B00043F0010345F0010565603046BA60536084
:1042C00000F084F90834204603B0BDE8F08F142BC9
:1042D00071D9542B00F2A480280B00F16F0E4FEA25
:1042E0004E036E3076E600BF2C8CFF1F4C96FF1FEE
:1042F0005096FF1F4896FF1F4496FF1F3890FF1FE0
:104300005A0A042A5ED9142A00F2B38002F15C0131
:1043100049005B3207EB810C57F82110DFF8DC8194
:10432000ACF1080C8C4500F088804A6822F003024A
:10433000934202D289688C45F7D1D1F80CC07A68D3
:10434000C4F80CC0A160CCF80840CC6088E66319C2
:1043500042F0010745F00105656030464B610B6195
:10436000C3F80CE0C3F808E05F609A50083400F02E
:104370002DF9D5E64A6873E608F1010818F0030F35
:104380000CF1080C7FF47FAE30E0DC68A34208BF7C
:1043900002303FF435AEB3E60B440C465A68C968A8
:1043A00054F8085F42F001025A603046E9608D60BF
:1043B00000F00CF9B4E603F15C0E03F15B004FEA88
:1043C0004E0307E69A0902F1390149003832A1E7A4
:1043D000BC424A4B3FF400AF9C68626822F0030283
:1043E0005AE759F80839994540F0828010F0030FD8
:1043F00000F1FF30F5D17B6823EA04037B606400A1
:104400009C423FF6BDAE002C3FF4BAAE1C42404683
:104410007FF435AE64001C4200F10400FAD02EE6B1
:10442000B3F5AA7F18D8E80B00F1780E4FEA4E03D7
:104430007730CFE54FF48051EBE60121D8F8043016
:10444000921001FA02F21A43C8F80420614677E795
:104450000123CBF8043025E740F25452934220D890
:10446000A80C00F17D0E4FEA4E037C30B2E510320D
:10447000A4E6542A26D81A0B02F16F0149006E32C5
:1044800048E7BC68626822F0030205E7CAF30B0044
:1044900000287FF4A8AE4244BB6842F001025A6093
:1044A000ECE6FE234FF07F0E7E2093E501224FF0D5
:1044B0000009C1E604F10801304600F0E7FDD9F833
:1044C0000010DBE6B2F5AA7F05D8DA0B02F178011D
:1044D000490077321EE740F254518A4205D89A0CBF
:1044E00002F17D0149007C3214E7FE217E2211E7B2
:1044F0007B6884E7E808431C5B00F8E52C8CFF1F11
:104500008842F0B50DD98B1898420AD28118002A3A
:1045100051D09A1A13F8014D01F8014D9342F9D187
:10452000F0BD0F2A48D941EA00039B0746D100F1AC
:10453000100401F11003154653F8106C44F8106C88
:1045400053F80C6C44F80C6C53F8086C44F8086C85
:10455000103D53F8046C44F8046C0F2D03F1100364
:1045600004F11004E8D8A2F1100323F00F0302F0C5
:104570000F0E1033BEF1030F1944034421D91E1F3F
:104580000D467446043C55F8047B46F8047F032C22
:10459000F8D8AEF1040424F0030404342344214485
:1045A00002F0030262B1013B0A4411F8014B03F827
:1045B000014F8A42F9D1F0BD0346F3E70346F2E723
:1045C000F0BD7246EEE700BF704700BF704700BF06
:1045D000024B0A460146186800F002B8288CFF1FFB
:1045E0002DE9F04F174683B0002900F0C1800E4638
:1045F000814607F10B05FFF7E7FF56F804EC162D8F
:104600002EF00304A6F1080840D810221546AF4248
:1046100041D8944275DAC94B996808EB0400884286
:10462000416800F0D98021F0010303445B68DB0797
:104630007DD51EF0010F35D039464846FFF7A8FC5E
:104640000746E0B156F8043C23F001034344A0F1CF
:1046500008029A4200F04481221F242A00F231818C
:10466000132A00F20481034632461168196051682A
:10467000596092689A603146484600F007FD484606
:10468000FFF7A4FF384603B0BDE8F08F25F007051B
:10469000002D2A46BBDA0C230020C9F8003003B0F5
:1046A000BDE8F08F56F8083CC3EB080ADAF804308E
:1046B00023F0030C04EB0C039342BDDB5746DAF8FE
:1046C0000C1057F8080F221F242AC160886000F2DE
:1046D0001781132A40F212813168CAF808107168F4
:1046E000CAF80C101B2A00F22B8108360AF11002BE
:1046F0003168116071685160B16891603E461C4636
:10470000D046631B0F2B1DD8D8F8043003F00103EB
:1047100023434444C8F80430636843F001036360F2
:104720004846FFF753FF304603B0BDE8F08F21F055
:1047300003012144914221DBC36882680C46D360A7
:104740009A60DEE7D8F8042008EB050102F00102C8
:10475000154343F001020B44C8F804504A605A68FC
:1047600042F0010208315A60484600F08FFCD7E75A
:10477000114603B0BDE8F04FFFF70ABC1EF0010F71
:104780007FF45AAF56F8083CC3EB080ADAF8043055
:1047900023F0030C01EB0C0E96458BDBC36882689B
:1047A0005746D3609A6057F8081FDAF80C30CB6090
:1047B000221F242A996000F29980132A62D9336853
:1047C000CAF808307368CAF80C301B2A00F2A080BF
:1047D00008360AF1100356E021F0030BA34405F15B
:1047E0001000834559DA1EF0010F7FF425AF56F80B
:1047F000081CC1EB080ADAF8041021F0030CE344AA
:1048000058453FF757AF5746DAF80C1057F8080FDE
:10481000221F242AC160886000F2B480132A40F26B
:10482000A5803168CAF808107168CAF80C101B2AF4
:1048300000F2AF8008360AF1100231681160716829
:104840005160B16891600AEB0501C5EB0B0242F0C3
:10485000010299604A60DAF8043003F001031D4355
:104860004846CAF80450FFF7B1FE38465CE73368A3
:104870000360736843601B2A27D800F1080306F120
:104880000802F2E63B4632681A6072685A60B26803
:104890009A603E467446D04633E708EB0501C5EB07
:1048A0000B0B4BF0010299604A6056F8043C03F090
:1048B00001031D43484646F8045CFFF787FE304677
:1048C00032E73146FFF71CFED5E6B3688360F36834
:1048D000C360242A28D000F1100306F11002C4E6B8
:1048E00050F8043C23F003031C440AE731463846E1
:1048F0007446D046FFF704FE3E4602E73A46F7E626
:10490000314638461C46D046FFF7FAFD3E46F8E6EB
:10491000B368CAF81030F368CAF81430242A1BD0E0
:1049200010360AF11803AEE7336903617369436116
:1049300006F1180200F1180397E600BF2C8CFF1F48
:10494000B168CAF81010F168CAF81410242A0FD000
:1049500010360AF11802CBE63369CAF818307369C9
:10496000CAF81C3018360AF120038CE73A4664E78F
:104970003269CAF818207269CAF81C2018360AF180
:104980002002B5E6314638460193FFF7B9FD019B99
:1049900059E7B168CAF81010F168CAF81410242A4F
:1049A00003D010360AF1180247E73269CAF8182016
:1049B0007269CAF81C2018360AF120023DE700BFD0
:1049C00038B5074C0023054608462360FCF7D8FE9F
:1049D000431C00D038BD2368002BFBD02B6038BDB2
:1049E0008C96FF1FFFFFFFFFFFFFFFFFFFFFFFFF93
:1049F000FFFFFFFFFFFFFFFFFFFFFFFFFFFFFFFFC7
:104A0000A2EB0300704700BF02780B78012A28BF91
:104A10009A42F5D16DE9044540EA0104CDE9026707
:104A20006FF0000C4FEA447212B380EA010414F0F4
:104A3000070F6AD100F0070420F0070004F0030517
:104A400021F007014FEAC505F0E8042314F0040F34
:104A5000F1E804670CFA05F462EA040266EA040667
:104A60000AD063EA0403624667EA0407664603E085
:104A7000F0E80423F1E8046782FA4CF582EA0604C0
:104A8000A4FA8CF46CBB83FA4CF583EA0705A5FA0B
:104A90008CF595B950E9022351E9026782FA4CF589
:104AA00082EA0604A4FA8CF483FA4CF583EA07053B
:104AB000A5FA8CF52543DBD09CB92DBAB5FA85F45F
:104AC00024F0070427FA04F1DDE9026723FA04F36E
:104AD00003F0FF0001F0FF01FDE80445A0EB010039
:104AE000704724BAB4FA84F424F0070426FA04F1D7
:104AF000DDE9026722FA04F202F0FF0001F0FF0193
:104B0000FDE80445A0EB0100704714F0030F3CD111
:104B100010F0030428D150F8082B51F8083B82FA12
:104B20004CF582EA0305A5FA8CF55DB950F8042C22
:104B300051F8043C82FA4CF582EA0305A5FA8CF59B
:104B4000002DE8D02DBAB5FA85F424F0070423FA35
:104B500004F122FA04F202F0FF0001F0FF01FDE887
:104B60000445A0EB010070474FEAC40420F00300A5
:104B700050F8082B21F0030151F8083B0CFA04F41B
:104B800062EA040263EA0403C9E710F003041AD0DE
:104B9000A1EB040120F00300E40750F8042B06D039
:104BA0000FD28B785FFAA2F4E41A06D12BB1CB783E
:104BB0005FFAB2F4E41A00D11BB920465DF8104B3D
:104BC000704701F1040150F8042BCC0721F00301D8
:104BD00051F8043B48D824D222F07F4482FA4CF5A5
:104BE00094EA1325A5FA8CF50AD165B951F8043B6E
:104BF00084EA0204B4EB036F0ED150F8042BEBE708
:104C00004FEA132355E035F07F454DD10878FDE894
:104C10000445C0F1000070474FEA126203F0FF0341
:104C200047E002EA1C4482FA4CF594EA1345A5FADF
:104C30008CF50AD165B951F8043B84EA0204B4EB5F
:104C4000034F0CD150F8042BEBE74FEA134330E04D
:104C500015EA1C4528D10B884FEA124229E04FEA99
:104C6000124203EA1C4324E002F0FF0482FA4CF5EE
:104C700094EA1365A5FA8CF50AD165B951F8043B9D
:104C800084EA0204B4EB032F09D150F8042BEBE7BC
:104C90004FEA13630DE015F0FF0F05D10B684FEAE3
:104CA000122223F07F4304E04FF00000FDE80445AA
:104CB000704712BA1BBA82FA4CF482EA0304A4FACF
:104CC0008CF5B5FA85F402FA04F203FA04F34FEA1C
:104CD0001260FDE80445A0EB1360704780EA010212
:104CE000844612F0030F4FD111F0030F32D14DF86B
:104CF000044D11F0040F51F8043B0BD0A3F1013225
:104D00009A4312F0803F04BF4CF8043B51F8043B37
:104D100016D100BF51F8044BA3F101329A4312F0AF
:104D2000803FA4F101320BD14CF8043BA24312F0B6
:104D3000803F04BF51F8043B4CF8044BEAD02346B3
:104D40000CF8013B13F0FF0F4FEA3323F8D15DF865
:104D5000044B704711F0010F06D011F8012B0CF82D
:104D6000012B002A08BF704711F0020FBFD031F8A5
:104D7000022B12F0FF0F16BF2CF8022B8CF800202C
:104D800012F47F4FB3D1704711F8012B0CF8012BAF
:104D9000002AF9D1704700BFFFFFFFFFFFFFFFFFB1
:104DA000FFFFFFFFFFFFFFFFFFFFFFFFFFFFFFFF13
:104DB000FFFFFFFFFFFFFFFFFFFFFFFFFFFFFFFF03
:104DC00090F800F06DE9024520F007016FF0000C4B
:104DD00010F0070491F820F040F049804FF00004F3
:104DE0006FF00700D1E9002391F840F000F10800CE
:104DF00082FA4CF2A4FA8CF283FA4CF3A2FA8CF306
:104E00004BBBD1E9022382FA4CF200F10800A4FA6C
:104E10008CF283FA4CF3A2FA8CF3E3B9D1E90423C0
:104E200082FA4CF200F10800A4FA8CF283FA4CF3F7
:104E3000A2FA8CF37BB9D1E9062301F1200182FAB1
:104E40004CF200F10800A4FA8CF283FA4CF3A2FAB7
:104E50008CF3002BC6D0002A04BF04301A4612BAC5
:104E6000B2FA82F2FDE8024500EBD2007047D1E9C8
:104E7000002304F00305C4F100004FEAC50514F057
:104E8000040F91F840F00CFA05F562EA05021CBF28
:104E900063EA050362464FF00004A9E740EA010314
:104EA0009B0770B42BD1032A29D90C46034621460F
:104EB00054F8046BA6F1013525EA060515F0803F8C
:104EC00006D1043A032A43F8046B2146EFD8A2B175
:104ED0000C781C70013A013301313CB16AB111F810
:104EE000014B03F8014B013A002CF7D12AB11A44C7
:104EF000002103F8011B9A42FBD170BC70470346A6
:104F0000E5E700BF2DE9F047254C2568D5F8484175
:104F10000646884692469946C4B360681F2817DC47
:104F2000431C76B104EB80050122C5F888A0D4F8B3
:104F3000881182401143022EC4F88811C5F80891E7
:104F40001ED00230636044F820800020BDE8F08766
:104F5000144B03B34FF4C870FFF70AF80446D0B1FE
:104F6000D5F84831002780E88800C5F84841384620
:104F70000123C4F88871C4F88C71002EE1D0D1E708
:104F8000D4F88C110A43C4F88C21DAE705F5A6742D
:104F9000C5F84841C1E74FF0FF30BDE8F08700BFDA
:104FA000A4540000713F0000024B13B1024800F00E
:104FB00005B8704700000000C94F000000230146FB
:104FC0001A461846FFF79EBF38B5074D074C2C1BF5
:104FD000A41005D0013C55F8043D9847002CF9D1A8
:104FE000BDE8384000F06CBA00000000000000008E
:104FF000F8B5234F0C460646FFF7E6FABB685D6836
:1050000025F00305291B01F6EF7121F47F6121F0E2
:105010000F01A1F58054B4F5805F07DB0021304615
:10502000FFF7CEFCBB682B44984204D03046FFF714
:10503000CDFA0020F8BD61423046FFF7C1FC0130D7
:105040000DD0104BBA6819682D1B45F0010530468C
:10505000091B55601960FFF7B9FA0120F8BD00215E
:105060003046FFF7ADFCBA68831A0F2BDEDD064C25
:105070000449246843F00103001B53600860D5E72E
:105080002C8CFF1F5096FF1F3890FF1F002945D022
:105090002DE9F0410D468046FFF796FA55F8047C5D
:1050A0006A4927F00103A5F10804E2188E685068E8
:1050B000B24220F0030062D0FE0750600BD455F8D6
:1050C000087CE41B01F1080EA56875453B446FD0D0
:1050D000E768EF60BD6015186D68ED0742D543F0D5
:1050E00001026260E350B3F5007F18D2DB085A1C5E
:1050F0004D6851F83270A76001209B1000FA03F34D
:1051000001EBC2001D430838E0604D6041F83240B9
:10511000FC604046BDE8F041FFF758BA70475A0AB4
:10512000042A53D89A0902F139077F0002F13805A1
:1051300001EB870051F827204449083890424DD0B0
:10514000516821F003018B4202D292689042F7D15C
:10515000D068E060A2608460D4604046BDE8F04161
:10516000FFF734BA95683A4FBD4203443FD0D06848
:10517000E86043F0010285606260E350B3E7FF0737
:10518000034407D455F8082CA41A1344A068E26815
:10519000C26090602F4A126843F001009342606041
:1051A0008C60B6D32C4B40461968FFF721FFB0E75F
:1051B00011184968C90744D49168D268CA60034489
:1051C00043F0010091606060E350A2E7142A17D811
:1051D00002F15C077F0002F15B05A9E7AA104B68AA
:1051E000012505FA02F213434B600246B1E743F092
:1051F00001024C610C61E560A5606260E35088E7E4
:10520000542A06D81A0B02F16F077F0002F16E05CF
:105210008EE7B2F5AA7F06D8DA0B02F178077F0095
:1052200002F1770584E740F25450824206D89A0C86
:1052300002F17D077F0002F17C0579E7FE277E25DC
:1052400076E743F001026260E35062E72C8CFF1FB7
:10525000348CFF1F3490FF1F4C96FF1FCDCCCC3DEC
:105260000AD7233C17B7D13877CC2B329595E62453
:105270001FB14F0A000020410000C84200401C46F8
:1052800020BCBE4CCA1B0E5AAEC59D742F2F2222C5
:105290005C5C6208660C6E0A720D74090000000006
:1052A0004572726F7200000073656E736F7200005A
:1052B0004008FE4340A004404408FE4344A004408C
:1052C0000018FE4300C004403000FE43309004400C
:1052D0003400FE43349004401C18FE431CC00440BC
:1052E0001018FE4310C004400818FE4308C00440D4
:1052F0000C18FE430CC004400C10FE430CB00440DC
:105300001010FE4310B004401810FE4318B00440C3
:105310001C10FE431CB004401410FE4314B00440A3
:105320000418FE4304C004400010FE4300B00440D3
:105330000008FE4300A004400408FE4304A004400B
:105340000C08FE430CA004400808FE4308A00440DB
:105350001418FE4314C004401818FE4318C004403B
:105360000410FE4304B004400810FE4308B004409B
:105370001400FE43149004404C08FE434CA004402B
:105380000420FE4304D004402410FE4324B0044013
:105390002010FE4320B004402810FE4328B00440F3
:1053A0002C10FE432CB004400020FE4300D00440EB
:1053B0004808FE4348A004401000FE4310900440FB
:1053C00000000000000000000D3300003133000039
:1053D000B1330000AD330000A9330000A533000055
:1053E000A1330000D5320000813300007D3300007E
:1053F000753300006D330000653300005533000045
:105400004533000041330000B5320000BD320000DA
:10541000C5320000CD320000193300000133000016
:105420000D0AFFFF000000000000000039360000F8
:10543000313600002D3600002936000025360000E8
:10544000213600001D360000193600000015191520
:10545000000100005C87FF1F120000000002000036
:105460008887FF1F4300000000030000E487FF1F40
:1054700000000000010309047087FF1F0000000006
:1054800002030904CC87FF1F000000000303090486
:10549000E887FF1F0000000000000000000000007F
:1054A000000000000088FF1FF8B500BFF8BC08BC72
:1054B0009E467047A94F0000350400009916000071
:0454C000F8B500BF7C
:0854C4007CE5FF7F0100000000
:1054CC00000000009096FF1F01000000FFFFFFFF8F
:1054DC00C853000000000000E803000000000000BA
:1054EC0015360000010000002C54000000000000E4
:1054FC00E803000000000000010A04001201100182
:10550C0002000040C0168304750201020301000072
:10551C0018035400650065006E0073007900640088
:10552C00750069006E006F0009024300020100C0A3
:10553C0032090400000102020100052400100105DB
:10554C00240101010424020605240600010705823A
:10555C000310004009040100020A000000070503C3
:10556C0002400000070584024000000016035500AD
:10557C005300420020005300650072006900610076
:10558C006C000000040309040C0300000000000080
:10559C0000000000000000000000000000000100FE
:1055AC0000000000EC8AFF1F548BFF1FBC8BFF1FF9
:1055BC0000000000000000000000000000000000DF
:1055CC0000000000000000000000000000000000CF
:1055DC0000000000000000000000000000000000BF
:1055EC0000000000000000000000000000000000AF
:1055FC00000000000000000000000000000000009F
:10560C00000000000000000000000000000000008E
:10561C00000000000000000000000000000000007E
:10562C00000000000000000000000000000000006E
:10563C00000000000000000000000000000000005E
:10564C00000000000000000001000000000000004D
:10565C000E33CDAB34126DE6ECDE05000B00000012
:10566C00000000000000000000000000000000002E
:10567C00000000000000000000000000000000001E
:10568C00000000000000000000000000000000000E
:10569C0000000000000000000000000000000000FE
:1059CC0000000000000000000088FF1F0000000025
:1059DC00000000002C8CFF1F2C8CFF1F348CFF1F31
:1059EC00348CFF1F3C8CFF1F3C8CFF1F448CFF1F13
:1059FC00448CFF1F4C8CFF1F4C8CFF1F548CFF1FC3
:105A0C00548CFF1F5C8CFF1F5C8CFF1F648CFF1F72
:105A1C00648CFF1F6C8CFF1F6C8CFF1F748CFF1F22
:105A2C00748CFF1F7C8CFF1F7C8CFF1F848CFF1FD2
:105A3C00848CFF1F8C8CFF1F8C8CFF1F948CFF1F82
:105A4C00948CFF1F9C8CFF1F9C8CFF1FA48CFF1F32
:105A5C00A48CFF1FAC8CFF1FAC8CFF1FB48CFF1FE2
:105A6C00B48CFF1FBC8CFF1FBC8CFF1FC48CFF1F92
:105A7C00C48CFF1FCC8CFF1FCC8CFF1FD48CFF1F42
:105A8C00D48CFF1FDC8CFF1FDC8CFF1FE48CFF1FF2
:105A9C00E48CFF1FEC8CFF1FEC8CFF1FF48CFF1FA2
:105AAC00F48CFF1FFC8CFF1FFC8CFF1F048DFF1F51
:105ABC00048DFF1F0C8DFF1F0C8DFF1F148DFF1FFE
:105ACC00148DFF1F1C8DFF1F1C8DFF1F248DFF1FAE
:105ADC00248DFF1F2C8DFF1F2C8DFF1F348DFF1F5E
:105AEC00348DFF1F3C8DFF1F3C8DFF1F448DFF1F0E
:105AFC00448DFF1F4C8DFF1F4C8DFF1F548DFF1FBE
:105B0C00548DFF1F5C8DFF1F5C8DFF1F648DFF1F6D
:105B1C00648DFF1F6C8DFF1F6C8DFF1F748DFF1F1D
:105B2C00748DFF1F7C8DFF1F7C8DFF1F848DFF1FCD
:105B3C00848DFF1F8C8DFF1F8C8DFF1F948DFF1F7D
:105B4C00948DFF1F9C8DFF1F9C8DFF1FA48DFF1F2D
:105B5C00A48DFF1FAC8DFF1FAC8DFF1FB48DFF1FDD
:105B6C00B48DFF1FBC8DFF1FBC8DFF1FC48DFF1F8D
:105B7C00C48DFF1FCC8DFF1FCC8DFF1FD48DFF1F3D
:105B8C00D48DFF1FDC8DFF1FDC8DFF1FE48DFF1FED
:105B9C00E48DFF1FEC8DFF1FEC8DFF1FF48DFF1F9D
:105BAC00F48DFF1FFC8DFF1FFC8DFF1F048EFF1F4C
:105BBC00048EFF1F0C8EFF1F0C8EFF1F148EFF1FF9
:105BCC00148EFF1F1C8EFF1F1C8EFF1F248EFF1FA9
:105BDC00248EFF1F2C8EFF1F2C8EFF1F348EFF1F59
:105BEC00348EFF1F3C8EFF1F3C8EFF1F448EFF1F09
:105BFC00448EFF1F4C8EFF1F4C8EFF1F548EFF1FB9
:105C0C00548EFF1F5C8EFF1F5C8EFF1F648EFF1F68
:105C1C00648EFF1F6C8EFF1F6C8EFF1F748EFF1F18
:105C2C00748EFF1F7C8EFF1F7C8EFF1F848EFF1FC8
:105C3C00848EFF1F8C8EFF1F8C8EFF1F948EFF1F78
:105C4C00948EFF1F9C8EFF1F9C8EFF1FA48EFF1F28
:105C5C00A48EFF1FAC8EFF1FAC8EFF1FB48EFF1FD8
:105C6C00B48EFF1FBC8EFF1FBC8EFF1FC48EFF1F88
:105C7C00C48EFF1FCC8EFF1FCC8EFF1FD48EFF1F38
:105C8C00D48EFF1FDC8EFF1FDC8EFF1FE48EFF1FE8
:105C9C00E48EFF1FEC8EFF1FEC8EFF1FF48EFF1F98
:105CAC00F48EFF1FFC8EFF1FFC8EFF1F048FFF1F47
:105CBC00048FFF1F0C8FFF1F0C8FFF1F148FFF1FF4
:105CCC00148FFF1F1C8FFF1F1C8FFF1F248FFF1FA4
:105CDC00248FFF1F2C8FFF1F2C8FFF1F348FFF1F54
:105CEC00348FFF1F3C8FFF1F3C8FFF1F448FFF1F04
:105CFC00448FFF1F4C8FFF1F4C8FFF1F548FFF1FB4
:105D0C00548FFF1F5C8FFF1F5C8FFF1F648FFF1F63
:105D1C00648FFF1F6C8FFF1F6C8FFF1F748FFF1F13
:105D2C00748FFF1F7C8FFF1F7C8FFF1F848FFF1FC3
:105D3C00848FFF1F8C8FFF1F8C8FFF1F948FFF1F73
:105D4C00948FFF1F9C8FFF1F9C8FFF1FA48FFF1F23
:105D5C00A48FFF1FAC8FFF1FAC8FFF1FB48FFF1FD3
:105D6C00B48FFF1FBC8FFF1FBC8FFF1FC48FFF1F83
:105D7C00C48FFF1FCC8FFF1FCC8FFF1FD48FFF1F33
:105D8C00D48FFF1FDC8FFF1FDC8FFF1FE48FFF1FE3
:105D9C00E48FFF1FEC8FFF1FEC8FFF1FF48FFF1F93
:105DAC00F48FFF1FFC8FFF1FFC8FFF1F0490FF1F42
:105DBC000490FF1F0C90FF1F0C90FF1F1490FF1FEF
:105DCC001490FF1F1C90FF1F1C90FF1F2490FF1F9F
:0C5DDC002490FF1F00000200FFFFFFFFEB
:00000001FF
