:1000000000800020BD01000035630000ED620000AB
:10001000ED620000ED620000ED620000ED620000A4
:10002000ED620000ED620000ED620000356300004B
:1000300035630000ED620000D5830000D983000025
:100040003563000035630000356300003563000050
:100050003563000035630000356300003563000040
:100060003563000035630000356300003563000030
:100070003563000035630000356300003563000020
:100080003563000035630000356300003563000010
:100090003563000035630000356300003563000000
:1000A0005D440000694400003563000035630000D2
:1000B00035630000356300003563000035630000E0
:1000C00035630000356300003563000035630000D0
:1000D00035630000356300003563000035630000C0
:1000E00035630000356300003563000035630000B0
:1000F00035630000257100003563000035630000A2
:10010000356300003563000035630000356300008F
:10011000356300003563000035630000356300007F
:10012000356300003563000035630000356300006F
:10013000356300003563000035630000356300005F
:10014000356300003563000035630000356300004F
:10015000356300003563000035630000356300003F
:1001600035630000AD7400003563000035630000A6
:10017000356300003563000035630000356300001F
:10018000356300003563000035630000356300000F
:1001900035630000356300003563000035630000FF
:1001A00035630000356300003563000035630000EF
:1001B000356300003563000035630000564B4CF298
:1001C000205210B51A804DF628121A8000BF00BFC9
:1001D00006F0B4F8514B4FF010621A60504A9A6022
:1001E000504ADA60504A136813F4807304D14F49BF
:1001F0000B604FF4A85313604D4B1A78110703D5C9
:100200001A7842F008021A704A4B4B492A221A7097
:100210004A4A4B4B8B4204D252F8040F43F8040B6A
:10022000F8E7484B484900228B4202D243F8042B9E
:10023000FAE74649464A002352F8230041F82300D2
:1002400001336F2BF8D1434B434A802103F8011B44
:100250009342FBD1414B3D4A1A60414B8A221A70AE
:10026000A3F5805324225A70A0221A709A7992071B
:10027000FCD59A79D406FCD43A4A937903F00C035E
:10028000082B384BF9D103221A7140225A719A79FE
:100290009006FCD5334A9179324B4906FBD5324A58
:1002A000324911600221516020221A709A7902F0BD
:1002B0000C020C2AFAD12E4B2E4A1A602E4B2F4AD2
:1002C0001A6000225A60072243F8042C2C4AC3F813
:1002D0000C2D62B606F0F8FA144B1B68DA0705D548
:1002E000284806F087F9284B284A1A60284B1B78C3
:1002F0005B0609D5244C254B22689A4204D121483B
:1003000006F078F90023236008F018FF06F01CF8C7
:1003100008F01AFAFEE700BF0E20054030800440C6
:10032000823F04000100002B10D0034014D0034092
:1003300002D0074000E00740FC92FF1FB8AB00006E
:100340002087FF1FFC92FF1FE4AAFF1F0082FF1FF0
:100350000000000000E400E05FE400E008ED00E0E1
:100360000050064000400640448004400000030165
:1003700004800440C010050014E000E0FF76010096
:1003800000002020B0BABF601CE00340A5C3945A0F
:1003900000F00740FFFFFFFFFFFFFFFFFFFFFFFF32
:1003A000FFFFFFFFFFFFFFFFFFFFFFFFFFFFFFFF5D
:1003B000FFFFFFFFFFFFFFFFFFFFFFFFFFFFFFFF4D
:1003C000FFFFFFFFFFFFFFFFFFFFFFFFFFFFFFFF3D
:1003D000FFFFFFFFFFFFFFFFFFFFFFFFFFFFFFFF2D
:1003E000FFFFFFFFFFFFFFFFFFFFFFFFFFFFFFFF1D
:1003F000FFFFFFFFFFFFFFFFFFFFFFFFFFFFFFFF0D
:10040000FFFFFFFFFFFFFFFFFFFFFFFFDEF9FFFF23
:1004100010B5054C237833B9044B13B10448AFF33E
:1004200000800123237010BDFC92FF1F000000001C
:10043000B4AB0000084B10B51BB108490848AFF336
:1004400000800848036803B910BD074B002BFBD0A0
:10045000BDE81040184700BF000000000093FF1FD8
:10046000B4AB0000FC92FF1F00000000704700BF0B
:10047000704700BF08B52921114805F0F5FD90B17E
:100480001321104807F080FE0F4808F05BF8102198
:100490000B4805F0ADFD0221094805F013FE0B4B9A
:1004A00000221A6008BD1B21094807F06DFE0648AE
:1004B00008F048F8054B6FF001021A6008BD00BF54
:1004C0002493FF1FF8A40000048AFF1F0088FF1F69
:1004D000DCA4000008B501227721184805F0B4FA21
:1004E00000B31221164807F04FFE164808F02AF80C
:1004F0000421124805F052FB0221104805F05EFB72
:1005000003210E4805F06AFB02210C4805F076FB3A
:1005100096224FF4A071094805F026FB0A4B0022F1
:100520001A6008BD1B21094807F02EFE054808F097
:1005300009F8054B6FF001021A6008BD4493FF1FD4
:1005400028A50000048AFF1F0888FF1F0CA50000D3
:1005500008B501220D490E4805F0C0FB50B111212C
:100560000C4807F011FE0C4807F0ECFF0B4B002283
:100570001A6008BD1A210A4807F006FE064807F06F
:10058000E1FF064B6FF001021A6008BD1488FF1FDF
:10059000DC93FF1F58A50000048AFF1F0488FF1F7B
:1005A0003CA5000008B5054A054B12881988054886
:1005B00005F06CFC08F096FD08BD00BF3C93FF1FE2
:1005C0003E93FF1F2493FF1F014B1888704700BF05
:1005D0003C93FF1F014B1888704700BF3E93FF1FDD
:1005E000034A044B10881B88181A80B2704700BF5A
:1005F0003C93FF1F3E93FF1F014B1868704700BFDD
:100600001893FF1F014B1868704700BFF493FF1F3A
:10061000014B1868704700BF4093FF1F014B1868DB
:10062000704700BF2093FF1F014B1868704700BF41
:100630001C93FF1F014B1868704700BFF893FF1F02
:10064000014B1868704700BFF093FF1F014B1868FB
:10065000704700BFD893FF1F08B50121052006F0A1
:10066000DFF8FFF737FFFFF773FFBDE80840FFF73C
:1006700001BF00BF10B51821044608F06FF82046EE
:1006800010BD00BF10B50A490A4C0B4805F0D4F95B
:100690000A4805F0C3FA204640F61F2105F0E8FBA2
:1006A0002046074A0749BDE8104008F005BA00BFD8
:1006B0001488FF1F2493FF1F4493FF1FDC93FF1F29
:1006C000FC87FF1F7104000008B50E490E4803F0B7
:1006D0000DFF50B12C210D4807F056FD0C4807F0D6
:1006E00031FF0C4B00221A6008BD1A210A4807F09E
:1006F0004BFD074807F026FF064B6FF001021A601A
:1007000008BD00BF1488FF1FFC93FF1F0CA600004C
:10071000048AFF1F0C88FF1FF0A5000010B5064CCF
:100720004021204603F0A6FE2046044A0449BDE8C5
:10073000104008F0C1B900BFFC93FF1FFC87FF1FEA
:100740008944000008B501210D2006F069F8012157
:10075000172006F065F80121162006F061F8012146
:10076000152006F05DF80121142006F059F801214A
:10077000042006F055F80121042006F04BF8064B42
:10078000064800221F211A6007F0FEFC0448BDE85D
:10079000084007F0D7BE00BF1088FF1F3CA600002E
:1007A000048AFF1F224B1B68002B30DB10B5044668
:1007B00006D045211F4807F0E7FC1F4807F0C2FE9E
:1007C00020464FF0864108F08BFA08F065FC041EC5
:1007D00013DC21464FF017001AD105F01DFF21460A
:1007E000162005F019FF2146152005F015FF2146BA
:1007F0001420BDE8104005F00FBF0021172005F0C0
:100800000BFF2146162005F007FF0021ECE770479B
:1008100005F002FF0021162005F0FEFE21461520FE
:1008200005F0FAFE00211420BDE8104005F0F4BEEA
:100830001088FF1F5CA60000048AFF1F08B5012175
:10084000022005F0EDFF01210220BDE8084005F07F
:10085000E1BF00BF704700BF704700BFF8B5964DBD
:100860002C7F2A68EB686A6024F07F0402F1100193
:1008700044F020040022E4B28B422C77AB602A744F
:100880006A61AA6180F01F8301232B7400218B4BC6
:10089000894A83E8220014F07F0307D124F07F0403
:1008A00044F02004E4B2147753619361A70640F149
:1008B00008836E69824F0AE013B109F0F5F970B14F
:1008C000B6F90A30002B00F0F48206EB03167C48E0
:1008D000002E00F0EE82F368BB421946ECD131469F
:1008E000337A23F07F03002243F0400333723260F7
:1008F00072602C7F734B704A83E8220014F07F03F0
:1009000007D124F07F0444F02004E4B2147753614B
:100910009361A60640F1CB826E696B4F0AE013B17A
:1009200009F0C2F970B1B6F90A30002B00F0B782B5
:1009300006EB03166448002E00F0B182F368BB4258
:100940001946ECD13146337A23F07F03002243F07D
:1009500040033372326072602C7F5C4B564A83E8EE
:10096000220014F07F0307D124F07F0444F0200418
:10097000E4B2147753619361A00640F18E826E69F0
:10098000534F0AE013B109F08FF970B1B6F90A308C
:10099000002B00F07A8206EB03164D48002E00F083
:1009A0007482F368BB421946ECD13146337A23F0A6
:1009B0007F03002243F040033372326072602C7F69
:1009C000444B3D4A83E8220014F07F0307D124F012
:1009D0007F0444F02004E4B2147753619361A106CC
:1009E00040F151826E693C4F0AE013B109F05CF9A5
:1009F00070B1B6F90A30002B00F03D8206EB031609
:100A00003548002E00F03782F368BB421946ECD11E
:100A10003146337A23F07F03002243F040033372E0
:100A2000326072602C7F2D4B234A83E8220014F041
:100A30007F0307D124F07F0444F02004E4B214774C
:100A400053619361A20640F114826E69244F0AE05B
:100A500013B109F029F970B1B6F90A30002B00F092
:100A6000FF8106EB03161E48002E00F0F981F368A3
:100A7000BB421946ECD13146337A23F07F03002282
:100A800043F040033372326072602C7F154B0A4A88
:100A900083E8220014F07F0307D124F07F0444F0A0
:100AA0002004E4B2147753619361A30640F1D68128
:100AB0006E690D4F25E000BF9898FF1F6098FF1FDB
:100AC000F0A600003094FF1FF4A600002894FF1F3A
:100AD000F8A60000C0A8FF1FFCA600001C94FF1F82
:100AE00004A700007098FF1F10A7000013B109F0C1
:100AF000DBF870B1B6F90A30002B00F0A68106EBE6
:100B00000316A748002E00F0A081F368BB421946E7
:100B1000ECD13146337A23F07F03002243F04003C7
:100B20003372326072602C7F9E4B9F4A83E82200B2
:100B300014F07F0307D124F07F0444F02004E4B2D2
:100B4000147753619361A70640F17D816E69974FD9
:100B50000AE013B109F0A8F870B1B6F90A30002B19
:100B600000F0688106EB03169048002E00F06281C9
:100B7000F368BB421946ECD13146337A23F07F0348
:100B8000002243F040033372326072602C7F884B46
:100B9000854A83E8220014F07F0307D124F07F0404
:100BA00044F02004E4B2147753619361A60640F147
:100BB0003F816E697F4F0AE013B109F075F870B19B
:100BC000B6F90A30002B00F02A8106EB03167948AB
:100BD000002E00F02481F368BB421946ECD1314667
:100BE000337A23F07F03002243F0400333723260F4
:100BF00072602C7F704B6C4A83E8220014F07F03F4
:100C000007D124F07F0444F02004E4B21477536148
:100C10009361A00640F101816E69684F0AE013B14B
:100C200009F042F870B1B6F90A30002B00F0EC8000
:100C300006EB03166148002E00F0E680F368BB4225
:100C40001946ECD13146337A23F07F03002243F07A
:100C500040033372326072602C7F594B524A83E8F2
:100C6000220014F07F0307D124F07F0444F0200415
:100C7000E4B2147753619361A10640F1C3806E69B9
:100C8000504F0AE013B109F00FF870B1B6F90A300D
:100C9000002B00F0AE8006EB03164A48002E00F051
:100CA000A880F368BB421946ECD13146337A23F071
:100CB0007F03002243F040033372326072602C7F66
:100CC000414B394A83E8220014F07F0307D124F016
:100CD0007F0444F02004E4B2147753619361A206C8
:100CE00040F185806E69394F09E013B108F0DCFFEF
:100CF00060B1B6F90A30002B70D006EB031633480A
:100D0000002E6BD0F368BB421946EED13146337AE0
:100D100023F07F03002243F040033372326072609D
:100D20002C7F2B4B204A83E8220014F07F0307D14D
:100D300024F07F0444F02004E4B2147753619361FB
:100D4000A30628D56C69234E08E013B108F0ACFF68
:100D500050B1B4F90A30ABB104EB03141D488CB1A7
:100D6000E368B3421946F0D12146237A23F07F038A
:100D700043F040032372184B00222260626083E834
:100D80002200F8BD6A68AB6807491032934280F0D0
:100D90003C8101230B74104B002183E82200F8BD35
:100DA00010A700001494FF1F9898FF1F1CA70000B5
:100DB0007898FF1F2CA70000B8A8FF1F38A70000D5
:100DC0006898FF1F40A700009098FF1F48A70000E9
:100DD0005898FF1F50A70000C8A8FF1F6A68AB689B
:100DE000AE491032934280F0868101230B740021BA
:100DF00097E76A68AB68A9491032934280F0358161
:100E000001230B7400215BE76A68AB68A3491032C9
:100E1000934280F0B38001230B7400211DE76A68C0
:100E2000AB689E491032934280F0D78001230B7447
:100E30000021DFE66A68AB6898491032934280F07F
:100E4000438101230B740021A1E66A68AB689349D2
:100E50001032934280F0F18001230B74002163E68D
:100E60006A68AB688D491032934280F05B81012340
:100E70000B7400210AE66A68AB6888491032934215
:100E800065D201230B740021CDE56A68AB68834904
:100E9000103293422DD201230B74002190E56A6831
:100EA000AB687E49103293423AD201230B74002181
:100EB00053E56A68AB6879491032934276D20123D0
:100EC0000B74002116E5A3F11001A96000293FF47D
:100ED000DDAC734C69614020A96123F8062C43F80E
:100EE000102C43F80C2C43F8044C03F8080C2C7F0E
:100EF000CDE4A3F110068E60002ECED08A69002AC0
:100F000000F02681B01A001150818E6100226548E0
:100F100023F8062C314603F8082C43F8040C45E569
:100F2000A3F110068E60002EC1D08A69002A00F05D
:100F30001581B01A001150818E6100225A4823F8A1
:100F4000062C314603F8082C43F8040CFBE4A3F10B
:100F500010068E60002E96D08A69002A00F001816A
:100F6000B01A001150818E610022504823F8062CDF
:100F7000314603F8082C43F8040C4AE5A3F11006A7
:100F80008E60002E3FF449AF8A69002A00F0EC80A1
:100F9000B01A001150818E610022454823F8062CBA
:100FA000314603F8082C43F8040C4CE6A3F1100674
:100FB0008E60002E85D08A69002A00F0E180B01A88
:100FC000001150818E6100223A4823F8062C3146E8
:100FD00003F8082C43F8040C82E4A3F110068E6099
:100FE000002E3FF425AF8A69002A00F0C380B01AB2
:100FF000001150818E6100222F4823F8062C3146C3
:1010000003F8082C43F8040CEAE5A3F110048C6003
:10101000002C3FF4C0AE8A69002A00F0B780A01A05
:10102000001150818C610022244823F8062C2146AF
:1010300003F8082C43F8040C97E6A3F110068E6021
:10104000002E3FF40BAF8A69002A00F09080B01A9E
:10105000001150818E610022194823F8062C314678
:1010600003F8082C43F8040C54E5A3F110068E6035
:10107000002E3FF4C7AE8A69002A00F08480B01ABF
:10108000001150818E6100220E4823F8062C314653
:1010900003F8082C43F8040C08E600BF9898FF1FDB
:1010A000ECA60000F8A60000F4A60000FCA60000D4
:1010B00038A70000F0A600002CA7000050A70000F1
:1010C00010A7000040A70000A3F110068E60002EBC
:1010D0003FF4B9AE8A69002A4FD0B01A001150818E
:1010E0008E6100222C4823F8062C314603F8082C88
:1010F00043F8040C41E5A3F110068E60002E3FF486
:1011000076AE8A69002A44D0B01A001150818E61EF
:101110000022224823F8062C314603F8082C43F815
:10112000040CF4E5A3F110068E60002E3FF4A1AE8E
:101130008A6982B1B01A001150818E61002218486C
:1011400023F8062C314603F8082C43F8040C93E4EA
:101150004E618E61DAE64E618E61EFE74E618E611F
:10116000EBE64E618E61FFE64E618E6114E74E61E3
:101170008E6170E74E618E613DE74E618E61B0E732
:101180004E618E611FE74E618E617CE74C618C6120
:1011900049E74E618E61BBE71CA7000048A700002D
:1011A00004A700002DE9F047427F82B0012500240A
:1011B000B2B1027F202A2AD8DFE802F01E292929AD
:1011C00029292929291111292911292929292929D7
:1011D0002929292929292929292929291100447757
:1011E00042698669B24242D2561C4661127822EAAE
:1011F000E27202774577DDE7037C002B0CBF012309
:10120000022380F86430002002B0BDE8F087447FFC
:1012100001250574ECB1272A2DD00D46044628D9A6
:101220005B2A00F00A817B2A62D12A7A22F07F02AF
:10123000DFB242F0200300222B722A606A60002F86
:1012400040F0C7810523002084F8643002B0BDE877
:10125000F08742698569AA4280F03F81541C44614D
:10126000127822EAE272012402774477D3E700225F
:10127000BFE7222A3CD10468457F63684360A368C6
:10128000666800249B1BC3608460002D00F05983B6
:10129000002423464477A44626464FF0010EDBB1D6
:1012A000037F46779A424FF0000400F01881002B2C
:1012B00000F0BC805C2B00F08F804568002D00F0B2
:1012C00089808468C768BC4273D30368466083F82A
:1012D00010E0437F002BE3D143698469A34280F08F
:1012E0009A805C1C44611B7823EAE3730377D8E798
:1012F0000020864604F1230647F6ED7C0127A2F183
:101300005F03DBB2A2F141011B2BC9B25FFA80F887
:1013100054D83F283AD104EB0803002683F8246010
:1013200094F82430742B1ED0662B00F0A3836E2B10
:1013300021D02B2B00F042862D2B09BF94F82530AD
:1013400004F1240704F125070126A3F13002D2B2EB
:10135000092A40F2B6832E2B00F0AD86032384F8D1
:101360006430002050E72B7A23F07F0343F006031C
:1013700001222B722A70B8F1040F00F0E0820223E0
:10138000002084F8643002B0BDE8F08784F81DE0E6
:1013900006F8012F6269A369511C9A423CBF616142
:1013A0001278677734BF22EAE27200222277013096
:1013B000A5E7671C87602B55437F70E7A2F12B03DD
:1013C0001929DBB2A5D90E2B2CFA03F1A3D8CB0730
:1013D000A1D59EE7437F62E743698769BB4222D27A
:1013E0005D1C45611B7880F81DE023EAE373DDB2E4
:1013F0000577DBB1752B00F0B2802F2DA64C02D102
:101400000CE0AB420AD014F8023F002BF9D10323C1
:1014100080F864300DE00023037742E76378002B07
:10142000F5D0467749E7012304774377022380F814
:101430006430002002B0BDE8F0872A7A22F07F02F3
:10144000002142F04002DBB22A7229606960002B61
:101450003FF4F8AEA069617701276269824202F128
:1014600001062BD266611278677722EAE272227750
:10147000202A00F21381DFE812F02500110111018A
:1014800011011101110111011101110105010501E4
:1014900011011101050111011101110111011101C8
:1014A00011011101110111011101110111011101AC
:1014B0001101110111011101110105010022012386
:1014C00022776377237C002B0CBF012302230020AB
:1014D00084F8643002B0BDE8F0872246C3E6426873
:1014E000002A00F0D5808368C568AB4280F0CC80CC
:1014F0005D1C8560D4544368002B00F0C980D0F88F
:10150000008098E88040BE451BD99EF800C03C781A
:10151000644540F0DC857B1CBCF1000F16D075469D
:1015200000E09AB11E4615F8012F13F8014BA242B4
:10153000F7D01CB116F8013F002BFBD1771CBE453C
:10154000E5D883687344C8F8043077460B7A0F6097
:1015500023F07F0343F005030B72012054E6467726
:10156000042543699F4203F101082DD9C0F8148076
:101570001B7880F81DE023EAE373A3F130080377BA
:10158000002B3FF453AF402B85BF23F02003373BA4
:101590005FFA88F3DBB243EA04140FFA84F80F2BE6
:1015A00005F1FF351FFA88F43FF631AF15F0FF055E
:1015B0004677D6D104F520539BB2B3F5806F80F007
:1015C0006981C4F3090C87E600220123027743777F
:1015D0002CE7A669627701206369B34203F1010138
:1015E000BFF46CAF61611B78607723EAE373237704
:1015F000202B00F2F38001A151F823F0C514000064
:10160000DD170000DD170000DD170000DD1700000A
:10161000DD170000DD170000DD170000DD170000FA
:101620008116000081160000DD170000DD170000A4
:1016300081160000DD170000DD170000DD17000037
:10164000DD170000DD170000DD170000DD170000CA
:10165000DD170000DD170000DD170000DD170000BA
:10166000DD170000DD170000DD170000DD170000AA
:10167000DD170000DD170000DD17000081160000F7
:101680006277A9E76177E8E60368446001221A748B
:10169000042380F86430CCE65CA7000001215D2AB9
:1016A000217400F03681226A5068916810308142BE
:1016B000C0F0338110399160002900F08A80013B2D
:1016C000DEB200276B68002B00F07882CA1A121174
:1016D0005A8169604F810F72CF6033464FF000022C
:1016E0002046FFF75FFD00283FF4A3AE637F012291
:1016F000002B48D0237F202B52D801A151F823F092
:10170000C5140000A1170000A1170000A1170000D8
:10171000A1170000A1170000A1170000A1170000E9
:10172000A11700008517000085170000A117000011
:10173000A117000085170000A1170000A1170000E5
:10174000A1170000A1170000A1170000A1170000B9
:10175000A1170000A1170000A1170000A1170000A9
:10176000A1170000A1170000A1170000A117000099
:10177000A1170000A1170000A1170000A117000089
:101780008517000067776369A1698B4280F000824A
:10179000591C61611B7823EAE37323776277AAE718
:1017A000627F01212174002A00F070815D2B00F01E
:1017B000B0802C2B7FF4D2AD226A67775368916892
:1017C00010339942C0F0A9801039916000297FF44C
:1017D00079AF042384F86430002015E54FF0010848
:1017E0007D2B84F8108000F094802068637F41682E
:1017F000616082684068121A0020E260A060002BDD
:1018000000F05281207F272800F0CF80222800F0AE
:10181000C080637F002B00F0C181A0F13002D2B202
:101820000346092A00F29C800026667700295DD0D5
:10183000A268E068824253D32368666083F8108010
:10184000637F0021002B51D0237FA3F13002D2B25D
:10185000092AEAD9A3F15F02D2B21B2AE5D9A3F182
:101860004102D2B2192AE0D92B2BDED0A3F12D02EE
:10187000D2B2012AD9D949B1A368E2689342C0F033
:10188000BB8123680021012261601A74042384F85B
:101890006430CEE504F510539BB2B3F5806FC0F011
:1018A0009B837F2C8DF8005000F29E835FFA88F3B3
:1018B0008DF801300DF1020808F1FF38002B3FF4DC
:1018C00089AD47684FB18568C468A54205F1010438
:1018D0001CD30368466083F810E018F8013DEDE77B
:1018E000501CA0608B54637F6168ABE76369A26999
:1018F000934232D25A1C62611B7823EAE373A3F14C
:101900003002D2B2237784F81D80A1E784607B5532
:10191000E3E700236377012076E40123137458E79B
:10192000B9F1000F40F03A84002E00F09C84AC4ADC
:101930002B7A2A6023F07F0343F00C032B720120E3
:1019400062E443698269934280F024815A1C4261B7
:101950001A7822EAE27202779AE4D0220023D1E7D1
:10196000A3F15F02D2B21B2A7FF65EAFA3F1410260
:10197000D2B2192A7FF658AF2B2B3FF455AF2D2B3F
:101980003FF452AF2E2B3FF44FAF032384F8643063
:101990004FE5637F4BB96269B24280F0BE83531C4E
:1019A0006361137823EAE37020770022134662779D
:1019B00096461646D3B1237F667798424FF00002D1
:1019C00000F0FF80002B51D05C2B22D0D4F804C053
:1019D000BCF1000F1BD0A268E1688A4211D32368D2
:1019E000666083F81080637F002BE4D16269A3698D
:1019F0009A4234D2531C6361137823EAE37323774A
:101A0000DAE7511CA1600CF80230637FD2E7637FF4
:101A1000D0E76369A1698B4225D203F1010CC4F8B8
:101A200014C093F800C084F81D802CEAEC7C5FFAA7
:101A30008CF32377BCF1000F18D0BCF1750F00F0C8
:101A400053822F2B674905D011F8022F002A9CD012
:101A50009A42F9D14B78002B97D06677B6E70023EE
:101A60002377A9E70022012322776377022384F8F2
:101A70006430DEE42B7A2E7023F07F0343F00603FC
:101A8000B8F1050F2B727FF47AAC58E76369A1694E
:101A90008B4280F09B825A1C62611B7823EAE373BD
:101AA00001222377627781E66269B24280F09082F8
:101AB000531C6361137823EAE370207784F81D8058
:101AC000A1E60020DFF8248105E040451AD84FEA5E
:101AD0004C00704516D817F8011FA1F13003DBB296
:101AE0001044092B00EB800C1A466FEA030EECD968
:101AF000002940F0E182002E00F0EC82B0F1004FAE
:101B000040F25183DFF8E8C0DFF8E8E00022ACFBE8
:101B10000080C0080132704552B2F8D8092B88BF46
:101B20000B4607D817F8013FA3F13001013209290C
:101B300052B2F7D92E2B00F0D58297F8008008F02A
:101B4000DF03452B00F065820023B8F1000F7FF41E
:101B500005ACD41807F06CF8002C40F36F83224FCB
:101B600014F0010F5FFA88F308F1010803D057F869
:101B7000231007F0B5F86410F2D10EB100F1004067
:101B80002B7A286023F07F0343F00C032B72D6E6F8
:101B9000002302E62A460277FFF77ABB6269B24267
:101BA00080F08782531C6361137823EAE373A3F107
:101BB0003002D2B2237784F81D8032E62960696052
:101BC00088E5616800293FF461AEA368E06883425C
:101BD000C0F064822368626001221A7456E600BF76
:101BE000000080FF5CA70000D4A600009999991915
:101BF000CDCCCCCCFFFF7F00581C0022A060CA5483
:101C0000D4F80490B9F1000F3FF440AE637F002296
:101C1000002B48D0237F202B53D801A151F823F06B
:101C2000C5140000C31C0000C31C0000C31C00003E
:101C3000C31C0000C31C0000C31C0000C31C000028
:101C4000C31C0000A51C0000A51C0000C31C000054
:101C5000C31C0000A51C0000C31C0000C31C000026
:101C6000C31C0000C31C0000C31C0000C31C0000F8
:101C7000C31C0000C31C0000C31C0000C31C0000E8
:101C8000C31C0000C31C0000C31C0000C31C0000D8
:101C9000C31C0000C31C0000C31C0000C31C0000C8
:101CA000A51C000062776369A1698B4280F01881EE
:101CB000591C61611B7823EAE373237784F81D8044
:101CC000A9E7627F84F81080002A00F0ED803A2BAB
:101CD0007FF444AB00232E6863770DE0B9F1000F69
:101CE00003D013B107F0E0FF70B1B6F90A30002B52
:101CF00000F0318106EB03164846002E00F02B81E0
:101D0000F36899451946E9D131467B1E4FF0000230
:101D10002046FFF747FA00283FF48BAB637F002291
:101D2000002B48D0237F202B53D801A151F823F05A
:101D3000C5140000D31D0000D31D0000D31D0000FA
:101D4000D31D0000D31D0000D31D0000D31D0000D3
:101D5000D31D0000B51D0000B51D0000D31D0000FF
:101D6000D31D0000B51D0000D31D0000D31D0000D1
:101D7000D31D0000D31D0000D31D0000D31D0000A3
:101D8000D31D0000D31D0000D31D0000D31D000093
:101D9000D31D0000D31D0000D31D0000D31D000083
:101DA000D31D0000D31D0000D31D0000D31D000073
:101DB000B51D000062776369A1698B4280F0928053
:101DC000591C61611B7823EAE373237784F81D8033
:101DD000A9E7627F84F81080002A73D07D2B3FF43E
:101DE00098AD2C2B7FF4BAAA0023A66963771A4614
:101DF0006369B34203F1010150D261611B7884F839
:101E00001D8023EAE3732377202B3FF6EEAC01A17C
:101E100051F823F07F130000EB170000EB170000D0
:101E2000EB170000EB170000EB170000EB170000AA
:101E3000EB170000EB170000991E0000991E000030
:101E4000EB170000EB170000991E0000EB170000D5
:101E5000EB170000EB170000EB170000EB1700007A
:101E6000EB170000EB170000EB170000EB1700006A
:101E7000EB170000EB170000EB170000EB1700005A
:101E8000EB170000EB170000EB170000EB1700004A
:101E9000EB170000991E00006277A9E700220123DA
:101EA00022776377FFF76BBA6369A1698B4280F091
:101EB00091805A1C62611B7823EAE373237784F8CC
:101EC0001D8004E76369A1698B4280F0A0805A1CE1
:101ED00062611B7823EAE373237784F81D807DE732
:101EE0000023EAE6002370E766774FF0040C63698D
:101EF000994203F101097FF6B5ADC4F814901B783F
:101F000084F81D8023EAE373A3F130092377002BC3
:101F10003FF4ACAD402B85BF23F02003373B5FFA85
:101F200089F3DBB243EA02120FFA82F90F2B0CF1AC
:101F3000FF3C1FFA89F23FF628AD1CF0FF0C6677D4
:101F4000D5D102F520539BB2B3F5806F80F0FB80B2
:101F5000C2F3090E4AE5D4F8009099E80044D6454A
:101F60001ED99EF800C09AF800108C4540F0798187
:101F70000AF10103BCF1000F26D0704600E01AB34D
:101F80001E4610F8012F13F8011B8A42F7D019B131
:101F900016F8013F002BFBD106F1010AD645E2D825
:101FA000A3687344C9F804307346206A426886689F
:101FB000103296425BD2012303740AE494F8253070
:101FC00004F12507FFF7C1B95346EEE7134667E56D
:101FD000184672E5134671E7C4F3090444EA8C24F9
:101FE00004F580348DF8005004F03F03A409A5B235
:101FF00063F07F031F2D8DF8013000F2918064F0B3
:102000003F04E3B28DF802300DF1030854E41346A7
:1020100062E797F80180B8F12D0F00F0E880B8F181
:102020002B0F00F0068107F1010EA8F13003D9B2A1
:1020300009293FF689AD991826293FF775AC4FF06D
:10204000000905E001EB4C03D11826293FF768ACE5
:102050001EF8018FA8F13001CFB2092F03EB830CDA
:10206000F0D9B9F1000F3FF470AD5B426DE5A6F118
:102070001001816000293FF4ACAB6A68002A00F0CF
:10208000D580881A001150816960002246F8043C0E
:10209000802326F8062C06F8083C36E6581CA0607B
:1020A000CA54D4F80490B9F1000F7FF4AFADFFF734
:1020B000EDBBD0227EE500203978B0F5000FA1F10C
:1020C0003003DBB238BF0022FFF428AD1AE53E46EC
:1020D000FFF72FBA2B7A286023F07F0343F0080321
:1020E0002B722CE497F80180A8F13001C9B20929BC
:1020F00007F101073FF623AD704B984205D800EB7E
:102100008000013A01EB400052B217F8018FA8F1AC
:102110003001C9B20929F0D911E51846207744E405
:1021200004F03F05C4F3891365F07F050F2B8DF88C
:1021300002506BDC63F01F03DBB28DF803300DF14E
:102140000408FFF7B9BB02F510539BB2B3F5806FDB
:1021500033D37F2A8DF800C037D85FFA89F28DF823
:1021600001200DF1020C0CF1FF3C002A3FF44FACB2
:10217000D4F80490B9F1000F09D0A168E36899423E
:1021800001F1010306D32368666083F810801CF810
:10219000012DEAE7A36009F80120F8E7002E66D1D7
:1021A0000022FFF7C5BB2B7A23F07F03404243F0A8
:1021B0000A0328602B72FFF7C2BBC2F3090242EA8E
:1021C0008E2202F580328DF800C002F03F019309A3
:1021D00061F07F0299B21F298DF801204BD863F07E
:1021E0003F03DAB28DF802200DF1030CBBE797F83C
:1021F0000280A8F13003D9B2092907F1020E5BD899
:1022000099182629CADC4FF0010921E703F03F03A2
:10221000C4F3033463F07F0544F0F0038DF80350FA
:102220008DF804300DF10508FFF746BB29606960A1
:102230002BE707F1020E97F80280F6E66442002CC5
:102240003FF49BAC1E4F14F0010F5FFA88F308F1C6
:10225000010803D057F8231006F042FD6410F2D1B4
:102260008BE4564693E64FF0FF42FFF761BB4FF019
:102270000042FFF75DBB03F03F01C3F3891261F039
:102280007F010F2A8DF8021007DC62F01F02D2B224
:102290008DF803200DF1040C65E702F03F01C3F354
:1022A000033361F07F0143F0F0028DF803108DF8E5
:1022B00004200DF1050C56E70023D6E6CBCC0C002C
:1022C000BCA600002DE9F04F037A03F07F03023B28
:1022D00087B00D463E2B00F26082DFE813F07800F5
:1022E00078002102210250025E0285005E02A200F7
:1022F0005E02BA005E025E025E025E025E025E0284
:102300005E025E025E025E025E025E025E025E02CD
:102310005E025E025E025E025E02B1015E025E026B
:102320005E025E025E025E025E025E025E025E02AD
:102330005E025E025E025E025E025E025E025E029D
:102340005E025E025E025E025E025E025E025E028D
:102350005E025E025E025E025E023F000668086880
:10236000002E00F00E830368A9495B68032298479A
:102370002A7B6B6801321844D2B268602A73002449
:102380006AB12868A349036802225B689847013450
:102390006B682A7BE4B21844A2426860F1D82946EF
:1023A0003046FFF78FFFB6F90A30002B00F0278286
:1023B00016EB031600F0238228689749036803226E
:1023C0005B6898476B682A7B18446860D7E70B689E
:1023D00042681C68016864681846A0476B68184426
:1023E000686007B0BDE8F08F0DF1160403688B4EEE
:1023F0002146A6FB0302D20802EB8200A3EB4003B6
:10240000303301F8013D1346002AF2D128680368F1
:10241000621A5B6898476B681844686007B0BDE84B
:10242000F08F0468002CA8BF2346C0F2C5820DF1CE
:1024300016047A4E2146A6FB0302D20802EB820064
:10244000A3EB4003303301F8013D1346002AF2D1DB
:10245000DCE707683946384606F008FE002840F0F9
:102460009C8127F0004420466D4906F0FFFD30B9FD
:1024700020466B4906F0DCFD002800F08E8100212B
:10248000384606F0CBFD002840F08B82654938467F
:1024900006F0D8FD002800F0FB81634CDFF8949132
:1024A000A4F1180A4FF000082026394654F8040D0C
:1024B00006F0BEFD40B13846D9F8001006F010FC19
:1024C000B04407460FFA88F854454FEA6606A9F16A
:1024D0000409EAD14FF0FF340021384606F0BCFD74
:1024E00010B35249384606F0A3FDE8B1621C1BD078
:1024F000DFF84491DFF844A10FFA84FB394659F81C
:102500002B0006F0A9FD48B138465AF82B1006F00A
:10251000E7FBC6EB080807460FFA88F8013C64B2EF
:10252000631C4FEA6606E7D1384606F0DBFD092852
:10253000814640F231823E4C384903460522A1FBD8
:102540000303DB08A1FB0404092B02F1FF3056B2A0
:102550004FEAD404C2B2F2D8204606F069FB8246A4
:10256000484606F065FB0146384606F0AFFA51468C
:1025700006F0B6FB824606F0B5FD074606F058FBAE
:102580000146504606F0A2FA014606F0A1FA06F00E
:10259000A9FD0744A742C0F07F8109F10109B8F104
:1025A000000F40F0C4810027002E0FDD1B4A00E021
:1025B00066B1A2FB0737FF08A2FB0713DB0803EB9A
:1025C0008303013EB7EB430F76B2F1D00DF1160451
:1025D00012482146A0FB0923DB0803EB8302A9EB89
:1025E0004202303201F8012D9946002BF2D12868C1
:1025F0000368621A5B6898476B6818446860002E2D
:1026000040F07081B8F1000F40F09C816868E8E606
:1026100078A700007CA70000ACA70000CDCCCCCCF4
:10262000FFFF7F7F8096184BECA60000ACC52737D4
:1026300040420F00D0A60000A4A60000D4A60000CF
:1026400006680868002E00F0A581036899495B6858
:10265000032298472A7B6B6801321844D2B2686023
:102660002A7300246AB128689349036802225B68D0
:10267000984701346B682A7BE4B21844A242686030
:10268000F1D82868F768036822211B6898476B68AF
:102690001844013F686017F8011FB9B1222900F002
:1026A0008880864B03E0DA788A4200F083801C79C8
:1026B0000233002CF7D1286803681B6898476B68C1
:1026C0001844686017F8011F0029E7D128680368DB
:1026D00022211B68984795E80C00146878496468C3
:1026E0001844686010460222A0476B68184468606E
:1026F00029463046FFF7E6FDB6F90A30002B00F018
:10270000A78016EB031600F0A38028686D490368C4
:1027100003225B6898476B682A7B18446860A0E7CF
:102720000B6806681A6818462221136898476B6878
:102730001844013E686016F8011FA9B122294BD048
:102740005E4B02E0DA788A4247D01C790233002CD3
:10275000F8D1286803681B6898476B68184468605C
:1027600016F8011F0029E9D12868036822211B6897
:1027700098476B681844686007B0BDE8F08F03782D
:102780000868002B40F0938003684F495B6805227E
:1027900098476B681844686023E628684B490368CB
:1027A00004225B6898476B681844686007B0BDE80E
:1027B000F08F0C46286803685C211B6898472A68DC
:1027C00069681368084468601B682146104698478A
:1027D0006B68184468605EE70C46286803685C21F3
:1027E0001B68984795E80C001768184468603B68B8
:1027F0002146104698476B68184468609BE7286834
:102800003349036802225B6898472B7B6A68013B67
:102810001044DBB268602B7373B10024286826492A
:10282000036802225B68984701346B682A7BE4B234
:102830001844A2426860F1D828682649036801223A
:102840005B6898476B681844686007B0BDE8F08F14
:1028500028681F49036802225B6898472B7B6A68D7
:10286000013B1044DBB268602B7373B1002428680D
:102870001149036802225B68984701346B682A7B20
:10288000E4B21844A2426860F1D828681249D5E73A
:102890008046202605241FE6104BA3FB0723DB08F8
:1028A00003EB8303B7EB430F3FF47EAE8EE60C4998
:1028B00075E700BF88A700007CA700005CA70000A8
:1028C0008CA70000ACA70000A0A7000070A7000024
:1028D000A8A7000080A7000090A70000CDCCCCCC1A
:1028E00098A70000701EC0B2C0F10F0E04AADFF856
:1028F000F8C0EE441646ACFB0713DB0803EB83017C
:10290000A7EB4101303106F8011D76451F46F2D193
:10291000C14311442E23286801F8013C03680139A2
:102920005B68521A98476B68184468606AE6B9F1A8
:10293000090F7FF638AE08F101080FFA88F84FF05A
:10294000010930E62868036865211B6898476B68B1
:10295000B8F1000F18446860A8BF1FFA88F335DB90
:10296000214E2146A6FB0302D20802EB8200A3EB14
:10297000400303F1300093B201F8010D002BF1D1B7
:1029800044E51A49036802225B6898476B6818445B
:10299000686026E51649F5E7DFF85CA0154C0626C9
:1029A000DEE5286803682D211B6898476B6818448A
:1029B00007F10047686069E5086803682D211B6816
:1029C00098476B6818446860634230E5286803687C
:1029D0002D211B6898476B68C8F10008184468608F
:1029E0001FFA88F3BCE700BFCDCCCCCC84A7000095
:1029F00094A7000040420F00002474492DE9F04FD5
:102A0000037A03F07F03023B87B00D463E2B00F2B2
:102A10006082DFE813F07800780021022102500282
:102A20005E0285005E02A2005E02BA005E025E02E5
:102A30005E025E025E025E025E025E025E025E0296
:102A40005E025E025E025E025E025E025E025E0286
:102A50005E02B1015E025E025E025E025E025E0224
:102A60005E025E025E025E025E025E025E025E0266
:102A70005E025E025E025E025E025E025E025E0256
:102A80005E025E025E025E025E025E025E025E0246
:102A90005E023F0006680868002E00F00E8303689F
:102AA000A9495B68032298472A7B6B680132184466
:102AB000D2B268602A7300246AB12868A349036807
:102AC00002225B68984701346B682A7BE4B21844A1
:102AD000A2426860F1D829463046FFF78FFFB6F969
:102AE0000A30002B00F0278216EB031600F0238239
:102AF00028689749036803225B6898476B682A7BBC
:102B000018446860D7E70B6842681C68016864680D
:102B10001846A0476B681844686007B0BDE8F08F9E
:102B20000DF1160403688B4E2146A6FB0302D20862
:102B300002EB8200A3EB4003303301F8013D134662
:102B4000002AF2D128680368621A5B6898476B68AC
:102B50001844686007B0BDE8F08F0468002CA8BF77
:102B60002346C0F2C5820DF116047A4E2146A6FB1B
:102B70000302D20802EB8200A3EB4003303301F8DA
:102B8000013D1346002AF2D1DCE707683946384692
:102B900006F06CFA002840F09C8127F000442046A3
:102BA0006D4906F063FA30B920466B4906F040FAE9
:102BB000002800F08E810021384606F02FFA002808
:102BC00040F08B826549384606F03CFA002800F058
:102BD000FB81634CDFF89491A4F1180A4FF00008D0
:102BE0002026394654F8040D06F022FA40B1384642
:102BF000D9F8001006F074F8B04407460FFA88F8C8
:102C000054454FEA6606A9F10409EAD14FF0FF34B2
:102C10000021384606F020FA10B35249384606F033
:102C200007FAE8B1621C1BD0DFF84491DFF844A139
:102C30000FFA84FB394659F82B0006F00DFA48B11B
:102C400038465AF82B1006F04BF8C6EB0808074632
:102C50000FFA88F8013C64B2631C4FEA6606E7D1BC
:102C6000384606F03FFA0928814640F231823E4C50
:102C7000384903460522A1FB0303DB08A1FB04043A
:102C8000092B02F1FF3056B24FEAD404C2B2F2D897
:102C9000204605F0CDFF8246484605F0C9FF0146B3
:102CA000384605F013FF514606F01AF8824606F042
:102CB00019FA074605F0BCFF0146504605F006FF2D
:102CC000014605F005FF06F00DFA0744A742C0F0E3
:102CD0007F8109F10109B8F1000F40F0C48100279C
:102CE000002E0FDD1B4A00E066B1A2FB0737FF088C
:102CF000A2FB0713DB0803EB8303013EB7EB430F93
:102D000076B2F1D00DF1160412482146A0FB09233A
:102D1000DB0803EB8302A9EB4202303201F8012DFC
:102D20009946002BF2D128680368621A5B689847BD
:102D30006B6818446860002E40F07081B8F1000F95
:102D400040F09C816868E8E678A700007CA7000056
:102D5000ACA70000CDCCCCCCFFFF7F7F8096184B7A
:102D6000ECA60000ACC5273740420F00D0A60000FB
:102D7000A4A60000D4A6000006680868002E00F093
:102D8000A581036899495B68032298472A7B6B6891
:102D900001321844D2B268602A7300246AB12868EC
:102DA0009349036802225B68984701346B682A7B69
:102DB000E4B21844A2426860F1D82868F768036852
:102DC00022211B6898476B681844013F686017F818
:102DD000011FB9B1222900F08880864B03E0DA7820
:102DE0008A4200F083801C790233002CF7D12868D6
:102DF00003681B6898476B681844686017F8011FE0
:102E00000029E7D12868036822211B68984795E8C4
:102E10000C001468784964681844686010460222FF
:102E2000A0476B681844686029463046FFF7E6FD06
:102E3000B6F90A30002B00F0A78016EB031600F05D
:102E4000A38028686D49036803225B6898476B6814
:102E50002A7B18446860A0E70B6806681A68184661
:102E60002221136898476B681844013E686016F881
:102E7000011FA9B122294BD05E4B02E0DA788A42C9
:102E800047D01C790233002CF8D1286803681B68EE
:102E900098476B681844686016F8011F0029E9D14B
:102EA0002868036822211B6898476B68184468608B
:102EB00007B0BDE8F08F03780868002B40F09380DE
:102EC00003684F495B68052298476B68184468603F
:102ED00023E628684B49036804225B6898476B68BF
:102EE0001844686007B0BDE8F08F0C462868036896
:102EF0005C211B6898472A68696813680844686001
:102F00001B682146104698476B68184468605EE766
:102F10000C46286803685C211B68984795E80C00FC
:102F20001768184468603B682146104698476B68EC
:102F3000184468609BE728683349036802225B688D
:102F400098472B7B6A68013B1044DBB268602B73A7
:102F500073B1002428682649036802225B689847F9
:102F600001346B682A7BE4B21844A2426860F1D84D
:102F700028682649036801225B6898476B681844F3
:102F8000686007B0BDE8F08F28681F490368022217
:102F90005B6898472B7B6A68013B1044DBB2686032
:102FA0002B7373B1002428681149036802225B68FF
:102FB000984701346B682A7BE4B21844A2426860E7
:102FC000F1D828681249D5E78046202605241FE657
:102FD000104BA3FB0723DB0803EB8303B7EB430F83
:102FE0003FF47EAE8EE60C4975E700BF88A700006F
:102FF0007CA700005CA700008CA70000ACA7000025
:10300000A0A7000070A70000A8A7000080A70000EC
:1030100090A70000CDCCCCCC98A70000701EC0B209
:10302000C0F10F0E04AADFF8F8C0EE441646ACFB60
:103030000713DB0803EB8301A7EB4101303106F8EE
:10304000011D76451F46F2D1C14311442E23286845
:1030500001F8013C036801395B68521A98476B68B4
:10306000184468606AE6B9F1090F7FF638AE08F1D6
:1030700001080FFA88F84FF0010930E62868036864
:1030800065211B6898476B68B8F1000F18446860A9
:10309000A8BF1FFA88F335DB214E2146A6FB0302A9
:1030A000D20802EB8200A3EB400303F1300093B29D
:1030B00001F8010D002BF1D144E51A490368022201
:1030C0005B6898476B681844686026E51649F5E721
:1030D000DFF85CA0154C0626DEE5286803682D2184
:1030E0001B6898476B68184407F10047686069E5FA
:1030F000086803682D211B6898476B68184468604E
:10310000634230E5286803682D211B6898476B6887
:10311000C8F10008184468601FFA88F3BCE700BFD4
:10312000CDCCCCCC84A7000094A7000040420F0077
:10313000002474492DE9F043A5B003F053FF0028A3
:1031400040F38582782202A8AE49AF4CAF4F05F01C
:1031500029FA02A9AE4805F0CFF9AD4805F0F2F919
:10316000069406AB0FCB2668029D6660E668A660F3
:10317000049E94F81CE01294002D08BF3D460F9564
:10318000AF190AAD85E80F0000262EF07F0E4FF034
:103190000A03284604F114014FF0000284F81CE0F1
:1031A000109726748DF838608DF845608DF88C6026
:1031B000FDF7F8FF9DF88C30002B00F01D820521F3
:1031C0009448954F04F0E0FF914805F0BBF902A840
:1031D00005F004FA914992480B680293029A914BC8
:1031E000A0FB02029209A3FB0203DB0803EB8303AB
:1031F000B2EB430F40F0E0818B4B09681A680191F4
:10320000019EE2B158684168836810318B42C0F07A
:103210001083A3F11001816089B15068002800F08B
:10322000D7830D1A2D11458151600022082143F8E2
:10323000106C23F8062C43F8042C03F8081CFDF747
:10324000B1F97A4B1D685A68DDB151689368103145
:103250008B42C0F0E582A3F11001916089B16A68E8
:10326000002A00F0D9838E1A361156816960002237
:10327000082143F8100C23F8062C43F8042C03F81B
:10328000081CFDF7A1F96A4B1D685A68DDB1516849
:10329000936810318B42C0F0C982A3F11001916094
:1032A00089B16A68002A00F096838E1A3611568119
:1032B00069600022082143F8100C23F8062C43F81B
:1032C000042C03F8081CFDF785F95A4B1D685A6851
:1032D000DDB15168936810318B42C0F0A482A3F134
:1032E0001001916089B16A68002A00F077838E1A14
:1032F0003611568169600022082143F8100C23F82A
:10330000062C43F8042C03F8081CFDF769F94A4B16
:103310001D685A68DDB15168936810318B42C0F066
:103320009782A3F11001916089B16A68002A00F0C8
:1033300058838E1A3611568169600022082143F89D
:10334000100C23F8062C43F8042C03F8081CFDF796
:1033500053F93A4B1D685A68DDB1516893681031D2
:103360008B42C0F07282A3F11001916089B16A684A
:10337000002A00F039838E1A3611568169600022C6
:103380000C2143F8100C23F8062C43F8042C03F806
:10339000081CFDF737F92A4B1D685A68DDB15168E2
:1033A000936810318B42C0F04D82A3F110019160FF
:1033B00089B16A68002A00F0F6828E1A36115681A9
:1033C000696000220C2143F8100C23F8062C43F806
:1033D000042C03F8081CFDF71BF91A4B1D685A68EA
:1033E000002D3FD05168936810318B42C0F0278286
:1033F000A3F110019160A9B36A68002A00F0D68297
:1034000022E000BFEC89FF1F3894FF1F0AAB0000C9
:10341000048AFF1FB0A700002494FF1FD4A8FF1F39
:10342000D34D6210CDCCCCCC6098FF1F3094FF1FE1
:103430002894FF1FC0A8FF1F1C94FF1F7098FF1F38
:103440001494FF1F7898FF1F8E1A361156816960F9
:1034500000220C2143F8100C23F8062C43F8042C0E
:1034600003F8081CFDF7DAF8A64B1D685A68DDB1B1
:103470005168936810318B42C0F0F681A3F11001BE
:10348000916089B16A68002A00F093828E1A361121
:103490005681696000220C2143F8100C23F8062C99
:1034A00043F8042C03F8081CFDF7BEF8964B1D6882
:1034B0005A68DDB15168936810318B42C0F0D181F8
:1034C000A3F11001916089B16A68002A00F074824A
:1034D0008E1A36115681696000220C2143F8100CB7
:1034E00023F8062C43F8042C03F8081CFDF7A2F877
:1034F000864B1D685A68DDB15168936810318B4264
:10350000C0F0AC81A3F11001916089B16A68002A12
:1035100000F055828E1A36115681696000220C2106
:1035200043F8100C23F8062C43F8042C03F8081C6D
:10353000FDF786F8764B1D685A68DDB151689368CF
:1035400010318B42C0F08781A3F11001916089B1E5
:103550006A68002A00F036828E1A36115681696038
:1035600000220C2143F8100C23F8062C43F8042CFD
:1035700003F8081CFDF76AF8664B1D685A68DDB150
:103580005168936810318B42C0F05681A3F110014D
:10359000916089B16A68002A00F017828E1A36118C
:1035A0005681696000220C2143F8100C23F8062C88
:1035B00043F8042C03F8081CD7F80080564940460D
:1035C00006F072FB267F002800F0E1805349404658
:1035D00006F06AFB00283DD02168E26861600023A4
:1035E00026F07F064FF47A702677A260237403F0EA
:1035F0001DF925B0BDE8F0839DF84430002B40F064
:103600005981237F464A03F0200303F0FF05DBB115
:103610005569444E0AE013B106F046FB60B1B5F9B6
:103620000A30002B00F0BD8105EB03153D485DB16C
:10363000EB68B3421946EED12B7A03F07F03043BCB
:10364000012B94BF2D680025374F3D60BFE5344CFA
:10365000354FBFE506F0200303F0FF05002B00F017
:103660000F816769DFF8C4803D463048002D00F0C7
:103670001D81EB684345194635D01BB106F014FB9C
:10368000002830D0B5F90A0050BB294906F00CFBE0
:10369000002835D06569254F08E013B106F004FB1A
:1036A00060B1B5F90A0088B105EB00151F48002D7F
:1036B00000F0EA80EB68BB421946EED12B7A03F0AA
:1036C0007F03043B012B94BF28680020194906F0B2
:1036D000EBFA002880D10020FDF764F8267F7BE715
:1036E00005EB0015C1E72B7A03F07F03043B012BA8
:1036F00040F294800E49002006F0D6FA0028C9D185
:103700000D4D26E0B8A8FF1F6898FF1F9098FF1F77
:103710005898FF1FC8A8FF1FC4A70000F0A700000B
:103720003894FF1FB8A700002494FF1FCCA7000007
:10373000F8A700000CA8000004A8000013B106F0D0
:10374000B3FA70B1B7F90A30002B00F0A38007EB91
:103750000317A748002F00F09D80FB68AB42194675
:10376000ECD13B7A5B0640F195803A68002A00F084
:103770009180137A03F07F03043B082B00F28A80C8
:10378000DFE803F0BFBFBB88B688B2889D0006F0B3
:103790002003984A03F0FF00D3B15569DFF858922F
:1037A00008E013B106F080FA58B1B5F90A0078B113
:1037B00005EB00159048002D7AD0EB684B45194673
:1037C000EFD12B7A03F07F03043B012B4FD900206C
:1037D0008A4906F069FA054600287FF4F7AE884E5C
:1037E0008848132104F0D0FC304604F0ABFE0AA94F
:1037F00085480A960B958DF83450FEF763FD834B90
:1038000081480A930AA90B958DF83450FFF7F6F812
:10381000FDF724F8D7F80080267FD7E6286834E73C
:10382000012313742DE5012313746EE50123137432
:1038300049E50123037402E501231374BCE6012367
:1038400013740FE601231374C5E501231374A0E577
:10385000012313747BE5012313748BE60123137496
:1038600066E60123137441E6012313741CE62868FD
:10387000624906F019FA054600287FF4A7AEAEE7C4
:10388000634906F011FA28B128461FE7B8F1000F86
:1038900040F044810020FCF785FF267F06F02003DE
:1038A00003F0FF00002B7FF4F5AE0FE72846ECE6AF
:1038B00028468DE7237F1A077FF5A3AE7FE41568BE
:1038C0004FF04F41284605F0BDFB0028E2D04FF0F5
:1038D0009E41284605F0ACFB0028DBD0284605F0C9
:1038E000DBFB05F0A9F9D6E7106805F0A5F9D2E7EA
:1038F0001068B0F1004FF4D3CCE7107805F09CF9D4
:10390000C9E7126813782B2B00F0B8802D2B40F0FC
:10391000B380012653783244A3F13005EDB2092D6E
:103920004FF000007BD92E2BB5D11578B0F5000FE4
:10393000A5F13001C9B238BF002380F08F8009297A
:1039400088BF294607D812F8011FA1F130050133BD
:10395000092D5BB2F7D92E2900F0C680177807F041
:10396000DF01452900F08E800021002F92D15D18E3
:1039700005F05EF9002D40F3E680DFF8988015F041
:10398000010FFBB207F1010703D058F8231005F02F
:10399000A7F96D10F3D1002E00F0C38000F10045AF
:1039A0008EE71D4650E6296069600AE52960696076
:1039B0004EE5296069606DE5296069608CE52960E4
:1039C0006960ABE529606960CAE529606960E9E57D
:1039D0001160516029E4296069606AE429606960C6
:1039E00089E429606960A8E429606960C7E400BFD0
:1039F00004A800003894FF1FCCA70000D0A7000047
:103A0000048AFF1FDCA70000AC98FF1FEC89FF1F92
:103A1000F8A70000D4A600002960696027E4DFF859
:103A20005CC105E0604518D84FEA4E00B84214D892
:103A300012F8013FA3F13001C9B22844092900EB73
:103A4000800E0D466FEA0107ECD9002B7FF46DAFB5
:103A5000002E44D0B0F1004F0CD91D46DFF820E114
:103A6000444F0023AEFB00C0C0080133B8425BB234
:103A7000F8D864E7404234E700264DE75378002643
:103A8000013249E757782D2F4DD02B2F08BF97785B
:103A9000A7F13001CDB214BF01320232092D3FF639
:103AA00063AF5D18262D3FF7F5AE4FF0000805E037
:103AB00005EB4C01CD18262D3FF7E8AE12F8017F3B
:103AC000A7F130055FFA85FEBEF1090F01EB810C0D
:103AD000EED9B8F1000F3FF448AF494245E7B0F1E5
:103AE000004FFFF4FEAED5E65778A7F13001C9B21A
:103AF000092902F101023FF632AF1F4DA84205D855
:103B000000EB8000013B01EB40005BB212F8017F4B
:103B1000A7F13001C9B20929F0D920E736BB00204E
:103B2000DDE60546CCE69778A7F13001CDB2092D48
:103B300002F1020288BF0021CFD8CD18262DEDDC7E
:103B40004FF00108BAE76D42002D3FF424AFDFF8D3
:103B5000348015F0010FFBB207F1010703D058F8CC
:103B6000231005F0BDF86D10F3D114E74FF00040BD
:103B7000B5E600BFFFFF7F00CBCC0C0099999919E7
:103B8000CDCCCCCCBCA60000F0B5344B344D1A7F64
:103B90003449354E002403F1200E03F5846722F0EA
:103BA0007F0283B01A77C3F800E0C3F804E02A4626
:103BB0009F60DF601C74184604F07EFF2B4B2C497D
:103BC0001A7F1C7403F1200E03F5815722F07F0247
:103BD000C3F800E0C3F804E01A779F602A46DF606C
:103BE000184604F069FF234A234B12680192019A98
:103BF0001A602146304604F031FD2A4630461F49FE
:103C00001F4D204F204E04F057FF20482049214AE5
:103C1000214BDFF89CE02C606C6004601F4D446019
:103C20000C601F484C6014601E4954601C601E4AA2
:103C30005C601E4BCEF80040CEF804403C607C60D7
:103C4000346074602C606C60046044600C604C6094
:103C5000146054601C605C6003B0F0BD3894FF1FBA
:103C6000FC87FF1F550800008098FF1F9898FF1FD2
:103C700059080000D4A8FF1F1094FF1FDD85000025
:103C80006098FF1F1494FF1F7898FF1F3094FF1F48
:103C90002894FF1FC0A8FF1F1C94FF1FB8A8FF1F78
:103CA0006898FF1F9098FF1F5898FF1FC8A8FF1F14
:103CB0007098FF1F38B54FF47A7002F0B7FD2721D6
:103CC0001D481E4D1E4C04F05FFA1E4804F03AFCDD
:103CD00018211D4804F058FA1A4804F033FC4FF438
:103CE000E1311A4804F090FB194A1A491378002B65
:103CF000FCD00B78DB07F9D52B6820681B1A0E2B3C
:103D0000F4D9FCF71FFDFCF7DFFCFCF797FDFCF78F
:103D1000A3FC01210D2002F083FD01210D2002F002
:103D200079FD0F210C4804F02FFA064804F00AFC34
:103D3000BDE83840FCF792BD14A80000D4A8FF1FCE
:103D4000DCAAFF1F048AFF1F3CA80000EC89FF1FAC
:103D500058AAFF1F70AAFF1F58A800000020704734
:103D600090F8392090F83800101A704790F83830E1
:103D700090F839209A4205D95A1C034480F838201B
:103D8000187E70474FF0FF30704700BF90F8383012
:103D900090F839209A4286BF1B18187E4FF0FF30EA
:103DA000704700BF704700BF38B50546B0F85E00E9
:103DB00090B195F85D301446C3F1210294420CD8BD
:103DC00005F13B001844224602F0F6F995F85D3003
:103DD000234485F85D30204638BD01201446287103
:103DE000EEE700BFB0F85E306BB190F85D30202B8D
:103DF00007D8C218013380F85D30012082F83B10EB
:103E00007047012303710020704700BF00234269FF
:103E100080F8383080F8393080F85C3080F85D30D8
:103E200080F85E3080F85F3006CA30B40D680469EF
:103E300043662A4383660A60A370426990F8613042
:103E40001649146813441D7A5B7B01EBC5051B0200
:103E50006D6803F4E06343F064032B6090F8623014
:103E600013449D7CDB7D01EBC5011B02496803F413
:103E7000E06343F064030B6021685368194205D086
:103E8000036927225A70036904229A710369202268
:103E90005A71036980229A7030BC704790A9000063
:103EA00010B50269D378DBB2D90604463DD510219E
:103EB0005806D17038D503F0040303F0FF02002B3D
:103EC00051D03D49626E00230B7084F85D30002AAA
:103ED0005BD0904794F85D30002B56D02369D022F8
:103EE0009A70236994F83B201A712369012284F89F
:103EF0005C200222DA7010BD304B84F860009C42D6
:103F00004AD02F4B9C4252D094F8391013791F2974
:103F1000DBB207D82848007820B16018013184F856
:103F2000391003760223D37010BD5906C3D491789B
:103F300001F0100101F0FF000029DDD013F00103B2
:103F40001ED194F85C1094F85D00884281BF4B1C30
:103F5000091984F85C3091F83B3013712369D02241
:103F60009A702269DEE7236984F83920C0229A70AA
:103F70002369114A1979012111700222DA7010BDEA
:103F8000C023937022691379CCE70122002384F8BF
:103F90005D2084F83B30A1E7626994F861300949FB
:103FA00013440322187A02F065FA2269ACE76269C9
:103FB00094F861300449F3E7D0A8FF1F1488FF1F6D
:103FC0008088FF1F29400000354000000369DB782E
:103FD00003F0200373B190F860300133DBB2012BA2
:103FE00080F860301AD9426990F861301344187A29
:103FF00002F0BCBA70B5426903F0FF0590F8613079
:1040000013440446187A02F0B1FAA36E5BB184F847
:10401000385094F83900BDE87040184790F85F3088
:10402000002BE0D0704770BD0148FFF7CFBF00BF45
:104030001488FF1F0148FFF7C9BF00BF8088FF1F1A
:104040002DE9F047374FDFF8E0903B68026982B016
:1040500006460093DDF800800021A025D3789B065A
:104060005BD53B680193019BC8EB03030F2BF5D98C
:1040700049B1102BF2D000209070336980229A70E1
:1040800002B0BDE8F087726996F8613013440521EB
:10409000187A02F0C5FB726996F861301344012169
:1040A00093F812A0504602F0BBFB092400215046B1
:1040B00002F0B0FB2B46013BFDD10121504602F03E
:1040C000A9FB2B46013BFDD1013CEFD1706996F86D
:1040D000611001444FF4A0720C7A4B7B09EBC401D0
:1040E0001B02496803F4E06343F064030B6096F835
:1040F00062300344997CDB7D09EBC1011B024968F6
:1041000003F4E06343F064030B60013AFDD13269CC
:10411000D3789B064FF00101A3D4012002B0BDE883
:10412000F08700BFD4A8FF1F90A90000F0B5036975
:104130001222DA700269937803F0200385B00446F6
:104140000D46002B5ED0B42393703C4922690B6866
:104150000093009E05E00B680193019B9B1B042BC1
:1041600042D8D37803F0200303F0FF00002BF2D0F5
:1041700094F85D30002B31D04FF0000E4FF0020C60
:1041800004EB0E0393F83B3013710B680393039F0A
:10419000206907E09B060DD50B680293029BDB1B91
:1041A000052B28D8C378DBB203F0020202F0FF0629
:1041B000002AEFD080F803C02669F378DBB2DF066F
:1041C00032462DD49F062BD5DB0731D40EF1010EDC
:1041D00094F85D305FFA8EFE7345D1D800201DBB88
:1041E000002384F85E3004E09070236980229A7086
:1041F000042005B0F0BD86702369802204209A70E7
:1042000005B0F0BD03F0FF06FFF71AFF10B9042058
:1042100005B0F0BD236984F85F60B0229A7094E71E
:104220008023B3700420DAE726698023B370D7E7D0
:10423000BEF1000F0CBF02200320F6E7D4A8FF1F39
:104240002DE9F04106690025122780F8385080F8E2
:104250003950F770D0F810C09CF802E00EF0200E34
:1042600088B00446884615461E46BEF1000F49D068
:10427000B4238CF80230784B21691A680092DDF87B
:1042800000E006E01A6801920198CEEB00000428D5
:1042900030D8C87800F0200000F0FF070028F1D0E7
:1042A0004FEA480242F00102D2B20A711A68029241
:1042B000DDF808E0206906E01A6803920399CEEB66
:1042C000010105292AD8C17801F0020101F0FF0798
:1042D0000029F1D04FF0020C80F803C02269D17898
:1042E00011F0110722D12DBB002E0CBFA02380237B
:1042F000937003E08F70236980229A70384608B06B
:10430000BDE8F0810EF0FF07FFF79AFE0028F5D018
:10431000236984F85F70B0229A70ACE787702369D4
:10432000802238469A7008B0BDE8F08180239370EF
:104330000027E3E7012D75D0A021917021690A794A
:10434000BE4667464FF0A80C1A680492049805E030
:104350001A680592059A121A052A4AD8CA7802F0F4
:10436000020202F0FF08002AF2D0CF702169CA7859
:10437000D2B212F0100F08465AD1920658D5013D1C
:10438000EDB2012D49D0BEF11F0F3BD90A79012DA5
:10439000DAD11A680692069D05E01A680792079A14
:1043A000521B052A46D8C27802F0020202F0FF0131
:1043B000002AF2D00223C3702269D378DBB2D90677
:1043C0003AD49B0634D5B023BEF11F0F93703FD86B
:1043D000226904EB0E0312791A760EF1010E5FFAD0
:1043E0008EFE16B1236980229A7084F839E07746F0
:1043F00084E781F80280236980229A70774684F8E6
:1044000039E07BE704EB0E0291F8048082F8188013
:104410000EF1010E5FFA8EFEB9E781F802C0216944
:104420000846B0E7A82191702069BE460279B0E73E
:10443000774663E78170DEE71021A023D170013B4E
:10444000FDD12269937803F0F7037746937055E71F
:1044500023691B79C5E700BFD4A8FF1F0148FFF7F8
:104460001FBD00BF1488FF1F0148FFF719BD00BF23
:104470008088FF1F10B40024002204614171026093
:10448000C26010BC704700BF10B510210446006820
:1044900004F064F9204610BD30B54FF480528FB05F
:1044A0000446826001254FF080430A220168C26001
:1044B00003610522022302A80195009500F034F85B
:1044C000A16802A8022200F07BF82168019502236E
:1044D000009508A8002200F027F808A8022243F659
:1044E0009F1100F06DF820710FB030BD30B505465A
:1044F000006883B050B1012100F0BEF8044610B14D
:104500002846FFF7C9FF204603B030BD10200191B7
:1045100004F022F9019904460A46697900F086F808
:104520002C602046E7E700BF70B49DF810609DF84E
:104530000C50016000214673857342810373416111
:10454000416070BC704700BFF0B54389056885B015
:10455000DCB21B128DF80C408DF80D304DB1437B51
:10456000019303AB00932846012300F095F805B0B2
:10457000F0BD43680BB31746027A0E466AB904F0E1
:104580007F048DF80C40427B009231463A46184633
:1045900003AB00F025FA05B0F0BD022A04D164F0A7
:1045A0007F048DF80C40EEE7012AECD104F07F0483
:1045B00044F040048DF80C40E5E71846D7E700BF0B
:1045C00002B9027B042A1AD8F0B4416100F10F0746
:1045D0007AB102F10E03867B3C46034400F10E05DE
:1045E0005EB92170013BAB424FEA112104F1010495
:1045F000F6D13946F0BCFFF7A7BF1970F2E70020EB
:10460000704700BF70B5044640681E4603685B688B
:1046100015469847854201D0002070BD314660683C
:10462000FFF784FDB0FA80F0400970BD30B400257A
:1046300020240572C4600170426030BC704700BF26
:10464000037A10B5044683B12278636801215200D1
:1046500083F83B2083F85E1083F85D106068FFF7F5
:1046600065FDB0FA80F0400910BD012100F004F8AA
:104670000028E9D110BD00BF38B5044640680D469A
:10468000FFF7C4FB0120207205B938BD2046BDE804
:104690003840FFF7D5BF00BF2DE9F041079EC46841
:1046A000DDF818E09519A54219D815460278984604
:1046B00043680F4652000121044683F83B2083F8EB
:1046C0005E1083F85D106EB1BEF1000F0AD0406835
:1046D000036871465B6832469847864202D00020E4
:1046E000BDE8F08143462A4639462046BDE8F04100
:1046F000FFF788BF2DE9F843C468A24202D9002021
:10470000BDE8F88316468846074601784068D2B26D
:10471000FFF796FD8642F2D136B30023DFF85490BE
:104720001C4612E090F8383090F839209A4203F194
:10473000010E00EB03011AD980F838E0087E2870DA
:104740000134A4B2A64223460ED9786802685269A1
:104750004A4508EB0305E5D090470134A4B2C0B246
:10476000A64228702346F0D80120BDE8F883FF2038
:10477000E5E700BF6D3D00002DE9F041C568069FEB
:104780009DF81C60AA4202D90020BDE8F08190F893
:1047900000C0D0F804E04FF001084FEA4C0C1D4671
:1047A0008EF83BC033468EF85E808EF85D800446FE
:1047B000FFF728FF0028E7D043463A46294620461F
:1047C000BDE8F041FFF796BF10B504460121807B9C
:1047D00002F026F8A07B012102F01CF8206828B125
:1047E00000F02AFB012084F8280010BD0121E07BA5
:1047F00002F016F8617BE07B11F0FB0118BF01218C
:1048000002F008F894F91000421C07D0C0B2012150
:1048100002F006F80121207C01F0FCFF94F9110060
:10482000431CDFD0C0B2002101F0FAFF012084F860
:10483000280010BD2DE9F047046813460A4624B14C
:104840002046BDE8F04700F035BB057B0C78866854
:104850006249B1FBF6F1002D0CBF4FF001094FF09A
:10486000800919EA040F0CBF4FF0010C4FF0000C47
:10487000CDB2002B00F0AF804F0107F4FF57114677
:1048800002EB030811F801EB4B460026002D50D037
:10489000002F4ED03A46013AFDD1427B12F0F70F7D
:1048A00040F08D8090F91020013212D01EEA0302F0
:1048B00014BF0124002464450BD0002A6CD0446945
:1048C00090F8242094F800C04CEA020222704FF0C5
:1048D000010C846990F8262094F800A04AEA0202AC
:1048E00022701DB117B13A46013AFDD190F911205D
:1048F000013206D0C26990F825401278224218BFD2
:104900001E43826990F826A0147824EA0A041470E1
:1049100090F91120013201D001F8016C027B002ACC
:1049200035D15B00DBB2002BB0D18845AAD1BDE800
:10493000F087427B12F0F70FB4D0846990F82620FC
:1049400094F800A04AEA0202227090F91020013285
:104950000AD01EEA030F44692AD090F8242094F864
:1049600000A04AEA02022270846990F826A0227808
:1049700022EA0A02227090F911200132CED0C269D7
:1049800090F825401278224218BF1E43C4E75B0806
:10499000002B7FF47BAFC8E7D0F814A090F824C0B8
:1049A0009AF8004024EA0C048AF80040944690E704
:1049B00090F824A0227822EA0A022270D4E78469BF
:1049C00090F8262094F800A04AEA020222703A46A3
:1049D000013AFDD1B9E7BDE8F08700BF20A107008B
:1049E0002DE9F0430C4683B001680A9F06469046C5
:1049F0001D4681B14268CB7A1268002B4ED10B68FC
:104A0000D968914207D0394818603949DA6042F0D4
:104A10008040186119600021B07B01F0FBFE77B186
:104A200005EB07090DF1070715F8013B8DF8073075
:104A3000012239463046FFF7FDFEA945F4D1B8F111
:104A4000000F0ED004EB08050DF1070714F8013B29
:104A50008DF80730012239463046FFF7EBFEA542BC
:104A6000F4D10121B07B01F0D5FE336893B1DA7A3D
:104A700082B1D00703D51F4A99691160DA7A91078C
:104A800003D51D4AD9691160DA7A520702D51B4A4B
:104A90001B6A1360012003B0BDE8F08372B6CB7AC5
:104AA000D80709D5DFF858E0C868DEF800300340C1
:104AB0008B61CEF80030CB7A980709D5DFF844E057
:104AC0000869DEF800300340CB61CEF80030CB7AC5
:104AD0005B0708D5DFF830E04869DEF800300340B6
:104AE0000B62CEF8003062B689E700BF01403F009C
:104AF00000003F8000E100E004E100E008E100E0A8
:104B000080E100E084E100E088E100E02DE9F04789
:104B10000D4682B00168DDF828909DF82C8006468D
:104B200017461C4681B14268CB7A1268002B4FD1E0
:104B30000B68D968914207D0394818603949DA6062
:104B400042F08040186119600021B07B01F062FEE4
:104B500077B105EB070A0DF1070715F8013B8DF852
:104B60000730012239463046FFF764FEAA45F4D1EA
:104B7000B9F1000F0FD0A1440DF10707012239460A
:104B800030468DF80780FFF755FE9DF8073004F892
:104B9000013BA145F2D10121B07B01F03BFE33681E
:104BA00093B1DA7A82B1D00703D51F4A99691160AF
:104BB000DA7A910703D51D4AD9691160DA7A52076A
:104BC00002D51B4A1B6A1360012002B0BDE8F087C2
:104BD00072B6CB7AD80709D5DFF858E0C868DEF896
:104BE000003003408B61CEF80030CB7A980709D5AE
:104BF000DFF844E00869DEF800300340CB61CEF80E
:104C00000030CB7A5B0708D5DFF830E04869DEF882
:104C1000003003400B62CEF8003062B688E700BF78
:104C200001403F0000003F8000E100E004E100E0BF
:104C300008E100E080E100E084E100E088E100E0DC
:104C40002DE9F0410468E56815F0807F794D256015
:104C500052D1DF0740F1B380002900F0E3800D78E6
:104C6000012B18BF45F000456563013190F82480A1
:104C700003F1FF3C48EA0828BCF1000F00F0A880CF
:104C800021B14D7811F8028B45EA082845682E7A43
:104C9000BCF1020F06F1FF364FEA06360CBF48F0B2
:104CA000805548F01045B6B26563ACF1020C08E0DF
:104CB0000AB114700132013B05F47045B54216D9B2
:104CC0000468E56A15F0F00FF6D0A46B13F0010F3D
:104CD00017464FEA242EEBD11AB107F802EB5470B5
:104CE0003A4605F47045B542A3F10203E8D8BCF199
:104CF000000F6DD00468C3E7DD074CD5002900F034
:104D000089800D78012B18BF45F00045656301319E
:104D100003F1FF3E90F824C0BEF1000F41D029B14D
:104D200091F801C00D78023145EA0C2C45682E7AC5
:104D3000BEF1020F06F1FF364FEA06360CBF4CF00B
:104D400080554CF01045B6B26563AEF1020E08E036
:104D50000AB114700132013B05F47045B54215D912
:104D60000468E56A15F0F00FF6D013F0010F17464E
:104D7000A46BEDD122B107F8024B241254703A46CD
:104D800005F47045B542A3F10203E9D8BEF1000F66
:104D900007D00468C3E79E4690F824C0BEF1000F18
:104DA000BDD11BB30468E16A11F0F00FFBD0A16B19
:104DB000DC071DD50AB111700132013BF1E790F813
:104DC00024809C4648EA0828BCF1000F7FF458AFC5
:104DD00063B10468E16A11F0F00FFBD0DE07A16B4C
:104DE0000FD50AB111700132013BF1E7BDE8F08146
:104DF0002AB114460D1204F8021B55702246023BDC
:104E0000CFE72AB114460D1204F8025B5170224616
:104E1000023BDDE790F82450012B18BF45F0004518
:104E2000656375E790F82450012B18BF45F00045E5
:104E300065631BE700041F8090E80C00F0B41C6859
:104E400059682568164F174E29432160164D17499A
:104E50001760D66015611160417A154A5C180A31F5
:104E600094F8244053F8215002EBC40149680D60C6
:104E7000017A5C1803EB8101247ECD6902EBC40149
:104E800049680D60817A581803EB810390F830006F
:104E9000596B02EBC002F0BC53681960704700BF49
:104EA00001401F00011000380110007800001F8031
:104EB00090A900000BB1FFF7C3BE704700293CD09A
:104EC00030B50D6C83B0002D33D04B6C002B30D03F
:104ED0008B6C73B310F0800F4A7B14BF0023102338
:104EE0009A4223D00C464B7363680DF107010122EF
:104EF000F320A84784F84C0018B16FF0010003B00C
:104F000030BD9DF80720617B656C636801F010017E
:104F100022F010020A438DF807200DF1070101224B
:104F20007320A84784F84C000028E6D1002003B085
:104F300030BD4FF0FF3003B030BD4FF0FF30704751
:104F4000E0B130B5056C83B0A5B1436C93B1836C0F
:104F500083B10446436801220DF10701F320A847FD
:104F600084F84C0068B99DF8073003F010036373B0
:104F700003B030BD4FF0FF3003B030BD4FF0FF3015
:104F800070476FF00100F3E72DE9F04782461846BD
:104F90009146884603F050FE4FF0605103F0A0FEAA
:104FA00037499DF920709DF824609DF9285003F041
:104FB00097FE344903F08CFDBAF5C87F044650468D
:104FC00028BF4FF4C87003F033FE0146204603F0BB
:104FD00087FE4FF07E5103F07BFD0446484603F008
:104FE0002BFE4FF0765103F07BFE274903F070FD56
:104FF0000146204603F074FE0446384603F01CFECA
:105000004FF06A5103F06CFE0746404603F014FE71
:105010000146384603F064FE0146204603F058FD81
:105020000446304603F004FE4FF0814103F050FD8A
:1050300001464FF0814003F007FF0146204603F090
:105040004FFE0446284603F0F7FD104903F048FEE2
:105050004FF07E5103F03CFD01464FF07E5003F0CF
:10506000F3FE0146204603F03BFE094903F02EFD06
:10507000084903F035FE04F035F8C0B2BDE8F0870A
:105080006F12033A75021A3B000044426F12033B51
:105090000000C8419A9959402DE9F04F87B000258A
:1050A00002950195039504950595002B50D01C6C35
:1050B000002C4DD05C6C002C4AD09C6C002C47D04E
:1050C000002845D0002943D0541E092C46D81F463D
:1050D00092468B4680462C46A9460FE006AB03EB72
:1050E000440618F8053006F8143C0134A4B21BF845
:1050F000053006F8133CA245254612D93B7B002B10
:10510000ECD1394618F80500FFF7D8FE18F805303D
:1051100006AA02EB440603F07F03814606F8143C1E
:10512000E3E7B9F1000F0FD14FEA4A02013A7C6C74
:105130007B689DF804000DF10501A047002818BF09
:105140006FF0010987F84C00484607B0BDE8F08FC2
:105150004FF0FF39484607B0BDE8F08F6FF0030904
:10516000F2E700BF2DE9F04182B0D3B11E6C1C46BE
:10517000BEB15B6CABB1A36C9BB10F4689B1237B15
:105180008046A3B10025394640466368B0470028F1
:1051900018BF6FF0010584F84C00284602B0BDE846
:1051A000F0814FF0FF35284602B0BDE8F08121467E
:1051B0000192FFF783FE019A054608B948F080087E
:1051C000266CE0E730B583B0E022B6238DF80620E8
:1051D0008DF80730E0B1026CD2B1426CC2B1826C82
:1051E000B2B1037B0446C3B123460DF1070101228E
:1051F0000DF10600FFF750FFA36C6168054642F20F
:10520000107098470DB9237B7BB1284603B030BDA1
:105210004FF0FF35284603B030BDFFF791FE05463D
:105220000028E1D0284603B030BD2046FFF788FEB5
:105230000546EAE7F0B58DB00446FFF7C3FF024626
:1052400010B110460DB0F0BD012223462146D020FA
:10525000FFF788FF02460028F3D12378612B40F046
:10526000B4800CAD012205F82C0D23462946F02010
:10527000FFF778FF02460028E3D19DF80430A360D1
:105280001722294623468A20FFF76CFF0246002892
:10529000D7D10E2223460DF11B01E120FFF762FF5B
:1052A00002460028CDD1052223460DF12901FFF742
:1052B00059FF02460028C4D19DF824E09DF8230040
:1052C0009DF804309DF808509DF805109DF8097070
:1052D0009DF80BC09DF80A6040EA0E2043EA0121C8
:1052E00045EA07279DF80FE09DF810309DF80E5015
:1052F000E0839DF81100218445EA0E2543EA002051
:105300009DF817E09DF81610A7849DF818309DF8B9
:105310001970658546EA0C2641EA0E2143EA072307
:105320009DF813509DF80670E684A0859DF80C60EA
:105330009DF81200638684F8227084F8286084F84F
:105340002E5084F82F0021869DF81A109DF81C30ED
:105350009DF81D6084F8341003F00F0141EA061631
:105360009DF81BE09DF826709DF825509DF82B00B8
:105370009DF92D1026821B0943EA0E1345EA0725E5
:10538000C0F3011009119DF81EC09DF81FE0638253
:105390009DF8207065839DF8216084F83C009DF89D
:1053A000225084F83E109DF827009DF828109DF8A3
:1053B000293084F814C084F815E0A775E6752576C1
:1053C0006076217784F83D303BE76FF0020238E7E2
:1053D00070B582B0742306460D468DF807302B4613
:1053E00001220DF106017420FFF7BCFE044610B146
:1053F000204602B070BD9DF806309A0714D1002EE9
:10540000F6D023F0030306F003061E430DF1060158
:105410002B4601220DF107008DF80660FFF73CFED8
:105420000446204602B070BD23F003040DF10601CE
:105430002B4601220DF107008DF80640FFF72CFEE8
:10544000AB6C6968044642F210709847002CC6D0D5
:10545000CEE700BFF0B57C4B87B0054618681B79D6
:10546000029000268DF80C300C460B4601220DF1FF
:10547000070174208DF814600496FFF773FE9DF801
:10548000076038B1002D034608BF4FF0FF331846C0
:1054900007B0F0BD2146FFF79BFF03460746002DEE
:1054A00000F08B800028F2D12346052204A99DF844
:1054B0000800FFF757FE84F84D7003460028E6D138
:1054C000236C002B79D0636C002B76D0A26C002A61
:1054D00073D0EA78072A75D8002B6ED0A26C002A08
:1054E0006BD06A78052A7AD8002B66D0A26C002A85
:1054F00063D0AA78052A7FD8002B5ED0A26C002A40
:105500005BD02A78052A00F28480002B55D0A36C4A
:10551000002B52D02F79082F00F288809DF813209D
:105520006878A978EB7895F800E09DF811C002F052
:105530001F0242EA40109DF814209B00890001F0F0
:105540001C0103F01C0520F01C0022F01C030EF0CF
:10555000070E2CF0070C40EA01022B434CEA0E0127
:10556000082F8DF813205BB28DF8111068D07D01E3
:105570006DB200279DF8102003F01F0302F07F0298
:105580001D431743234604A902A805228DF8145091
:105590008DF81070FFF780FD06F003060346002E1D
:1055A0003FF475AF00287FF472AF21463046FFF715
:1055B0000FFF0346184607B0F0BD4FF0FF33184603
:1055C00007B0F0BD0723EB7094F84D30226C43F028
:1055D000010384F84D30002AEFD0636C7CE705238B
:1055E0006B7094F84D30226C43F0010384F84D3019
:1055F000002AE2D0636C77E70523AB7094F84D3056
:10560000226C43F0010384F84D30002AD5D0636C3E
:1056100072E705232B7094F84D30226C43F00103A0
:1056200084F84D30002AC8D0636C6EE708232B71D4
:1056300094F84D3043F0010384F84D302F796DE735
:105640006FF07F07002595E74CA900002DE9F04F8A
:10565000914B9DB01B88ADF83C30002900F01981BA
:1056600004910646114600201546FFF7B1FE044698
:1056700018B120461DB0BDE8F08F0DF14C0A0DF1B8
:1056800058090DF164086E23022E109013901690A5
:1056900019901190ADF84800CAF80400AAF8080063
:1056A000C9F80400A9F80800C8F80400A8F8080020
:1056B0008DF83B3000F0C580032E03D0012E57D06B
:1056C0000124D6E70499CF68002F00F0E2808B68B0
:1056D000002B00F0DE800A7C0592002A00F0D080CA
:1056E00095F90E20069295F919200792B5F91A201E
:1056F000089295F91C20099295F83C200A9295F998
:105700003D200B95A3F1020B023F0646154608E02B
:10571000FF2308F804300134059BE6B29E4280F076
:10572000218110AA06F15A0313550A9B3BF8020F78
:105730000193099B0295009306A90EC9FFF724FC6B
:1057400064360AF8040009F8046037F8023FB3F53C
:105750007C6FDDD23F2B4FF0000206D99B0801324F
:105760003F2BD2B2FAD89201D2B21344DBB2D0E7C7
:10577000049895F93D60B5F91A3095F9192095F915
:105780000E10408895F83C70029695F91C608DE8E3
:10579000C0005A268DF84060FFF7F6FB049B8DF899
:1057A0004C009B886422B3F57C6F8DF85820C0F0C4
:1057B000DE80FF238DF864300023012605935146D7
:1057C00010A82B463246FFF767FC044600287FF4FA
:1057D00050AF324648462B464146FFF75DFC044633
:1057E00000287FF446AF2B46022241467020FFF787
:1057F000B9FC044600287FF43CAF049B1B78012BC6
:1058000040D008279DF86500059B9DF8642003F0B3
:105810000F0300F0C000184322F0080244EA00061B
:105820002B46414647EA02050FA802228DF8656023
:105830008DF86450FFF730FC044620461DB0BDE8EB
:10584000F08F0498C36823B3826812B3418A0B9126
:1058500021B3017C059139BB0B9A40F282739A42C5
:1058600060D9FF238DF83A302B4601220DF13A0121
:105870000DF13B00FFF710FC044600287FF4F9AE61
:10588000059E9CE7AB68012B074614BF102420241B
:10589000B8E74FF0FF34ECE65CA900000499097CFE
:1058A0000591032400296ED095F90E10069195F903
:1058B00019100791B5F91A10089195F91C10099162
:1058C00095F83C100A9195F93D100C940026023A87
:1058D0000D95A3F1020B374614460D4610AA07F1A9
:1058E0005A0393550A9B34F8020F0193099B0295C2
:1058F000009306A90EC9FFF747FB643709F8067045
:105900000AF806003BF8023F08F806300136059B0E
:10591000F7B29F42E2D30B9A0C9C0D9D40F282732A
:105920009A4222D80B99194B4FF47A7202FB01F27A
:10593000A3FB0213D21A03EB52031B0A3F2B9AB2AA
:105940004FF0000306D9920801333F2ADBB2FAD8A0
:105950009B01DBB21344DBB28DF83A30002C7FF4AC
:1059600088AE81E70B9D1E4629E7FF23F4E73F2B16
:1059700006D99B0801343F2BE4B2FAD8A401E4B263
:105980002344DBB216E70A460B46E3E79FB8C8128A
:10599000400101D00138FDD102F0F8BE70B584B0ED
:1059A00004AC1E4604F8010D01252346304600953F
:1059B000FFF716F86840404240B204B070BD00BF27
:1059C00030B585B004AC60F07F0004F8010D00250F
:1059D0000092184601950B4601222146FFF796F8E2
:1059E00080F00100404240B205B030BD30B585B016
:1059F00004AC1D4604F8010D0123009428460193D0
:105A0000FEF74AFE80F00100404240B205B030BDD2
:105A100070B584B004AC012504F8010D1E46009257
:105A20000B463046214601952A46FEF7A5FE684002
:105A3000404240B204B070BD002281610261426107
:105A400002628284704700BFF8B50446406916467A
:105A500048B3FEF7B9FE002839D0002360693D49FC
:105A60003D4A84F8283084F83430E062A166E2666A
:105A700019223A4B84F8362004F12805236728467A
:105A8000FFF7D8FB18BB26BB21462A4601F8806FDA
:105A90000120FFF7DBFD29460120FFF799FCB0FA52
:105AA00080F04009F8BD20690D4610B1102102F0C8
:105AB00055FE102002F050FE29460746A269FEF767
:105AC000B5FD276138460121FEF7D6FDA8BB0020B1
:105AD000F8BD04F178060227294684F87B70304629
