:1000000000800020BD010000153B0000CD3A00003B
:10001000CD3A0000CD3A0000CD3A0000CD3A0000C4
:10002000CD3A0000CD3A0000CD3A0000153B00006B
:10003000153B0000CD3A0000455200004952000037
:10004000153B0000153B0000153B0000153B000070
:10005000153B0000153B0000153B0000153B000060
:10006000153B0000153B0000153B0000153B000050
:10007000153B0000153B0000153B0000153B000040
:10008000153B0000153B0000153B0000153B000030
:10009000153B0000153B0000153B0000153B000020
:1000A000FD14000009150000153B0000153B000081
:1000B000153B0000153B0000153B0000153B000000
:1000C000153B0000153B0000153B0000153B0000F0
:1000D000153B0000153B0000153B0000153B0000E0
:1000E000153B0000153B0000153B0000153B0000D0
:1000F000153B0000153B0000153B0000153B0000C0
:10010000153B0000153B0000153B0000153B0000AF
:10011000153B0000153B0000153B0000153B00009F
:10012000153B0000153B0000153B0000153B00008F
:10013000153B0000153B0000153B0000153B00007F
:10014000153B0000153B0000153B0000153B00006F
:10015000153B0000153B0000153B0000153B00005F
:10016000153B00001D430000153B0000153B00003F
:10017000153B0000153B0000153B0000153B00003F
:10018000153B0000153B0000153B0000153B00002F
:10019000153B0000153B0000153B0000153B00001F
:1001A000153B0000153B0000153B0000153B00000F
:1001B000153B0000153B0000153B0000564B4CF270
:1001C000205210B51A804DF628121A8000BF00BFC9
:1001D00003F0A4FC514B4FF010621A60504A9A6031
:1001E000504ADA60504A136813F4807304D14F49BF
:1001F0000B604FF4A85313604D4B1A78110703D5C9
:100200001A7842F008021A704A4B4B492A221A7097
:100210004A4A4B4B8B4204D252F8040F43F8040B6A
:10022000F8E7484B484900228B4202D243F8042B9E
:10023000FAE74649464A002352F8230041F82300D2
:1002400001336F2BF8D1434B434A802103F8011B44
:100250009342FBD1414B3D4A1A60414B8A221A70AE
:10026000A3F5805324225A70A0221A709A7992071B
:10027000FCD59A79D406FCD43A4A937903F00C035E
:10028000082B384BF9D103221A7140225A719A79FE
:100290009006FCD5334A9179324B4906FBD5324A58
:1002A000324911600221516020221A709A7902F0BD
:1002B0000C020C2AFAD12E4B2E4A1A602E4B2F4AD2
:1002C0001A6000225A60072243F8042C2C4AC3F813
:1002D0000C2D62B603F0D8FE144B1B68DA0705D567
:1002E000284803F059FD284B284A1A60284B1B78F0
:1002F0005B0609D5244C254B22689A4204D121483B
:1003000003F04AFD0023236007F048FC03F00CFCD7
:1003100005F0D2F8FEE700BF0E2005403080044013
:10032000823F04000100002B10D0034014D0034092
:1003300002D0074000E00740CC92FF1F188D00005C
:100340002087FF1FCC92FF1F5495FF1F0082FF1FC5
:100350000000000000E400E05FE400E008ED00E0E1
:100360000050064000400640448004400000030165
:1003700004800440C010050014E000E0FF76010096
:1003800000002020224A3E601CE00340A5C3945A8E
:1003900000F00740FFFFFFFFFFFFFFFFFFFFFFFF32
:1003A000FFFFFFFFFFFFFFFFFFFFFFFFFFFFFFFF5D
:1003B000FFFFFFFFFFFFFFFFFFFFFFFFFFFFFFFF4D
:1003C000FFFFFFFFFFFFFFFFFFFFFFFFFFFFFFFF3D
:1003D000FFFFFFFFFFFFFFFFFFFFFFFFFFFFFFFF2D
:1003E000FFFFFFFFFFFFFFFFFFFFFFFFFFFFFFFF1D
:1003F000FFFFFFFFFFFFFFFFFFFFFFFFFFFFFFFF0D
:10040000FFFFFFFFFFFFFFFFFFFFFFFFDEF9FFFF23
:1004100010B5054C237833B9044B13B10448AFF33E
:1004200000800123237010BDCC92FF1F000000004C
:10043000148D0000084B10B51BB108490848AFF3F4
:1004400000800848036803B910BD074B002BFBD0A0
:10045000BDE81040184700BF00000000D092FF1F09
:10046000148D0000CC92FF1F00000000704700BFF9
:10047000704700BF08B5114803F0EEF990B11321A1
:100480000F4804F0B9FD0F4804F0E6FE10210B48B8
:1004900003F0AAF90221094803F064FA0A4B00228A
:1004A0001A6008BD1B21094804F0A6FD054804F0A8
:1004B000D3FE054B6FF001021A6008BDF492FF1FD6
:1004C00020860000D889FF1F0088FF1F04860000D7
:1004D00008B501227721184802F0F2FD00B312217D
:1004E000164804F089FD164804F0B6FE04211248AF
:1004F00002F026FF0221104802F030FF03210E48CF
:1005000002F03AFF02210C4802F044FF96224FF419
:10051000A071094802F0FCFE0A4B00221A6008BDD7
:100520001B21094804F068FD054804F095FE054BC1
:100530006FF001021A6008BD1493FF1F508600007F
:10054000D889FF1F0888FF1F3486000008B50122E4
:100550000D490E4802F08CFF50B111210C4804F0F7
:100560004BFD0C4804F078FE0B4B00221A6008BDCE
:100570001A210A4804F040FD064804F06DFE064BBF
:100580006FF001021A6008BD1488FF1F9893FF1FC7
:1005900080860000D889FF1F0488FF1F6486000042
:1005A00008B5054A054B12881988054803F06EF80E
:1005B00007F004F908BD00BF0C93FF1F0E93FF1F47
:1005C000F492FF1F014B1888704700BF0C93FF1F68
:1005D000014B1888704700BF0E93FF1F034A044B5E
:1005E00010881B88181A80B2704700BF0C93FF1F39
:1005F0000E93FF1F014B1868704700BFE892FF1F62
:10060000014B1868704700BFB493FF1F014B186877
:10061000704700BFF092FF1F014B1868704700BF82
:10062000EC92FF1F014B1868704700BFB893FF1F83
:10063000014B1868704700BFB093FF1F014B18684B
:10064000704700BF9493FF1F08B50121032003F0FA
:10065000C7FCFFF73DFFFFF779FFBDE80840FFF754
:1006600009BF00BF08B50121032003F0A5FC044821
:100670000449054A002303600B60136008BD00BFF6
:100680000488FF1F0088FF1F0888FF1F2DE9F8431B
:100690003F4C2368002B52D13E4D3F4F3F4E2846E2
:1006A00002F002FE3E4B2A681A60686806F0DEFE21
:1006B0003C4906F0E7FF3C4BAA681A603860E868DE
:1006C00006F0D4FE394906F0DDFF3949306028468E
:1006D00002F0EEFD374B1860374B1B68002B3DD105
:1006E000364DDFF80491DFF80481354F354E28464A
:1006F00002F016FF288806F0B9FEC9F800006888E5
:1007000006F0B4FEC8F80000284602F025FFA888CD
:1007100006F0ACFE3860E88806F0A8FE2A4B306090
:100720001B6853B32821294804F066FC2168284837
:1007300004F0E2FD2648BDE8F84304F08DBD282111
:10074000244804F059FC2168214804F0D5FD2048D4
:1007500004F082FD184B1B68002BC1D028211E48D5
:1007600004F04AFC21681A4804F0C6FD184804F059
:1007700073FD154B1B68002BD4D1184803F094F877
:10078000174A184B1080000C1880BDE8F88300BF92
:100790000888FF1F1493FF1FE892FF1F1093FF1F8D
:1007A000B493FF1F0000C842F092FF1F00007A447C
:1007B00000507D44AC93FF1F0488FF1F9893FF1FD8
:1007C000B093FF1F9493FF1F0088FF1FEC8600006B
:1007D000D889FF1F94860000C0860000F492FF1F96
:1007E0000E93FF1F0C93FF1FEC92FF1FB893FF1F88
:1007F00010B51821044604F069FE204610BD00BF64
:1008000010B50A490A4C0B4802F03CFC0A4802F0B9
:10081000CFFD204640F61F2102F02AFF2046074A5E
:100820000749BDE8104006F08DB800BF1488FF1FCF
:10083000F492FF1F1493FF1F9893FF1FFC87FF1F65
:100840007104000010B54FF47A70154C03F0CEFB24
:100850002721144804F0D0FB204604F0FDFC1821A9
:10086000114804F0C9FB204604F0F6FC00F042FAFF
:1008700000F0F2F900F0B6FAFFF7E6FE01210D20D4
:1008800003F0AEFB01210D2003F096FB0F2107487A
:1008900004F0B2FB2046BDE8104004F0DDBC00BF10
:1008A000D889FF1F18870000408700005C87000080
:1008B0002DE9F041D14CD24FD248D34EDFF894838A
:1008C00082B0172104F098FB204604F0C5FC0D21EE
:1008D000384604F091FB00F0E9F9306006F09CF92D
:1008E000022502460B460095204604F00DFD03212B
:1008F000404604F081FB204604F0AEFC3F21C34893
:1009000004F07AFB204604F0A7FC012000F022FA54
:10091000642003F06BFB0D21384604F06DFB00F002
:10092000C5F9306006F078F9009502460B4620467E
:1009300004F0EAFC0321404604F05EFB204604F08C
:100940008BFC41F2883003F051FB3821B04804F0B1
:1009500053FB204604F080FC002000F0FBF96420EB
:1009600003F044FB0D21384604F046FB00F09EF9ED
:10097000306006F051F9009502460B46204604F01F
:10098000C3FC0321404604F037FB204604F064FC1E
:1009900041F2883003F02AFB34219E4804F02CFBFE
:1009A000204604F059FC00F021FA642003F01EFBFD
:1009B0000D21384604F020FB00F078F9306006F095
:1009C0002BF9009502460B46204604F09DFC0321BE
:1009D000404604F011FB204604F03EFC41F2883012
:1009E00003F004FB33218C4804F006FB204604F09E
:1009F00033FC00F0FFF9642003F0F8FA0D213846CB
:100A000004F0FAFA00F052F9306006F005F90095AA
:100A100002460B46204604F077FC0321404604F0D2
:100A2000EBFA204604F018FC41F2883003F0DEFABD
:100A30001E217A4804F0E0FA204604F00DFCFFF78E
:100A400011FE642003F0D2FA0D21384604F0D4FAE6
:100A500000F02CF9306006F0DFF8009502460B46F6
:100A6000204604F051FC05216D4804F0C5FA2046EB
:100A700004F0F2FBFFF70AFE10216A4804F0BCFA0A
:100A8000204604F0E9FB0D21674804F0B5FAFFF7B2
:100A900087FD002305220146204604F0EDFB204699
:100AA00004F0DAFB0D21614804F0A6FAFFF78AFD95
:100AB000002305220146204604F0DEFB204604F018
:100AC000CBFB0D215A4804F097FAFFF781FD002374
:100AD00005220146204604F0CFFB204604F0BCFB73
:100AE0000D21544804F088FAFFF778FD0023052211
:100AF0000146204604F0C0FB204604F0ADFB0D216A
:100B00004D4804F079FAFFF775FD06F085F80525E4
:100B100002460B460095204604F0F6FB204604F002
:100B20009BFB0D21454804F067FAFFF769FD06F0CD
:100B300073F8009502460B46204604F0E5FB20467C
:100B400004F08AFB0D213E4804F056FAFFF75EFDE3
:100B500006F062F8009502460B46204604F0D4FBEE
:100B6000204604F079FB0D21364804F045FAFFF7E2
:100B700053FD06F051F8009502460B46204604F05E
:100B8000C3FB204604F068FB0D212F4804F034FA23
:100B9000FFF748FD06F040F8009502460B46204658
:100BA00004F0B2FB204604F057FB0D21274804F067
:100BB00023FAFFF73DFD06F02FF8009502460B469D
:100BC000204604F0A1FB204604F046FB0D212048FE
:100BD00004F012FAFFF732FD06F01EF80095024607
:100BE0000B46204604F090FB204604F035FB41F212
:100BF000883002B0BDE8F04103F0F8B9D889FF1F92
:100C0000848700006C870000BC93FF1F988700005A
:100C1000D8870000148800004C88000080880000FD
:100C2000A0880000A8880000BC880000CC880000D4
:100C3000DC880000EC880000FC8800000C890000C3
:100C40001C8900002C8900003C8900004C890000B0
:100C50005C8900009487000008B50E490E4800F03A
:100C6000C3FC50B12C210D4804F0C6F90C4804F027
:100C7000F3FA0C4B00221A6008BD1A210A4804F04E
:100C8000BBF9074804F0E8FA064B6FF001021A605E
:100C900008BD00BF1488FF1FC093FF1F8889000094
:100CA000D889FF1F0C88FF1F6C890000044B1B684C
:100CB000002B02DB034800F063BC0348704700BF11
:100CC0000C88FF1FC093FF1F804FC3C710B5064C91
:100CD0004021204600F01EFC2046044A0449BDE89D
:100CE000104005F02FBE00BFC093FF1FFC87FF1F01
:100CF0002915000008B501210D2003F071F901212B
:100D0000172003F06DF90121162003F069F9012184
:100D1000152003F065F90121142003F061F9012188
:100D2000042003F05DF90121042003F045F9064B8E
:100D3000064800221F211A6004F05EF90448BDE84D
:100D4000084004F089BA00BF1088FF1FB88900006E
:100D5000D889FF1F204B1B68002B21DB10B50446F0
:100D600006D045211D4804F047F91D4804F074FAE7
:100D7000012C26D001344FF000014FF0170010D0A5
:100D800003F01CF80021162003F018F800211520AC
:100D900003F014F800211420BDE8104003F00EB851
:100DA000704703F00BF8FF21162003F007F800212D
:100DB000152003F003F8FF211420BDE8104002F0D5
:100DC000FDBFFF21172002F0F9FF0021162002F0DD
:100DD000F5FFFF21DBE700BF1088FF1FD889000067
:100DE000D889FF1F0121022003F0FAB80121022057
:100DF00003F0E2B80021022003F0DEB800207047C3
:100E000090F8392090F83800101A704790F8383070
:100E100090F839209A4205D95A1C034480F83820AA
:100E2000187E70474FF0FF30704700BF90F83830A1
:100E300090F839209A4286BF1B18187E4FF0FF3079
:100E4000704700BF704700BF38B50546B0F85E0078
:100E500090B195F85D301446C3F1210294420CD84C
:100E600005F13B001844224602F096FD95F85D30EE
:100E7000234485F85D30204638BD01201446287192
:100E8000EEE700BFB0F85E306BB190F85D30202B1C
:100E900007D8C218013380F85D30012082F83B107A
:100EA0007047012303710020704700BF002342698F
:100EB00080F8383080F8393080F85C3080F85D3068
:100EC00080F85E3080F85F3006CA30B40D6804697F
:100ED00043662A4383660A60A370426990F86130D2
:100EE0001649146813441D7A5B7B01EBC5051B0290
:100EF0006D6803F4E06343F064032B6090F86230A4
:100F000013449D7CDB7D01EBC5011B02496803F4A2
:100F1000E06343F064030B6021685368194205D015
:100F2000036927225A70036904229A7103692022F7
:100F30005A71036980229A7030BC70473C8B000064
:100F400010B50269D378DBB2D90604463DD510212D
:100F50005806D17038D503F0040303F0FF02002BCC
:100F600051D03D49626E00230B7084F85D30002A39
:100F70005BD0904794F85D30002B56D02369D02287
:100F80009A70236994F83B201A712369012284F82E
:100F90005C200222DA7010BD304B84F860009C4265
:100FA0004AD02F4B9C4252D094F8391013791F2904
:100FB000DBB207D82848007820B16018013184F8E6
:100FC000391003760223D37010BD5906C3D491782B
:100FD00001F0100101F0FF000029DDD013F0010342
:100FE0001ED194F85C1094F85D00884281BF4B1CC0
:100FF000091984F85C3091F83B3013712369D022D1
:101000009A702269DEE7236984F83920C0229A7039
:101010002369114A1979012111700222DA7010BD79
:10102000C023937022691379CCE70122002384F84E
:101030005D2084F83B30A1E7626994F8613009498A
:1010400013440322187A02F0E7FD2269ACE76269D3
:1010500094F861300449F3E7D493FF1F1488FF1F0D
:101060008088FF1FC9100000D51000000369DB78DD
:1010700003F0200373B190F860300133DBB2012B31
:1010800080F860301AD9426990F861301344187AB8
:1010900002F03EBE70B5426903F0FF0590F8613082
:1010A00013440446187A02F033FEA36E5BB184F851
:1010B000385094F83900BDE87040184790F85F3018
:1010C000002BE0D0704770BD0148FFF7CFBF00BFD5
:1010D0001488FF1F0148FFF7C9BF00BF8088FF1FAA
:1010E0002DE9F047374FDFF8E0903B68026982B0A6
:1010F00006460093DDF800800021A025D3789B06EA
:101100005BD53B680193019BC8EB03030F2BF5D91B
:1011100049B1102BF2D000209070336980229A7070
:1011200002B0BDE8F087726996F86130134405217A
:10113000187A02F055FF726996F861301344012164
:1011400093F812A0504602F04BFF092400215046AC
:1011500002F032FF2B46013BFDD10121504602F047
:101160002BFF2B46013BFDD1013CEFD1706996F876
:10117000611001444FF4A0720C7A4B7B09EBC4015F
:101180001B02496803F4E06343F064030B6096F8C4
:1011900062300344997CDB7D09EBC1011B02496885
:1011A00003F4E06343F064030B60013AFDD132695C
:1011B000D3789B064FF00101A3D4012002B0BDE813
:1011C000F08700BFE493FF1F3C8B0000F0B503697C
:1011D0001222DA700269937803F0200385B0044686
:1011E0000D46002B5ED0B42393703C4922690B68F6
:1011F0000093009E05E00B680193019B9B1B042B51
:1012000042D8D37803F0200303F0FF00002BF2D084
:1012100094F85D30002B31D04FF0000E4FF0020CEF
:1012200004EB0E0393F83B3013710B680393039F99
:10123000206907E09B060DD50B680293029BDB1B20
:10124000052B28D8C378DBB203F0020202F0FF06B8
:10125000002AEFD080F803C02669F378DBB2DF06FE
:1012600032462DD49F062BD5DB0731D40EF1010E6B
:1012700094F85D305FFA8EFE7345D1D800201DBB17
:10128000002384F85E3004E09070236980229A7015
:10129000042005B0F0BD86702369802204209A7076
:1012A00005B0F0BD03F0FF06FFF71AFF10B90420E8
:1012B00005B0F0BD236984F85F60B0229A7094E7AE
:1012C0008023B3700420DAE726698023B370D7E760
:1012D000BEF1000F0CBF02200320F6E7E493FF1FCE
:1012E0002DE9F04106690025122780F8385080F872
:1012F0003950F770D0F810C09CF802E00EF0200EC4
:1013000088B00446884615461E46BEF1000F49D0F7
:10131000B4238CF80230784B21691A680092DDF80A
:1013200000E006E01A6801920198CEEB0000042864
:1013300030D8C87800F0200000F0FF070028F1D076
:101340004FEA480242F00102D2B20A711A680292D0
:10135000DDF808E0206906E01A6803920399CEEBF5
:10136000010105292AD8C17801F0020101F0FF0727
:101370000029F1D04FF0020C80F803C02269D17827
:1013800011F0110722D12DBB002E0CBFA02380230A
:10139000937003E08F70236980229A70384608B0FA
:1013A000BDE8F0810EF0FF07FFF79AFE0028F5D0A8
:1013B000236984F85F70B0229A70ACE78770236964
:1013C000802238469A7008B0BDE8F081802393707F
:1013D0000027E3E7012D75D0A021917021690A79DA
:1013E000BE4667464FF0A80C1A680492049805E0C0
:1013F0001A680592059A121A052A4AD8CA7802F084
:10140000020202F0FF08002AF2D0CF702169CA78E8
:10141000D2B212F0100F08465AD1920658D5013DAB
:10142000EDB2012D49D0BEF11F0F3BD90A79012D34
:10143000DAD11A680692069D05E01A680792079AA3
:10144000521B052A46D8C27802F0020202F0FF01C0
:10145000002AF2D00223C3702269D378DBB2D90606
:101460003AD49B0634D5B023BEF11F0F93703FD8FA
:10147000226904EB0E0312791A760EF1010E5FFA5F
:101480008EFE16B1236980229A7084F839E077467F
:1014900084E781F80280236980229A70774684F875
:1014A00039E07BE704EB0E0291F8048082F81880A3
:1014B0000EF1010E5FFA8EFEB9E781F802C02169D4
:1014C0000846B0E7A82191702069BE460279B0E7CE
:1014D000774663E78170DEE71021A023D170013BDE
:1014E000FDD12269937803F0F7037746937055E7AF
:1014F00023691B79C5E700BFE493FF1F0148FFF78D
:101500001FBD00BF1488FF1F0148FFF719BD00BFB2
:101510008088FF1F10B40024002204614171026022
:10152000C26010BC704700BF10B5102104460068AF
:1015300003F0CCFF204610BD30B591B00446012524
:1015400001680195022304A80095052200F06AF8BD
:10155000A16804A8022200F0B1F8216801950223D5
:10156000032200950AA800F05DF80AA80DF10E010B
:1015700000F002F92071BDF90E0011B030BD00BFBE
:1015800010B50446FFF7D8FF05F074FF216905F098
:10159000C5FF10BD30B54FF480528FB00446826055
:1015A00001254FF080430A220168C26003610522D1
:1015B000022302A80195009500F034F8A16802A862
:1015C000022200F07BF8216801950223009508A80B
:1015D000002200F027F808A8022243F69F1100F02D
:1015E0006DF820710FB030BD30B50546006883B08E
:1015F00050B1012100F014F9044610B12846FFF75C
:10160000C9FF204603B030BD1020019103F05CFFFC
:10161000019904460A46697900F0DCF82C602046FE
:10162000E7E700BF70B49DF810609DF80C500160B2
:10163000002146738573428103734161416070BC30
:10164000704700BFF0B54389056885B0DCB21B1256
:101650008DF80C408DF80D304DB1437B019303ABF9
:1016600000932846012300F0EBF805B0F0BD436875
:101670000BB31746027A0E466AB904F07F048DF860
:101680000C40427B009231463A46184603AB00F0CC
:1016900045FA05B0F0BD022A04D164F07F048DF84C
:1016A0000C40EEE7012AECD104F07F0444F0400442
:1016B0008DF80C40E5E71846D7E700BF02B9027B7A
:1016C000042A1AD8F0B4416100F10F077AB102F18F
:1016D0000E03867B3C46034400F10E055EB9217083
:1016E000013BAB424FEA112104F10104F6D1394626
:1016F000F0BCFFF7A7BF1970F2E70020704700BFEA
:1017000070B54489066884B0E5B224128DF80C5097
:101710008DF80D405EB1437B009200241A4630469E
:101720000B46019403A900F0FBF804B070BD4468B7
:10173000FCB1037A7BB965F07F058DF80C50437BD3
:101740000092FF251A4620460B46019503A900F09A
:101750007BFA04B070BD022B04D105F07F058DF833
:101760000C50ECE7012B04BF65F03F058DF80C50E1
:10177000E5E72046D9E700BF38B502220D4600F163
:101780000F010446FFF7BCFF38B1A37B33B1E37B05
:101790001B022B80227C13432B8038BD237C1B0231
:1017A0002B80E27B13432B8038BD00BF70B504460D
:1017B00040681E4603685B6815469847854201D01D
:1017C000002070BD31466068FFF700FDB0FA80F080
:1017D000400970BD30B4002520240572C46001703A
:1017E000426030BC704700BF037A10B5044683B135
:1017F000227863680121520083F83B2083F85E1051
:1018000083F85D106068FFF7E1FCB0FA80F04009F2
:1018100010BD012100F004F80028E9D110BD00BF7F
:1018200038B5044640680D46FFF740FB01202072A2
:1018300005B938BD2046BDE83840FFF7D5BF00BF29
:101840002DE9F041079EC468DDF818E09519A5421E
:1018500019D815460278984643680F465200012170
:10186000044683F83B2083F85E1083F85D106EB168
:10187000BEF1000F0AD04068036871465B683246CB
:101880009847864202D00020BDE8F08143462A46B0
:1018900039462046BDE8F041FFF788BF2DE9F843FF
:1018A000C468A24202D90020BDE8F88316468846E3
:1018B000074601784068D2B2FFF712FD8642F2D1A6
:1018C00036B30023DFF854901C4612E090F838300D
:1018D00090F839209A4203F1010E00EB03011AD966
:1018E00080F838E0087E28700134A4B2A64223466E
:1018F0000ED97868026852694A4508EB0305E5D0BD
:1019000090470134A4B2C0B2A64228702346F0D852
:101910000120BDE8F883FF20E5E700BF0D0E0000C1
:101920002DE9F041C568069F9DF81C60AA4202D9C6
:101930000020BDE8F08190F800C0D0F804E04FF03E
:1019400001084FEA4C0C1D468EF83BC033468EF81A
:101950005E808EF85D800446FFF728FF0028E7D000
:1019600043463A4629462046BDE8F041FFF796BF78
:101970002DE9F047046813460A4624B12046BDE825
:10198000F04700F035BB057B0C7886686249B1FBF7
:10199000F6F1002D0CBF4FF001094FF0800919EA54
:1019A000040F0CBF4FF0010C4FF0000CCDB2002B18
:1019B00000F0AF804F0107F4FF57114602EB030818
:1019C00011F801EB4B460026002D50D0002F4ED0D1
:1019D0003A46013AFDD1427B12F0F70F40F08D807C
:1019E00090F91020013212D01EEA030214BF012424
:1019F000002464450BD0002A6CD0446990F8242060
:101A000094F800C04CEA020222704FF0010C846985
:101A100090F8262094F800A04AEA020222701DB134
:101A200017B13A46013AFDD190F91120013206D0A2
:101A3000C26990F825401278224218BF1E4382697D
:101A400090F826A0147824EA0A04147090F9112062
:101A5000013201D001F8016C027B002A35D15B0014
:101A6000DBB2002BB0D18845AAD1BDE8F087427B1C
:101A700012F0F70FB4D0846990F8262094F800A0F3
:101A80004AEA0202227090F9102001320AD01EEABE
:101A9000030F44692AD090F8242094F800A04AEA61
:101AA00002022270846990F826A0227822EA0A02B3
:101AB000227090F911200132CED0C26990F82540F1
:101AC0001278224218BF1E43C4E75B08002B7FF444
:101AD0007BAFC8E7D0F814A090F824C09AF8004073
:101AE00024EA0C048AF80040944690E790F824A079
:101AF000227822EA0A022270D4E7846990F826202C
:101B000094F800A04AEA020222703A46013AFDD156
:101B1000B9E7BDE8F08700BF20A107002DE9F04339
:101B20000C4683B001680A9F064690461D4681B167
:101B30004268CB7A1268002B4ED10B68D96891426B
:101B400007D0394818603949DA6042F0804018619E
:101B500019600021B07B02F02FFA77B105EB07097D
:101B60000DF1070715F8013B8DF8073001223946C2
:101B70003046FFF7FDFEA945F4D1B8F1000F0ED0B5
:101B800004EB08050DF1070714F8013B8DF8073049
:101B9000012239463046FFF7EBFEA542F4D1012180
:101BA000B07B02F009FA336893B1DA7A82B1D007D8
:101BB00003D51F4A99691160DA7A910703D51D4A46
:101BC000D9691160DA7A520702D51B4A1B6A136081
:101BD000012003B0BDE8F08372B6CB7AD80709D5EF
:101BE000DFF858E0C868DEF8003003408B61CEF8BB
:101BF0000030CB7A980709D5DFF844E00869DEF8B1
:101C000000300340CB61CEF80030CB7A5B0708D5BB
:101C1000DFF830E04869DEF8003003400B62CEF8B0
:101C2000003062B689E700BF01403F0000003F80FE
:101C300000E100E004E100E008E100E080E100E014
:101C400084E100E088E100E02DE9F0470D4682B034
:101C50000168DDF828909DF82C80064617461C4642
:101C600081B14268CB7A1268002B4FD10B68D968DA
:101C7000914207D0394818603949DA6042F0804013
:101C8000186119600021B07B02F096F977B105EB7D
:101C9000070A0DF1070715F8013B8DF807300122FF
:101CA00039463046FFF764FEAA45F4D1B9F1000F7A
:101CB0000FD0A1440DF107070122394630468DF8B7
:101CC0000780FFF755FE9DF8073004F8013BA1455A
:101CD000F2D10121B07B02F06FF9336893B1DA7A67
:101CE00082B1D00703D51F4A99691160DA7A91074A
:101CF00003D51D4AD9691160DA7A520702D51B4A09
:101D00001B6A1360012002B0BDE8F08772B6CB7A7F
:101D1000D80709D5DFF858E0C868DEF8003003407E
:101D20008B61CEF80030CB7A980709D5DFF844E014
:101D30000869DEF800300340CB61CEF80030CB7A82
:101D40005B0708D5DFF830E04869DEF80030034073
:101D50000B62CEF8003062B688E700BF01403F005A
:101D600000003F8000E100E004E100E008E100E065
:101D700080E100E084E100E088E100E02DE9F0414D
:101D80000468E56815F0807F794D256052D1DF0742
:101D900040F1B380002900F0E3800D78012B18BFDB
:101DA00045F000456563013190F8248003F1FF3C64
:101DB00048EA0828BCF1000F00F0A88021B14D7856
:101DC00011F8028B45EA082845682E7ABCF1020F0B
:101DD00006F1FF364FEA06360CBF48F0805548F052
:101DE0001045B6B26563ACF1020C08E00AB114709C
:101DF0000132013B05F47045B54216D90468E56A25
:101E000015F0F00FF6D0A46B13F0010F17464FEA50
:101E1000242EEBD11AB107F802EB54703A4605F4C0
:101E20007045B542A3F10203E8D8BCF1000F6DD0B4
:101E30000468C3E7DD074CD5002900F089800D78E0
:101E4000012B18BF45F000456563013103F1FF3EEA
:101E500090F824C0BEF1000F41D029B191F801C023
:101E60000D78023145EA0C2C45682E7ABEF1020F3E
:101E700006F1FF364FEA06360CBF4CF080554CF0A9
:101E80001045B6B26563AEF1020E08E00AB11470F7
:101E90000132013B05F47045B54215D90468E56A85
:101EA00015F0F00FF6D013F0010F1746A46BEDD12B
:101EB00022B107F8024B241254703A4605F47045DB
:101EC000B542A3F10203E9D8BEF1000F07D00468C0
:101ED000C3E79E4690F824C0BEF1000FBDD11BB3EE
:101EE0000468E16A11F0F00FFBD0A16BDC071DD58F
:101EF0000AB111700132013BF1E790F824809C4651
:101F000048EA0828BCF1000F7FF458AF63B10468B9
:101F1000E16A11F0F00FFBD0DE07A16B0FD50AB11B
:101F200011700132013BF1E7BDE8F0812AB114469E
:101F30000D1204F8021B55702246023BCFE72AB16E
:101F400014460D1204F8025B51702246023BDDE795
:101F500090F82450012B18BF45F00045656375E7E4
:101F600090F82450012B18BF45F0004565631BE72E
:101F700000041F8090E80C00F0B41C6859682568C4
:101F8000164F174E29432160164D17491760D6602A
:101F900015611160417A154A5C180A3194F82440A1
:101FA00053F8215002EBC40149680D60017A5C18B6
:101FB00003EB8101247ECD6902EBC40149680D6009
:101FC000817A581803EB810390F83000596B02EBCB
:101FD000C002F0BC53681960704700BF01401F0089
:101FE000011000380110007800001F803C8B0000B9
:101FF0000BB1FFF7C3BE704700293CD030B58D6CE4
:1020000083B0002D33D0CB6C002B30D00B6D73B36D
:1020100010F0800FCA7814BF002310239A4223D0F7
:102020000C46CB700DF107020123F3216078A8471D
:1020300084F8540018B16FF0010003B030BD9DF872
:102040000730E278E56C607802F0100223F01003AC
:1020500013438DF807300DF1070201237321A847C0
:1020600084F854000028E6D1002003B030BD4FF0C2
:10207000FF3003B030BD4FF0FF307047E0B130B5F6
:10208000856C83B0A5B1C36C93B1036D83B1044675
:1020900001230DF10702F3214078A84784F854008A
:1020A00068B99DF8073003F01003E37003B030BD4A
:1020B0004FF0FF3003B030BD4FF0FF3070476FF08E
:1020C0000100F3E72DE9F04182B0D3B19E6C1C46CC
:1020D000BEB1DB6CABB1236D9BB1A37888460746DC
:1020E000ABB100251346394642466078B047002818
:1020F00018BF6FF0010584F85400284602B0BDE80F
:10210000F0814FF0FF35284602B0BDE8F08121464E
:102110000192FFF771FF019AA66C05460028E1D1F4
:1021200047F08007DEE700BF2DE9F04F8BB0054692
:102130000F469246984668462822002106F01EF86F
:10214000B8F1000F58D0D8F84830002B54D0D8F848
:102150004C30002B50D0D8F85030002B4CD00AF126
:10216000FF33122B4ED81FFA8AFA0AF1FF3B0026E2
:102170001FFA8BFB013F0BF1010B3446B1460EE019
:102180002B780DF814300DEB0603013417F8012FEE
:102190005A70A34505F1010506F102060ED098F824
:1021A0000230002BECD141462878FFF725FF2B7831
:1021B00003F07F0381460DF81430E4E7B9F1000F16
:1021C00003D048460BB0BDE8F08F4FEA4A03013B0D
:1021D0009BB2D8F84C409DF8001098F801000DF122
:1021E0000102A047002818BF6FF0010988F85400C9
:1021F00048460BB0BDE8F08F4FF0FF3948460BB0B2
:10220000BDE8F08F6FF00309DBE700BF30B583B0A6
:10221000E022B6238DF806208DF80730D0B1826C0D
:10222000C2B1C26CB2B1026DA2B183780446B3B13F
:10223000234601220DF107010DF10600FFF774FF9F
:10224000236D05460A2098470DB9A3787BB128462F
:1022500003B030BD4FF0FF35284603B030BDFFF767
:102260000DFF05460028E3D0284603B030BD2046C8
:10227000FFF704FF0546EAE7F0B58DB028B3826C9E
:102280001AB3C26C0AB3026DFAB10446FFF7BEFF7F
:10229000054610B128460DB0F0BD23460122214667
:1022A000D020FFF70FFF05460028F3D12378612BDC
:1022B00040F09B8001A82922294605F05FFFA36C0E
:1022C0008DF803500BB1E36C23B94FF0FF3528466E
:1022D0000DB0F0BD236D002BF7D001A923461922C4
:1022E0008920FFF7EFFE0546002800F092809DF858
:1022F00026E09DF825109DF805309DF809009DF811
:1023000006209DF80A709DF80CC09DF80B6041EA0C
:102310000E2143EA022240EA07279DF810E09DF8CB
:1023200011309DF80F00E1829DF81210228340EADF
:102330000E2043EA01219DF818E09DF81720A7839D
:102340009DF819309DF81A70608446EA0C2642EA1E
:102350000E2243EA07239DF814009DF80770E683D8
:10236000A1849DF80D609DF8131022856385A776E2
:1023700084F8206084F8260084F827109DF81B104C
:102380009DF81E309DF81F709DF81D609DF8280077
:102390009DF8272084F82C1003F00F011B0941EA57
:1023A000071143EA061342EA00229DF820E09DF857
:1023B00021709DF8226021819DF8230063819DF8A2
:1023C000241062829DF82A309DF8292084F80CE0C0
:1023D0006773A673E07321746274237545B19DF928
:1023E00003301B1184F8363054E76FF0020551E7D3
:1023F000234601220DF103010220FFF763FE9DF841
:102400000330C3F30112054684F8342050B15BB2A7
:10241000E7E7234610220DF11D01E120FFF752FEF0
:10242000054664E7234601220DF10301FFF74AFE4A
:102430009DF9033084F8353005460028D1D10DF1DF
:102440000301234601220420FFF73CFE0546C6E7B0
:1024500070B582B074238DF80730002841D0836CAA
:10246000002B3ED0C36C002B3BD0036D002B38D02B
:1024700004460026234601220DF106017420FFF7D1
:1024800021FE48B99DF8063013F0030607D194F8F1
:102490004420A2B902B070BD002EEBD1FAE723F0C0
:1024A0000305012223460DF106010DF107008DF809
:1024B0000650FFF739FE236D0A209847DAE723F02C
:1024C000030302F0030243EA02050DF1060123466D
:1024D00001220DF107008DF80650FFF725FE02B02E
:1024E00070BD4FF0FF3002B070BD00BF2DE9F0416C
:1024F0008A6C88B00023ADF814308DF8073004934F
:102500000693ADF81C30002A6ED0CA6C002A6BD03E
:102510000A6D002A68D000F0080292B206460C4606
:1025200091F84470002A40F0148181F8442020463C
:10253000FFF78EFF06F01005ADB2002D40F0E280EF
:10254000B10600F1B680B2077CD1730751D416F002
:10255000C00F06D1002840D084F8447008B0BDE810
:10256000F08194F83E30012B08D994F846300122CE
:1025700043F0020384F8463084F83E2094F83C305F
:102580000A2B08D994F846300A2243F0020384F853
:10259000463084F83C20234601220DF107017120CA
:1025A000FFF790FD730600F1DE809DF807303606D8
:1025B00008D594F83C2023F00F0302F00F021343D8
:1025C0008DF8073008AA2A447121013502F8083C29
:1025D000EDB202F8101C0028BED12A4606A904A8B4
:1025E0002346FFF7A1FDB7E74FF0FF3008B0BDE885
:1025F000F08194F83830052B08D994F8463005223C
:1026000043F0020384F8463084F838202346012240
:102610000DF107017220FFF755FD9DF8072094F892
:10262000383008A9294422F0070203F007031343B6
:10263000013572228DF8073001F8083CEDB201F83F
:10264000102C84E794F83930052B08D994F84630DB
:10265000052243F0020384F8463084F839202346EB
:102660000DF1070101227420FFF72CFDF1079DF801
:10267000073008D594F8392003F01F0343EA4213CA
:10268000DBB28DF80730B20709D594F83A209200F2
:1026900023F01C0302F01C0213438DF8073008AA34
:1026A0002A447421013502F8083CEDB202F8101CEE
:1026B0004BE794F83D30082B08D994F846300822AF
:1026C00043F0020384F8463084F83D20234601227B
:1026D0000DF107017020FFF7F5FC9DF8072094F835
:1026E0003D3008A9294422F0080203F008031343EF
:1026F000013570228DF8073001F8083CEDB201F881
:10270000102C20E794F83B30072B08D994F846307A
:10271000072243F0020384F8463084F83B20234626
:1027200001220DF107017520FFF7CCFC94F83B2046
:102730009DF80730920002F01C0223F01C031343A3
:1027400075228DF807308DF818308DF8102001258E
:10275000F6E6012FADF80830ADF80C3010D084F853
:1027600044300120E6E694F83E209DF8073012013F
:1027700002F0100223F0100313438DF8073016E720
:10278000B4F84010B4F91250DFF8ECE094F904C04A
:10279000B1F5C87F05F5163505F2991528BF4FF438
:1027A000C87101FB05F18EFB0120C917C1EBE000E8
:1027B00000F5481094F914202D498EFB005EC017D7
:1027C000C0EBAE001CFB02F294F911E081FB025158
:1027D000D21794F93550C2EBA1110EF5447E0EFBD1
:1027E00000F2090201EB620194F8340005EB851256
:1027F00005EB420505F58035021D91FBF2F292FBD7
:10280000F5F2FA3A02EB021252001A48B4F84210FA
:10281000323280FB0250D217C2EB60125A2564207C
:10282000B1F57C6F8DF80C208DF808508DF80900FB
:102830001CD23F2906D9890801333F29DBB2FAD8D7
:102840009B01DBB20B44DDB24FF0000884F83C8002
:102850002346022203A902A88DF80D50FFF764FC5D
:1028600084F8448000287FF465AE60E6FF25EBE73E
:10287000D34D62101F85EB516766666670B4194EC2
:1028800091F83940B58891F83A2091F8383083B002
:10289000ADF80450054602A804443068009002A830
:1028A0000244034414F8084C12F8082C13F8083CAE
:1028B0000D4E2244981840F2AB7202FB00F202F572
:1028C00095531933A6FB03239B0901339BB22B803D
:1028D00091F83E201AB1B1F8422013442B8003B086
:1028E00070BC7047848A0000D34D62102DE9F04F10
:1028F000A9B0002956D08B6C002B53D0CB6C002B89
:1029000050D00B6D002B4DD0002406940D4682460E
:1029100004940594CDF81B400A2644B1013E16F0FC
:10292000FF06FAD10224204629B0BDE8F08F2B46DD
:102930000F2204A91D20FFF7C5FB9DF81EC09DF8BE
:1029400010209DF811308AF802304FFA8CF303F012
:102950002001044622F07F0003F0100308431843CF
:1029600040B29DF81430029302F00F029DF81D3022
:102970008AF8000000288AF801209DF812E09DF8EE
:1029800013209DF815109DF816709DF817B09DF84E
:1029900018809DF8199001934FF00A0008DB2B6D09
:1029A0009847BBE74FF0FF34204629B0BDE8F08FD1
:1029B000E88A95F91A60029B4FEA1B1B4BEA071B3A
:1029C0004BEA01314000C0EBD10B5846C11749100A
:1029D0004FEA300000FB01F7A0FB000101EB4701CB
:1029E000070B47EA01570913029136010298F117C4
:1029F00007FB01F106FB0011B5F91800A7FB0667FC
:102A00000F4480FB0B01B60BC00A46EA874640EA3A
:102A10004150811901EB810B0BF1800B4FEA2B2BFD
:102A20002963AAF804B095F920701B0943EA021340
:102A30004810A0F57A40B5F9241003937F01B5F949
:102A40001E300297861095F9262006FB06F600FB3D
:102A500001F100FB03F302987713F61202FB06F66E
:102A600007FB00F7039AB5F92200FF10490001EBBC
:102A7000A60142EA0E3E07EB63030004CEF5801E7A
:102A800000EBA1009B14A98BB5F92A7095F927607A
:102A9000AEEB203003F5004340F6354202FB00F276
:102AA00001FB03F3DB13B2F1804FA7BF92FBF3F3FB
:102AB0005B00520092FBF3F3D91001FB01F1B5F971
:102AC000282095F82C00B5F80AE0491307FB01F11E
:102AD0009F1002FB07F252131F1202EB213207FB79
:102AE00007F107FB01F700FB07F702EB674202EB78
:102AF000C61603EB2613CAF8083095F90E30644861
:102B000095F90C1002910BFB03F380FB0317DB1705
:102B1000C3EB67130BFB03F395F90D202E899F116F
:102B200080FB07170BFB02F2DB17C3EB671380FB7D
:102B300002170299D217C2EB67121A440BFB01F17C
:102B400080FB013749EA082802F5804395F9109087
:102B5000C917A8EB0618C1EB67170EFB03F30BFBB5
:102B600009FBA8EB67079B1207FB03F795F80F908B
:102B7000484EDFF8248180FB0B234FEAEB7B4FEAC2
:102B8000A73ECBEB631303EBC9190EFB0EFE0FCE72
:102B90004FEA29194FEAAE2E09FB0EFE07EB6E072E
:102BA0004FEAA72E4FF47A7707FB0EF70DF1200EB0
:102BB000AEE80F000FCEAEE80F000FCE3F13AEE829
:102BC0000F0096E80F0027EAE7774745A8BF47467A
:102BD000CAF80C7006F1100795F936808EE80F00E0
:102BE0000FCF18AE0FC60FCF0FC60FCF0FC697E887
:102BF0000F000DF1A00E0CF00F070EEB870786E813
:102C00000F004FF0050957F8806C57F840EC40F280
:102C10003C500021C8FB0901A0FB062306FB013341
:102C200001994FEA9C1040EA810080B2160CC20361
:102C300046EA03461F1412F17F424FEA5043AEFBAF
:102C4000068943F1FF3392190EFB07997B414FEA46
:102C500058205F104FEA320640EAC95080194FEA07
:102C60006921794104F0CAFDCAF81000002C7FF4F4
:102C70005AAE9AF90030002BB8BF01232046B4BFEA
:102C800085F8453085F8454029B0BDE8F08F00BF94
:102C90001F85EB518C8A0000A086010001F0A6B9C7
:102CA000F8B5114E3468400084F83B0025680120D7
:102CB00084F85E0084F85D001F4620462B681446A9
:102CC00098475FB17D1EADB201352544306814F8D8
:102CD000011B03681B689847AC42F7D1306801219B
:102CE000FEF774FA0020F8BDD893FF1F2DE9F047D6
:102CF0001E4E96F900305A1C2AD0DFF878A0DFF873
:102D0000789047B2072500244FF0010801E096F9BA
:102D10000030D8B2002101F04FF908FA05F139402E
:102D2000C9B29AF8000001F047F90121307801F0AA
:102D300043F999F8000001F045F96400E4B2013D5F
:102D400008B144F001046B1CE1D12046BDE8F087D6
:102D5000074B1B681A684FF00043D3625063D36A75
:102D6000002BFCDA906BC0B2BDE8F087E093FF1F48
:102D7000DC93FF1FE193FF1FD593FF1F0A4B1A68D7
:102D8000D37A83B1D80703D5084B91691960D37AF8
:102D9000990703D5064BD1691960D37A5B0702D531
:102DA000044B126A1A607047DC93FF1F00E100E0D9
:102DB00004E100E008E100E030B5837C0122044634
:102DC00080F86C2083B0407C0BB140F00400E37CC1
:102DD0000BB140F00200237C0BB140F01000237DCA
:102DE0000BB140F0C80004F128052946FFF77EFB2F
:102DF00010B1002003B030BD2846FFF729FB0028A2
:102E0000F7D10DF102002946FFF738FD054ABDF85C
:102E1000023012680192019820621844A38403B022
:102E200030BD00BFE493FF1F2DE9F843244D2C680B
:102E3000460084F83B6080460126206884F85E6086
:102E400084F85D60D0F8009020461F461446C847BD
:102E500031462868FEF7BAF933464146FAB2286887
:102E6000FEF73EFA80B2874202D03046BDE8F883D2
:102E70007E1EB6B2FFB10136124F264410E090F824
:102E8000383090F839209A4203F1010E00EB03012B
:102E900014D980F838E0087E04F8010BA6420AD065
:102EA000286803685B69BB42E9D09847C0B204F860
:102EB000010BA642F4D10020BDE8F883FF20EBE728
:102EC000D893FF1F0D0E00002DE9F8432C4E96F904
:102ED00000500135074689461446984621D0002106
:102EE000384601F069F808F1FF354846FFF7FEFE65
:102EF000ADB2B8F1000F07D00135254414F8010B2D
:102F0000FFF7F4FEAC42F9D13846012101F054F844
:102F100096F90030013301D1FFF730FF0020BDE802
:102F2000F883184B1B68DA7AB2B172B6DA7AD00736
:102F300006D51549DA68086802409A610A60DA7AAB
:102F4000910706D511491A6908680240DA610A60DA
:102F5000DA7A52070DD462B61B680D4AD9689142DD
:102F6000BDD00C4919600C480C49DA601861196031
:102F7000B5E70B495A69086802401A620A60EAE735
:102F8000E093FF1FDC93FF1F80E100E084E100E09D
:102F90000320033801403F000320037800003F80F6
:102FA00088E100E02DE9F8432D4E96F900500135F7
:102FB000074689461446984623D00021384600F03B
:102FC000FBFF08F1FF3549F08000FFF78FFEADB23F
:102FD000B8F1000F08D0013525440020FFF786FE28
:102FE00004F8010BAC42F8D13846012100F0E4FFAF
:102FF00096F90030013301D1FFF7C0FE0020BDE893
:10300000F883184B1B68DA7AB2B172B6DA7AD00755
:1030100006D51549DA68086802409A610A60DA7ACA
:10302000910706D511491A6908680240DA610A60F9
:10303000DA7A52070DD462B61B680D4AD9689142FC
:10304000BBD00C4919600C480C49DA601861196052
:10305000B3E70B495A69086802401A620A60EAE756
:10306000E093FF1FDC93FF1F80E100E084E100E0BC
:103070000320033801403F000320037800003F8015
:1030800088E100E0F0B40A4A0A4F0B4E0B4DFF24D2
:1030900014703C70002204773470296002628284CC
:1030A0000275C274827442740274F0BC704700BF2F
:1030B000E193FF1FD593FF1FE093FF1FD893FF1FDE
:1030C000F8B5044690F91C0061751546421C3CD0C9
:1030D000C0B2012100F070FF207F012100F080FFCD
:1030E000344B93F90000431C3ED0C0B2012100F0E4
:1030F00077FF314B0121187800F072FF2F4B002130
:10310000187800F06DFF217F2D4A2E4B84F829108E
:10311000002184F82A10226763672B4BA36704F110
:103120002800FFF7A9F870B91DBB0823012084F817
:10313000665084F8653084F86C00A4F86850A4F8F0
:103140006A502575F8BD0020F8BD204B18680E4662
:10315000FDF7ACFE01211E4A1E4B84F8296084F85D
:103160002A1022676367D8E71B4B1868FEF702FF37
:10317000C9E7012302220427032684F86500012001
:103180004FF4A075962184F8617084F8663084F855
:10319000602084F8632084F8626084F86C006374B3
:1031A000A374E37423742375A4F86850A4F86A1018
:1031B000F8BD00BFE093FF1FE193FF1FD593FF1FF2
:1031C000A52F0000C92E00009D2C0000D893FF1FE2
:1031D000292E0000A12C0000DC93FF1F30B5036AEC
:1031E00087B004462BB1808C18180AD1002007B094
:1031F00030BDFFF7E1FD0028F8D0236A63B1A08C51
:103200001844254B1B680093009BC01A002803DB61
:1032100002D0400000F0EAFE00252562A58404F1FA
:10322000280101A8FFF762FBC8B9637CD3B91B4B27
:103230002360A37C0BB3049804F018F9184904F038
:1032400021FAE37CA060EBB1207D039B6360E8B1D1
:103250009DF80430DB0619D5059BE360C7E72846D7
:1032600007B030BDBDF9080004F004F90D4904F0C1
:1032700009FAA37C2060002BDDD1084BA360E37C1E
:10328000002BE1D1207D63600028E1D100230120E3
:10329000E36007B030BD00BFE493FF1F0000C07FB4
:1032A00000007A440000C842FFF798BFFFFFFFFF0D
:1032B00038B505460C46FFF791FF686804F0D6F86C
:1032C000114904F0DFF9214604F0DCF903F0A4FC15
:1032D00009A3D3E9002302F07DFA02460B46002041
:1032E0000A4903F039FB06A3D3E9002303F0E8FC05
:1032F00003F0B6FF38BD00BF00000020C05BC83F30
:103300000000000040A5E5400000C8420000F03F7A
:10331000A0F86810A0F86A2049B142B10123002248
:1033200080F8652080F8663003750120704700231F
:10333000082280F8652080F8663003750120704708
:10334000052909D880F8611019B101234374184682
:10335000704741740120704700207047052909D843
:1033600080F8601019B10123837418467047817486
:103370000120704700207047052909D880F86210A5
:1033800019B10123C37418467047C17401207047F6
:1033900000207047072909D880F8631019B101236C
:1033A000037418467047017401207047002070476D
:1033B00000220261704700BF2DE9F04182B0002475
:1033C00002AF0546984600690194009401233E7FB0
:1033D000FEF736FA20B900242046BD46BDE8F0814C
:1033E0000446404600F002FE002EF5D006EB4602F1
:1033F000D2B2D31D23F00703ADEB030D0DF1080886
:10340000286941460123FEF749FA0028E3D0701EDF
:10341000BB69C0B203EB40009D1E0DF10A06414698
:10342000FF2311F8012B5340082213F0800F02F103
:10343000FF324FEA430318BF83F0310312F0FF025B
:10344000DBB2F2D18E42ECD198F802209A42C2D17E
:1034500016F8022C98F8013043EA022325F8023FBF
:10346000854206F1030608F10308D8D1B4E700BF8E
:10347000F0B50446006985B00E46174610B110211C
:1034800002F024F8102002F01FF8582105463246B9
:10349000FEF7A0F9256128460121FEF7C1F910B910
:1034A000002005B0F0BD04F10803362003258DE8A7
:1034B000280082268DF8080002A90A23022220464D
:1034C0008DF80960FFF778FF0028E9D001220DF19F
:1034D0000E032020019200932F268DF8080002A9E8
:1034E0000A23022220468DF80960FFF765FF0028B5
:1034F000D6D0BDF80E6006F0F006202ED0D1002FF9
:10350000CFD000230193009320460A23022203A96F
:103510008DF80C608DF80D50FFF74EFFC1E700BF2E
:1035200030B585B0082403AB0222009320250DEBB3
:10353000040101920C238DF809408DF808500446CF
:10354000FFF73AFF28B1BDF80E20BDF80C302280FD
:10355000638005B030BD00BF30B585B003AB02223B
:103560005024009320250192192302A98DF80940C7
:103570008DF808500446FFF71FFF28B1BDF80E2054
:10358000BDF80C30E280A38005B030BD70B52822B4
:103590000C4606460846002104F0F0FD0B220A49BD
:1035A000204604F04FFE00230125E37236690748E8
:1035B000074AE56000210525266163626561A06117
:1035C000E161226270BD00BF1886000000E0AB47D9
:1035D0006F12833A037B013BDBB2042B2DE9F041F0
:1035E000174696BF1C4A1D4D52F82350437B202B93
:1035F00030D0302B2CD0102B28D04FF07E560846E0
:1036000003F034FF0446384603F030FF214680467D
:1036100004F038F801464FF07E5003F075FE414645
:103620000746204603F070FE0146384603F076FF59
:1036300031460446284603F071FF094904F022F898
:103640000146204604F01EF8BDE8F081054ED6E79D
:10365000054ED4E7054ED2E70C8B00000000C842AF
:103660000000CC430000C84100501A460000D64379
:1036700010B4054C016100221021046041730275F1
:10368000027310BC704700BF288B00004FF6FF7319
:10369000994205D09A4210B404D010BCFFF79ABFEB
:1036A00002487047014810BC704700BF000080BF4F
:1036B00038B583680125522283F83B2083F85E5099
:1036C00083F85D500446806803681B689847294664
:1036D000A068FDF77BFD2B462A46A0682921FDF74F
:1036E000FFFDA0680A4A03685B6993420BD190F81A
:1036F000383090F839209A4208D95A19034480F892
:103700003820187E38BD9847C0B238BDFF2038BD7C
:103710000D0E0000836870B55222012583F83B200E
:1037200083F85E5083F85D50044680681F4E03683E
:103730001B6898472946A068FDF748FD2B460222E2
:10374000A0682921FDF7CCFDA06803685A69B24240
:103750001ED190F8383090F839209A4220D95A1961
:10376000034480F838201B7EA06802685269B24288
:103770009CB210D190F8383090F839209A4212D982
:103780005A1C034480F83820187E44EA002070BD9B
:1037900090470346E8E7904744EA002080B270BDB6
:1037A0004FF6FF7070BD44F47F4070BD0D0E0000F9
:1037B00070B504460125A368522083F85E5083F853
:1037C0005D5083F83B00A06803681B681646984765
:1037D000A068036831461B6898472946A068BDE881
:1037E0007040FDF7F3BC00BF38B5037D04460D46BD
:1037F00013B9094900F012F8204600F035F8227B91
:10380000657320462A43A121FFF7D2FF2046BDE879
:10381000384000F039B800BF1488FF1F38B5816008
:1038200004460846FDF742FB2046B221FFF740FF61
:10383000502801D0002038BD0125217B2575204668
:1038400000F090F8617B2046FFF7CEFF204600F0A5
:103850001BF8284638BD00BF08B50249FFF7DEFF58
:10386000012008BD1488FF1F037D10B5044613B95D
:103870000449FFF7D3FF20469322A021BDE8104062
:10388000FFF796BF1488FF1F037D10B5044613B9D8
:103890000449FFF7C3FF20460022A021BDE81040E5
:1038A000FFF786BF1488FF1F38B5037D0546DBB1DF
:1038B0002846FFF7D9FF0024782000F097FB013459
:1038C0002B7BE4B2A342F7D2B4212846FFF722FFB4
:1038D000B62104462846FFF71DFF44EA0044284667
:1038E000FFF7D2FF204638BD0149FFF797FFDFE71A
:1038F0001488FF1F2DE9F041064682B00C46FFF701
:10390000D3FF3046FFF7D0FF242703463A46002175
:1039100020469DB24FEA134804F030FC0F4B31694A
:103920001B6801934FF6FF730520019A27609D42A3
:103930006160A06022610BD0984509D042462946BB
:103940003046FFF747FE6061012002B0BDE8F0811C
:1039500003486061012002B0BDE8F081E493FF1FDD
:10396000000080BF38B5037D04460D4613B90949F0
:10397000FFF754FF2046FFF777FF627B2573204651
:103980002A43A121FFF714FF2046BDE83840FFF786
:103990007BBF00BF1488FF1F844641EA000313F079
:1039A00003036DD1403A41D351F8043B40F8043B46
:1039B00051F8043B40F8043B51F8043B40F8043B09
:1039C00051F8043B40F8043B51F8043B40F8043BF9
:1039D00051F8043B40F8043B51F8043B40F8043BE9
:1039E00051F8043B40F8043B51F8043B40F8043BD9
:1039F00051F8043B40F8043B51F8043B40F8043BC9
:103A000051F8043B40F8043B51F8043B40F8043BB8
:103A100051F8043B40F8043B51F8043B40F8043BA8
:103A200051F8043B40F8043B403ABDD2303211D348
:103A300051F8043B40F8043B51F8043B40F8043B88
:103A400051F8043B40F8043B51F8043B40F8043B78
:103A5000103AEDD20C3205D351F8043B40F8043B48
:103A6000043AF9D2043208D0D2071CBF11F8013B46
:103A700000F8013B01D30B8803806046704700BF0C
:103A8000082A13D38B078DD010F003038AD0C3F11B
:103A90000403D21ADB071CBF11F8013B00F8013BFD
:103AA00080D331F8023B20F8023B7BE7043AD9D3BC
:103AB000013A11F8013B00F8013BF9D20B78037091
:103AC0004B7843708B7883706046704708B5104C14
:103AD00008E0236859050DD423681A050FD423681C
:103AE000DB0411D423685803F3D500F017FC2368D6
:103AF0005905F1D500F00EF823681A05EFD500F04E
:103B000009F82368DB04EDD500F004F8EAE700BF0C
:103B10003480044008B5FFF7D9FF00BF014B1022E5
:103B20001A80704700200540704700BF094908B55A
:103B30000B6830B16A461844A2F58052904202D216
:103B40000860184608BD04F023F80C2303604FF00A
:103B5000FF3008BDEC88FF1F704700BF10B40F4B4B
:103B600053F8302092F880422CB1012369B182F8D9
:103B7000803010BC704703EBC0035B681A6841B922
:103B800022F002021A6010BC704782F8003110BCAB
:103B9000704742F003021A6010BC70473C8B000073
:103BA0001C4A02EBC00301295B6811D004291BD019
:103BB00052F83000002280F8802229B1022920D05A
:103BC000032922D01A6070474FF480721A60704740
:103BD00052F830004FF4A27280F880121A601A680E
:103BE00022F020021A60704752F830104FF4A2728F
:103BF000012081F880021A601A6842F020021A60DF
:103C0000704740F203121A6070474FF481721A60D5
:103C1000704700BF3C8B0000212848D8F8B5042A23
:103C200044D8DFE802F0484B4E0345004FF410261D
:103C30002B4B03EBC0030D465C68216811F4E06177
:103C400048D0284B284A2949C3F89C2104F1404216
:103C50002748C3F8A411A2F59221264FC3F8A0016A
:103C60007C292548C3F8A871C3F8AC012CD9A2F56A
:103C700094237C2B2AD9A2F596237C2B28D9A2F554
:103C800098237C2B29D9A2F59A227C2A27D81B4875
:103C900072B6236823F4702343F08072C4F3840166
:103CA0001643236040F82150266062B6F8BD704785
:103CB0004FF43026BCE74FF40026B9E74FF4402616
:103CC000B6E74FF42026B3E70D48E1E70D48DFE7FC
:103CD0000D48DDE7FFF764FFB3E70C48D8E7F8BD10
:103CE0003C8B00000082FF1FD187FF1F7987FF1FD9
:103CF000A587FF1F4D87FF1F2187FF1FC889FF1F53
:103D0000F088FF1F2889FF1F7889FF1FA889FF1FE0
:103D10001A4B03EBC00010B4426802F14043A3F514
:103D200092217C2923D9A3F594217C290DD9A3F5CF
:103D300096217C291FD9A3F598217C2919D9A3F5AF
:103D40009A237C2B11D80E4C00E00E4C72B61368EF
:103D50000D4823F08773C2F3840123F4803343F0CA
:103D60008073136044F8210062B610BC7047074CA2
:103D7000ECE7074CEAE7074CE8E700BF3C8B0000A4
:103D8000C889FF1F2889FF1F593B0000F088FF1FCB
:103D9000A889FF1F7889FF1F30B4054B054D064CDD
:103DA000002210211A602A602060196030BC704720
:103DB00014D0034004D0034000D00340282838B575
:103DC0002ED0002904464FDD5F4B1B78012505FAF4
:103DD00003F28A4202D8212837D938BD0338C2B24B
:103DE000012A3AD9202C4AD0192C48D0574A1268B7
:103DF00002FB011222FA03F31D2800F29B80DFE888
:103E000000F0928B847D9999766F999999999999F7
:103E100099999968615A53994C99999999999945A1
:103E2000494B1B780B2B08D90C2B1CBF0C3B1941A1
:103E30000846BDE8384001F045BCC3F10C03994089
:103E40000846BDE8384001F03DBC2946FFF786FE34
:103E50002946BDE83840FFF7A3BE3D4A126802FB81
:103E6000011222FA03F3C7E72128B6D80021FFF791
:103E700075FE20460121BDE83840FFF791BE354A66
:103E8000126802FB011222FA03F3B5E73249334A02
:103E90000B604FF45173136038BD3149314A0B60E8
:103EA0004FF45173136038BD2F49304A0B6040F214
:103EB0004443136038BD2E492E4A0B6040F2444300
:103EC000136038BD2C492D4A0B6040F24443136007
:103ED00038BD2B492B4A0B6040F24443136038BD78
:103EE00029492A4A0B6040F24443136038BD2849EF
:103EF000284A0B6040F24443136038BD2649274AE4
:103F00000B6040F24443136038BD2549254A0B60DD
:103F100040F24443136038BD2349244A0B604FF4F8
:103F20005173136038BD2249224A0B604FF451731C
:103F3000136038BD212C3FF650AF7F29D4BF00213C
:103F40000121204693E700BFD089FF1F088003406E
:103F50000890034008800B4010800B4048A00440AC
:103F600018800B404CA004401880034008B0044067
:103F70001080034004B004404080034018C0044057
:103F80003880034014C004402880034010B004402F
:103F9000208003400CB004403080034010C0044037
:103FA000488003401CC004401890034034900440F3
:103FB0001090034030900440212801D8FFF7CEBD77
:103FC000704700BF212806D8044B53F8303093F8CF
:103FD0000002C0B270470020704700BF3C8B000059
:103FE000212801D8FFF7DCBD704700BF2DE9F84359
:103FF000054672B6204F214B214A1B683C68126867
:1040000062B6520102D5322B88BF013495B3C3F595
:10401000BB331C4EDFF86490DFF86480FF334FF44D
:104020007A72A6FB031302FB04F404EB931472B63A
:10403000D9F800103A68D8F800E062B6C1F5BB3391
:10404000FF33A6FB03031EF0806FC4EB93134FF402
:104050007A7002D0322988BF013200FB0233B3F5F7
:104060007A7F04D3013D05D004F57A74DFE701F0CF
:1040700043FADCE7BDE8F883E493FF1F18E000E0B3
:1040800004ED00E0ABAAAAAAF8B52D4B2D49DFF844
:10409000D0E0DFF8D0C02C4E2C4D2D4C2D4A2E4FA9
:1040A0004FF4000018604FF0807018604FF00070FF
:1040B00018604FF0806018604FF0006018600020BA
:1040C000086028234BF6FF71CCF80010CEF80030C2
:1040D000336013602B6023603B60B36293620922FC
:1040E00045F8242CC4F8D80F05F57F65C7F8D41F10
:1040F00007F5FF2707F5FA67C6F8F83F2B6006F5C6
:10410000FF26C4F8D42F05F5FD2504F5FF243860FB
:1041100006F2F4761148316005F5FF6504F5FD649B
:104120002B602360026001F05DFA1920FFF75EFF4B
:1041300000F05AFE40F21310BDE8F840FFF756BFFA
:1041400008E100E004800340148003402480034021
:104150002C8003401C8003403480034000800B40CF
:104160000C80034008800340431E032B14D872B612
:104170000A4951F8230068B170B4094C058834F835
:104180001320466841F82360521B24F8132062B6BE
:1041900070BC704762B67047002070474094FF1FA4
:1041A0003C95FF1F013803280BD872B6074B53F814
:1041B000203043B100205B680130002BFBD162B698
:1041C0007047002070471846F9E700BF9494FF1F1E
:1041D00030B472B62B4A13781D0706D52A4B196ADC
:1041E000002936D0996A002941D053781C0706D59A
:1041F000254B196C00293ED0996C002939D0937851
:10420000190705D5204B196E002936D0996E89B152
:10421000D3781B0707D51C4BD3F880207AB3D3F88B
:10422000882011213AB162B6184B00221A7030BCB6
:1042300000F056BE0D21154C154D227843F8315033
:1042400003EBC1030830013A5860227062B630BCFB
:10425000704704220D4C0F4D217843F8325003EB88
:10426000C20308304A1E5860227062B6EFE705218B
:10427000E1E70921DFE70822ECE70C22EAE7102258
:10428000E8E700BF848C00000080FF1FBD94FF1F83
:10429000C800400088004000431E032B1DD81B4A65
:1042A000400140F0100030B4104472B6184CE25C8B
:1042B000032A1BD8DFE802F00212151703220D882B
:1042C000E25410F0080F14BFC823882343EA0543C3
:1042D00008310360416062B630BC7047083002228A
:1042E000EDE70522EBE708300422E8E7094A52F837
:1042F000230038B1084A52F82300416042F82310E5
:1043000062B6E9E742F82310034AF7E70080FF1F8F
:10431000CC94FF1F9494FF1FA494FF1F2DE9F04F2E
:10432000DFF818B3DFF818A387B044E0AE4F4FEAC8
:10433000930807EBC809013ED9F8042003F00803ED
:10434000F6B2A2F1080003F0FF04002B40F0048154
:1043500057F838301B0C99B222F8081C002B00F0DB
:10436000F280A24B22F8064C42F8044C53F8262067
:10437000002A00F06E819E4D55F8263058609D4C05
:1043800045F8260034F81630194424F8161000F0C9
:1043900087FD002800F05681974A984B19F0080FC6
:1043A00000F1080018BF1346C9F8040047F8383078
:1043B00008238BF800309BF80040E4B261071BD55E
:1043C0008F4B1B78ABB18F490A7802F0FF032AB1FB
:1043D000013BDBB20B70002B00F0EF848A490A78B6
:1043E00002F0FF032AB1013BDBB20B70002B00F09F
:1043F000F78004238BF8003004F0080303F0FF0279
:10440000002B00F0D6809AF80030DBB21E098DD167
:104410009C08DFF8D49159F8342009EBC401C2F3A9
:104420008302013A49680C2A7ED8DFE802F08181D4
:104430007D7D7D7D7D7D477D7D7D07000868734D99
:104440004A68734F734E286081B240F281606A4BB4
:104450006A604FF0010E0022814249F834303A6020
:10446000C9F81020C9F8182086F800E05E4C00F268
:10447000F480B1F5D06F80F07883B1F5817F00F0E2
:10448000628300F28782802900F0EC82822940F06A
:104490001E83A98801F07F01042900F218835E4879
:1044A0005E4C89000844227062700278930740F1E4
:1044B000798384F800E04FF0020ED8E2544F3A6856
:1044C00042B3574B534E5749188834780D784028DB
:1044D000864645F0020828BF4FF0400E002C84F0BD
:1044E00001043470CEEB00000CBF8824C82409EB13
:1044F000C80680B285F0010544EA0E447260188057
:1045000049F8384072440D7018B9BEF1400F18BF19
:1045100000223A603D4B1A88B2F5A06F04D1002109
:104520009A785970404B1A70404A012313703FE744
:10453000364A158842F22100854200F0FF812E4A5A
:1045400049F83420F0E72C4A2C4B19F0080F18BF1B
:10455000134647F838302BE700F0C2FC344A35499F
:1045600052F82630002B00F0B68158688C5D42F876
:10457000260003F10802C9F80420032C05D8DFE85F
:1045800004F0120F150204228A551A8819F0080F38
:104590000CBF8823C82343EA024347F8383007E7B3
:1045A00002228A55F1E703228A55EEE705228A5551
:1045B000EBE7E00700F11A82210600F14982A20729
:1045C00006D51D4A1D4913780220DBB2137008700E
:1045D000E30602D5194B10221A7007B0BDE8F08F20
:1045E00000F0EAFD05E700BF0080FF1F4094FF1FB9
:1045F000EC93FF1F3C95FF1FC8004000880040005F
:10460000C894FF1F5194FF1FD094FF1FB494FF1F45
:10461000E893FF1F5094FF1FC0200740C094FF1F66
:10462000FC93FF1FBC94FF1F982007409420074075
:104630009494FF1FCC94FF1F8820074080200740E0
:1046400090200740AB4A47F83800137801331370C5
:10465000AEE643F82600A84D91E642F221008142E1
:1046600000F0358100F2AF81B1F5086F00F01B82D8
:10467000B1F5106F40F02B82226AA049A87808702B
:10468000120600F14583D9F828209D49130600F150
:104690003A83D9F830209A49150600F12F83D9F8CA
:1046A00038209749140600F12483D9F84020944912
:1046B000100600F11983D9F848209149120600F13B
:1046C0000E83D9F850208E49130600F10383D9F8E0
:1046D00058208B49150600F1F882D9F860208849E6
:1046E000140600F12983D9F868208549100600F1E5
:1046F0001E83D9F870208249120600F11383D9F87D
:1047000078207F49130600F10883D9F880207C497E
:10471000150600F11C83D9F888207949140600F1A8
:104720001083D9F890207649100600F1C882D9F894
:1047300098207349120600F1BC827248724A73498C
:10474000019073486C4D734C0497002305960295B5
:10475000804617460E461D460394386828B14468C3
:1047600000F0BEFB2046002CF9D100233B60029BE9
:1047700030681A46002342F8253028B1446800F01A
:10478000AFFB2046002CF9D100223260019A98F844
:1047900000301146002241F8042B039A0191023B9C
:1047A0004FF0000122F81510032B09D8DFE813F0B1
:1047B0004B0104004B0104004FF0010388F8003066
:1047C0000135042D07F1040706F1040608F101087C
:1047D000C3D1514C514B2278464D049F059E002178
:1047E00029701A70130700F14F8262784C49DFF884
:1047F00010810A7010074FF00001C9F83010C9F895
:10480000381000F12B824749A2780A700021C9F8BC
:104810005010C9F858101107DFF8E48000F1DC816E
:10482000E2784149364C0A7000211207C9F870102D
:10483000C9F8781000F1B98133780193002183F031
:104840000102C9F89010C9F8981000200290804623
:104850008446044635490D7845F0020E09EBCE0337
:104860000393019B002B039B5C600CBF8824C8242E
:1048700044EA080385F0010449F83E3032700C70B8
:10488000DFF87CE02A4BDFF8A480002840F0268186
:10489000BCF1400F1BD144F0020C09EBCC03029C8D
:1048A000DFF85CE05C60002A40F02E81020442F0F8
:1048B00088029DF804304EF83C20044433700D709B
:1048C0002346402803D100201A4A3B6010801A4A30
:1048D0000123137028E68B5D032B00F22D8101A2CA
:1048E00052F823F0B1430000B14300003B4A0000FE
:1048F000414A0000BD94FF1FEC93FF1FC894FF1FA7
:104900000080FF1FA494FF1F4094FF1F9494FF1F7B
:10491000CC94FF1F3C95FF1F848C0000C4200740EF
:10492000C8200740CC200740D0200740BC94FF1F80
:104930005094FF1FFC93FF1F94200740928892B968
:10494000B14A0D784878157050708D78C878957098
:10495000D07010680D79157186284D798979557157
:10496000917100F0A580A949A94E0A78307882F0AB
:104970000105002842F002020D700CBF8821C821F9
:1049800049F8321009EBC20280F0010000213070BA
:104990005160D4E540F20232914240F08D80A98806
:1049A00001F07F01042900F292806A88002A40F019
:1049B0008E809848CDF804E089000844017841F0E1
:1049C0000201017041E742F2212081427BD1A98896
:1049D000002940F0E480904B904A9148AC781D68E3
:1049E0001560CDF804E00A4604702EE78D4B8E4822
:1049F00086491A614FF0020E80F800E0854F0A7078
:104A00008A49196099608A4E8A4D8B4C9A610D21B2
:104A10003970FF213170DFF840E229702270874D34
:104A2000874A8EF800109F27012406F8047C5D60F9
:104A30000470DA6007B0BDE8F08F00238B55B7E44F
:104A400001238B55B4E44FF0000388F80030B7E63B
:104A50007049784B80220D2008701A70A2077FF5EC
:104A6000B7ADAEE5774C4FF0020E22706270EA8867
:104A7000724580F0A38165490D78402A944645F03F
:104A8000020E28BF4FF0400C04EB0C0309EBCE00E4
:104A90000293012344604FEA0C48CCEB02000193DF
:104AA0000022C824E4E6684A664C12782270DEE7E9
:104AB000664A0F21117056E7B1F5A06F07D10123A7
:104AC00000220193C1E642F221329142F7D0514ACD
:104AD0000F231370544A0123137025E540287FF6F5
:104AE000DAAE44F002040EEBC401029E4E60BAB18D
:104AF0009DF80410564A19703346403888F8005023
:104B000040334EF83420DFE69DF804303370020461
:104B1000029B0D7042F0C80203444EF83C20D0E6E0
:104B20009DF804101970029B404A88F800504038E4
:104B300040334EF83420C7E619F0080F0CBF0223AB
:104B400003238B5534E4A98801F07F010429BED8E2
:104B50006A88002ABBD12F48CDF804E089000844B8
:104B6000017821F0020101706FE63A4A5468002C86
:104B7000ADD06888B5F804E003E00C325468002C2E
:104B8000A5D013888342F8D153887345F5D1000A24
:104B900003280CBF94F800E0B2F808E067E7CDF80E
:104BA00004E052E64FF0020E61E700F079F90028C8
:104BB00000F0F18008301D4AC4F88400C4F8802059
:104BC00000F06EF9002800F0E0800830204AC9F8B3
:104BD0008C00C9F888202FE600F062F9002800F068
:104BE000E6800830114AC8F86400C8F8602000F078
:104BF00057F9002800F0D5800830154AC9F86C0034
:104C0000C9F868200CE600BF4495FF1FBC94FF1F45
:104C10005094FF1FC0200740E493FF1F4C95FF1FD7
:104C2000E094FF1F0080FF1F942007408800400091
:104C30008820074080200740982007400094FF1FED
:104C40005494FF1FC094FF1FC894FF1F5194FF1F6F
:104C5000C8004000888C00008C20074000F020F93C
:104C6000002800F08C8008305D4AC8F84400C8F87D
:104C7000402000F015F900287BD00830594AC9F8C7
:104C80004C00C9F84820BEE500F00AF900286AD0B7
:104C90000830534AC9F82400C9F8202000F000F970
:104CA00000285AD008304F4AC9F82C00C9F82820EB
:104CB0009BE5D1F89C00083800F012F93DE5D1F8E9
:104CC0009400083800F00CF931E5C86D083800F0A0
:104CD00007F902E5486D083800F002F9F7E4C86CFE
:104CE000083800F0FDF8ECE4486C083800F0F8F8FB
:104CF000E1E4C86B083800F0F3F8D6E4486B0838F4
:104D000000F0EEF8CBE4C86A083800F0E9F8C0E437
:104D1000606A083800F0E4F8B5E4C86F083800F0BD
:104D2000DFF8F2E4486F083800F0DAF8E7E4C86E1C
:104D3000083800F0D5F8DCE4486E083800F0D0F808
:104D4000D1E4D1F88C00083800F0CAF8E9E4D1F8D1
:104D50008400083800F0C4F8DDE42A78C9F8280097
:104D600001322A7041E52A78C9F8200001322A7000
:104D700094E72A78C9F8480001322A7043E52A7876
:104D8000C8F8400001322A7073E72A78C9F8880011
:104D900001322A7050E52A78C4F8800001322A7066
:104DA0000EE72A78C9F8680001322A7038E52A78B7
:104DB000C8F8600001322A7019E700BEBEF1400F4A
:104DC000F44628BF4FF0400C04EB0C030293012380
:104DD000CCEB0E004FEA0C48002201933AE500BFED
:104DE00088004000C80040002DE9F843204C00F046
:104DF000ADFC002204F1A00023461A605A6008337B
:104E000083424FF00001F8D11A4A1B4F13681B4D23
:104E10001B481C4EDFF87880DFF878C0DFF8789008
:104E2000DFF878E043F480231360C4F307233B707A
:104E3000C4F307432B70240EFF2302F528320470BD
:104E4000114D88F8003011488CF80030D43233709E
:104E5000012389F8003070268EF800104FF400749A
:104E6000102107F8183C2E7004601170BDE8F8831B
:104E70000080FF1F348004409C200740B020074082
:104E8000B42007401020074049E400E008E100E0BA
:104E900080200740882007409420074000210740D9
:104EA00072B60D480268B2FA82F30B2B10DC4FF099
:104EB0000041D94022EA0102026062B6074803EBD2
:104EC000C303DB00C2180021C15010465160704777
:104ED00062B60020704700BFD489FF1FBC83FF1F4C
:104EE0000D4B0E4AC31AA2FB03231B090B2B0CD834
:104EF0000B4A127852B972B60A484FF00041026864
:104F000021FA03F31A43026062B67047064A127828
:104F1000002AF0D0FFF75CB9BC83FF1F398EE3385D
:104F2000BD94FF1FD489FF1FC894FF1F38B50F4DD4
:104F3000286878B143880288C118013393420C7AFB
:104F400002D24380204638BDFFF7CAFF0023204627
:104F50002B6038BD064B1B782BB10320FFF704F9FB
:104F600028600028E6D14FF0FF3038BDDC94FF1FE9
:104F7000C894FF1F10B5094C206818B14388184425
:104F8000007A10BD064B1B782BB10320FFF7ECF81D
:104F900020600028F2D14FF0FF3010BDDC94FF1FDD
:104FA000C894FF1F044B054A1B6890881BB11A88E0
:104FB0005B88D31A18447047DC94FF1F3C95FF1F91
:104FC0000B4B1B789BB110B50A4C206848B1FFF71A
:104FD00087FF002303202360FFF7C6F830B1FFF7F7
:104FE0007FFF0320FFF7C0F80028F8D110BD7047FD
:104FF000C894FF1FDC94FF1F2DE9F04FDFF8F890F5
:1050000083B0012289F80020019169B3DFF8EC80B8
:10501000364F019E8346D8F80000B0B3344D448823
:10502000C4F14001B14228BF314604EB010E002219
:105030001FFA8EFE2A70761AA0F802E000F108022C
:1050400051B1013C224459441BF8014B02F8014F75
:105050008B45F9D1B0F802E0BEF13F0F0BD8254ADD
:1050600005211170002ED6D10198002389F8003057
:1050700003B0BDE8F08F4022028001460420FFF714
:105080000BF90022C8F80020E9E73A782AB3184D56
:105090004AF2F9244FF0010A07E0013C16D02A78C1
:1050A000A2B900F029FA3A78BAB10420FFF77AF8E9
:1050B0000728F2D889F800A0FFF7F2FEC8F8000030
:1050C0000028ACD10C4B013C1870E8D101234FF003
:1050D000FF302B7003B0BDE8F08F00234FF0FF309E
:1050E00089F8003003B0BDE8F08F00BFC894FF1FFF
:1050F000D894FF1FD094FF1FD194FF1FD494FF1F9B
:1051000000B583B002AB012103F8010D1846FFF78B
:1051100073FF03B05DF804FB38B50E4D0E4C2868E4
:105120000123237028B1408800232370C0F1400080
:1051300038BD0A4B1B7813B90020207038BD0420FD
:10514000FFF730F80728F7D8FFF7AAFE28600028F5
:10515000E9D1F1E7D494FF1FD194FF1FC894FF1F3A
:10516000F8B5114B1B788BB1104E114D34680127E7
:105170002F7064B10F4A638800271770214623807F
:105180000420FFF789F8376000232B70F8BDFFF784
:1051900087FE084B28B1014604201C70FFF77CF8FD
:1051A000F2E71F70F0E700BFC894FF1FD494FF1F01
:1051B000D194FF1FD094FF1F38B50E4B1B7873B9E5
:1051C0000D4C216861B103F0FF054B880B80042072
:1051D000FFF762F8256038BD084B01221A7038BD10
:1051E000FFF75EFE0028F7D00146BDE838400420F6
:1051F000FFF752B8D194FF1FD494FF1FD094FF1F24
:1052000070B5EFF3108272B60C4C206880B10C4E72
:1052100000254369236073B19D6102B962B6457789
:1052200083689847EFF3108272B620680028F0D1A7
:1052300002B962B670BD3360EFE700BFE494FF1FB0
:10524000E894FF1FFFF7DCBF024A136801331360C5
:10525000704700BFE493FF1F00B5064A0368128839
:105260005B6883B001A9ADF804200222984703B01F
:105270005DF804FB4C8C0000F0B507468BB0002AAB
:1052800033D0012A08BF0A2251B3212400E0F4B22E
:10529000B1FBF2F502FB1511C8B2092900F130018A
:1052A00098BFC8B20AA988BF3730214488BFC0B2AE
:1052B00001F8240C661E2946002DE8D133B1013CCB
:1052C000E4B20AAB23442D2203F8242C3B6801AA44
:1052D00011195B683846C4F1220298470BB0F0BD43
:1052E00030228DF825202124E8E70368C9B21B6825
:1052F00098470BB0F0BD00BF0029BABF49422D232B
:1053000000230A22FFF7B8BF2DE9F04385B080469D
:105310001946104616461F469DF8305001F06AFFA8
:10532000002840F0B18027F00044304621464FF07D
:10533000FF32594B01F05EFF98B9304621464FF0DD
:10534000FF32554B01F038FF58B9D8F800305349B7
:105350005B684046032298478146484605B0BDE851
:10536000F083304639464FF060424D4B01F038FF34
:10537000002870D1304639464FF06042494B01F069
:1053800011FF002867D1304639460022002301F082
:1053900009FF002863D18146002D65D0424B0024CF
:1053A0000022104619463AA3D3E9002301F088FCF5
:1053B00001340B46E1B28D420246F2D830463946FE
:1053C00001F0CCFA0F46064601F02AFF044601F030
:1053D00001FC02460B463046394601F0BDFA4B4609
:1053E00006460F460A2221464046FFF745FF0F2D8D
:1053F00028BF0F2501352E238146EDB28DF80030F0
:1054000001240022294B3046394601F059FC0F4651
:10541000064601F005FF04AB2344C0B200F13002A0
:1054200003F8102C01F0E6FB02460B4630463946E5
:1054300001F092FA0134E4B2AC4206460F46E0D1E4
:10544000D8F8003022465B6840466946984748468F
:1054500005B0BDE8F083D8F80030154978E707F1CA
:1054600000474FF0010997E700220F4B30463946BD
:1054700001F074FA01F0D4FE4B4601460A22404680
:10548000FFF7FAFE814668E7D8F8003009495FE780
:10549000000000A09999B93FFFFFEF7F588C0000F2
:1054A000FFFFEF41FFFFEFC10000E03F000024409D
:1054B000548C0000508C000008B5FBF7C3F9FBF7D3
:1054C000F7F900F019F8FAE702F090BB02F096BB8A
:1054D000FFF776BDFFF74EBDFFF728BDFFF762BDB2
:1054E000FFF73EBEFFF718BE08461146FFF784BD22
:1054F0000846FFF705BE00BF2DE9F843314E33786B
:1055000093B1314F3A787AB90122D9073A7036D43B
:105510009A0719D400225B073A7005D52B4B1A68FD
:1055200012B1EFF305820AB1BDE8F883EFF3108101
:1055300072B6186818B1264C2278002A2ED000299D
:10554000F2D162B6BDE8F883DFF8908098F80020C9
:10555000002ADFD0DFF88890002405E0013498F8B5
:105560000030E4B2A34212D959F824502B682846DF
:105570001B6998470028F1D02B699847EEE7FFF7A1
:1055800011FDC8B9134B1B781BB93378C0E73378CA
:10559000C0E7337803F0FE033370B9E745691D6057
:1055A000012323705DB1AA6101B962B60025457778
:1055B000836898472570B7E700F00AF9E2E7064BE1
:1055C0001D60F1E7E889FF1FF594FF1FF094FF1FAE
:1055D000F494FF1F8E8AFF1FEC94FF1F0495FF1F9A
:1055E000F894FF1F30B42948294A2A4B2A4D6024D9
:1055F000E121047011701B78284C082B30D00A2B45
:105600002748284937D00C2B0CBF35223D221223C6
:105610002A60236002600B60234B24491B78244AD4
:10562000BBB101230B601360224B23491B78234A33
:10563000012B26D9042B0FD9082B1ED9102B94BF70
:10564000862387230B6013601D4B01221A7030BC28
:1056500070470B601360E7E784230B601360F3E788
:1056600000F58E200F490830012213232A602360A1
:1056700002600B60D0E73922F7E785230B601360E7
:10568000E2E780230B601360DEE700BF00400740C5
:1056900001400740E989FF1F08B003400CB00340F8
:1056A00008B00B400CB00B40F794FF1F20B0034034
:1056B00020B00B40EA89FF1F24B0034024B00B4008
:1056C000F694FF1F0A4A0B49136843F48053136092
:1056D0000B7843B9084BC0221A70084B80F30C00BA
:1056E00000B218807047044B80221A70F5E700BFA3
:1056F0002C800440F794FF1F21C00C4000C00C40D8
:10570000F0B44D1E2E46002400E00134B0FBF2F34D
:1057100002FB1300092800F130078ABF3730F8B2C6
:10572000C0B206F8010F1846002BEED10A195370CB
:105730004CB1107815F8016F28700133E01A8342DC
:1057400002F80169F5DB0846F0BC704770B584B01B
:1057500072B6194B194D1A48702241260F24802128
:105760001A702E701A460470197013781B06FCD537
:10577000144B186862B6144B144C984298BF00EB57
:10578000800001A998BF40000A22FFF7B9FF01A9D4
:105790002046002311F8012B01333AB10A2B20F8DF
:1057A000022FF7D11623237004B070BD5B00DBB26B
:1057B000237004B070BD00BF00000240070002402B
:1057C00006000240080002407F969800788AFF1F7A
:1057D000704700BF2DE9F04FDFF8E4928DB0064628
:1057E0000F4614461D4600F06FF999F90080B8F194
:1057F000FF3FCDE9000146D022462B4620462946F0
:1058000001F0F8FC834600283DD132463B46304645
:10581000394601F0EFFC002282460023002840F0C8
:1058200084803046394601F0B3FC002830D0002295
:1058300000232046294601F0ABFC8346A8B1012293
:10584000984B029200210022CDF828A0CDE90467F0
:10585000CDE90645CDE908120393B8F1000F53D006
:10586000914900200DB0BDE8F08F2046294600F098
:1058700049FF40B1002200232046294601F092FC56
:10588000002840F0B780DDE900010DB0BDE8F08FE1
:10589000DDE9000100F036FF804600285DD04FF0C2
:1058A000000A4FF0000B52465B46DDE9000101F0B3
:1058B0006FFC0028E7D03046394600F023FF00286F
:1058C000E1D02046294600F01DFF0028DBD099F9E1
:1058D0000030744A039204210022022BCDE90467B0
:1058E000CDE90645CDE908AB02910A9203D002A8A2
:1058F00000F00EFF70B902F04BF92223036009E0BB
:1059000000230024CDE9083402A800F001FF00289C
:1059100000F086800A9B1BB102F03AF90A9B0360F3
:10592000DDE908010DB0BDE8F08F2046294601F001
:105930002FFC0028A7D05C495A4BCDF828B0012293
:105940000020B8F1020FCDE90467CDE906450292C7
:105950000393CDE90801D7D197E73046394600F0E7
:10596000D1FE00289BD02046294600F0CBFE00281F
:1059700095D0DDE900231046194601F03BFC0028D4
:1059800073D1032399F900800293464B0A90039345
:10599000CDE90467CDE906450022002330463946AB
:1059A000B8F1000F41D1414F4FF06046CDE9086793
:1059B00001F0F8FB00289AD000223D4B20462946F2
:1059C00001F07EF904460D4600F0AAFE02460B46A1
:1059D0002046294601F0DCFB002843D1354B99F9DC
:1059E00000804FF06042CDE90823B8F1020F7FF448
:1059F0007EAF80E799F900302A4ACDF828B001211E
:105A0000CDE90467CDE9064502910392002B3FF4EE
:105A100077AF29490020022BCDE908017FF474AF4C
:105A200002F0B6F82123036074E7244F0026CDE985
:105A3000086701F0B7FB0028D7D000221C4B204696
:105A4000294601F03DF904460D4600F069FE024684
:105A50000B462046294601F09BFB18B9164B002245
:105A6000CDE9082399F90080BFE799F900900D4B23
:105A7000CDF828800122CDE90467CDE906450292E0
:105A80000393B9F1000F3FF43BAF0022002310460F
:105A9000194601F03FFAB9F1020FCDE90801BFD074
:105AA00032E700BFDC8C00000000F03FFFFFEF4753
:105AB0000000E03FFFFFEFC70000F0FF0000F07FB5
:105AC0008F8AFF1FFFFFFFFF2DE9F04F23F00048F3
:105AD00058EA020993B03CD0714C21F00046A6422E
